{
  "address": "0xB04b61d679C40C720e091e401f00618BA2bEe82f",
  "abi": [
    {
      "inputs": [
        {
          "internalType": "uint256",
          "name": "interval_",
          "type": "uint256"
        }
      ],
      "stateMutability": "nonpayable",
      "type": "constructor"
    },
    {
      "anonymous": false,
      "inputs": [
        {
          "indexed": true,
          "internalType": "bytes32",
          "name": "id",
          "type": "bytes32"
        }
      ],
      "name": "ChainlinkCancelled",
      "type": "event"
    },
    {
      "anonymous": false,
      "inputs": [
        {
          "indexed": true,
          "internalType": "bytes32",
          "name": "id",
          "type": "bytes32"
        }
      ],
      "name": "ChainlinkFulfilled",
      "type": "event"
    },
    {
      "anonymous": false,
      "inputs": [
        {
          "indexed": true,
          "internalType": "bytes32",
          "name": "id",
          "type": "bytes32"
        }
      ],
      "name": "ChainlinkRequested",
      "type": "event"
    },
    {
      "anonymous": false,
      "inputs": [
        {
          "indexed": true,
          "internalType": "address",
          "name": "previousOwner",
          "type": "address"
        },
        {
          "indexed": true,
          "internalType": "address",
          "name": "newOwner",
          "type": "address"
        }
      ],
      "name": "OwnershipTransferred",
      "type": "event"
    },
    {
      "anonymous": false,
      "inputs": [
        {
          "indexed": false,
          "internalType": "uint256",
          "name": "time",
          "type": "uint256"
        },
        {
          "indexed": false,
          "internalType": "bytes32",
          "name": "root",
          "type": "bytes32"
        }
      ],
      "name": "RequestRes",
      "type": "event"
    },
    {
      "anonymous": false,
      "inputs": [
        {
          "indexed": false,
          "internalType": "string",
          "name": "url",
          "type": "string"
        },
        {
          "indexed": false,
          "internalType": "uint256",
          "name": "time",
          "type": "uint256"
        }
      ],
      "name": "RequestUrl",
      "type": "event"
    },
    {
      "inputs": [],
      "name": "_root",
      "outputs": [
        {
          "internalType": "bytes32",
          "name": "",
          "type": "bytes32"
        }
      ],
      "stateMutability": "view",
      "type": "function"
    },
    {
      "inputs": [
        {
          "internalType": "bytes",
          "name": "",
          "type": "bytes"
        }
      ],
      "name": "checkUpkeep",
      "outputs": [
        {
          "internalType": "bool",
          "name": "upkeepNeeded",
          "type": "bool"
        },
        {
          "internalType": "bytes",
          "name": "",
          "type": "bytes"
        }
      ],
      "stateMutability": "view",
      "type": "function"
    },
    {
      "inputs": [
        {
          "internalType": "uint8",
          "name": "c",
          "type": "uint8"
        }
      ],
      "name": "fromHexChar",
      "outputs": [
        {
          "internalType": "uint8",
          "name": "",
          "type": "uint8"
        }
      ],
      "stateMutability": "pure",
      "type": "function"
    },
    {
      "inputs": [
        {
          "internalType": "string",
          "name": "s",
          "type": "string"
        }
      ],
      "name": "fromHexToBytes32",
      "outputs": [
        {
          "internalType": "bytes32",
          "name": "value",
          "type": "bytes32"
        }
      ],
      "stateMutability": "pure",
      "type": "function"
    },
    {
      "inputs": [
        {
          "internalType": "bytes32",
          "name": "_requestId",
          "type": "bytes32"
        },
        {
          "internalType": "bytes32",
          "name": "_val",
          "type": "bytes32"
        }
      ],
      "name": "fulfill",
      "outputs": [],
      "stateMutability": "nonpayable",
      "type": "function"
    },
    {
      "inputs": [],
      "name": "interval",
      "outputs": [
        {
          "internalType": "uint256",
          "name": "",
          "type": "uint256"
        }
      ],
      "stateMutability": "view",
      "type": "function"
    },
    {
      "inputs": [],
      "name": "lastTimeStamp",
      "outputs": [
        {
          "internalType": "uint256",
          "name": "",
          "type": "uint256"
        }
      ],
      "stateMutability": "view",
      "type": "function"
    },
    {
      "inputs": [],
      "name": "owner",
      "outputs": [
        {
          "internalType": "address",
          "name": "",
          "type": "address"
        }
      ],
      "stateMutability": "view",
      "type": "function"
    },
    {
      "inputs": [
        {
          "internalType": "bytes",
          "name": "",
          "type": "bytes"
        }
      ],
      "name": "performUpkeep",
      "outputs": [],
      "stateMutability": "nonpayable",
      "type": "function"
    },
    {
      "inputs": [],
      "name": "renounceOwnership",
      "outputs": [],
      "stateMutability": "nonpayable",
      "type": "function"
    },
    {
      "inputs": [
        {
          "internalType": "bytes32",
          "name": "",
          "type": "bytes32"
        }
      ],
      "name": "requestParams",
      "outputs": [
        {
          "internalType": "address",
          "name": "",
          "type": "address"
        }
      ],
      "stateMutability": "view",
      "type": "function"
    },
    {
      "inputs": [
        {
          "internalType": "address",
          "name": "newOwner",
          "type": "address"
        }
      ],
      "name": "transferOwnership",
      "outputs": [],
      "stateMutability": "nonpayable",
      "type": "function"
    },
    {
      "inputs": [
        {
          "internalType": "address",
          "name": "user",
          "type": "address"
        },
        {
          "internalType": "uint256",
          "name": "coinAmount",
          "type": "uint256"
        },
        {
          "internalType": "uint256",
          "name": "boxAmount",
          "type": "uint256"
        },
        {
          "internalType": "bytes32[]",
          "name": "proof",
          "type": "bytes32[]"
        }
      ],
      "name": "verify",
      "outputs": [
        {
          "internalType": "bool",
          "name": "valid",
          "type": "bool"
        }
      ],
      "stateMutability": "view",
      "type": "function"
    },
    {
      "inputs": [],
      "name": "withdrawLink",
      "outputs": [],
      "stateMutability": "nonpayable",
      "type": "function"
    }
  ],
  "transactionHash": "0x7d301b18f9a2a2cb87220f3b3f669bccd44e33954846e5a66ada095694ac5029",
  "args": [
    60
  ],
  "numDeployments": 7,
  "solcInputHash": "92c9e26eebfade83a44f59d5d474a4b3",
  "bytecode": "0x60a060405260016004556040518060600160405280602a815260200162003234602a91396007908162000033919062000502565b503480156200004157600080fd5b506040516200325e3803806200325e83398181016040528101906200006791906200061f565b620000876200007b6200013260201b60201c565b6200013a60201b60201c565b8060808181525050620000b473326c977e6efc84e512bb9c30f76e30c160ed06fb6200020060201b60201c565b620000d97340193c8518bb267228fc409a613bdbd8ec5a97b36200024460201b60201c565b7f3764613237303266333766643438653562316239613537313565333530396236600981905550600a670de0b6b3a7640000600162000119919062000680565b620001259190620006fa565b6008819055505062000732565b600033905090565b6000600660009054906101000a900473ffffffffffffffffffffffffffffffffffffffff16905081600660006101000a81548173ffffffffffffffffffffffffffffffffffffffff021916908373ffffffffffffffffffffffffffffffffffffffff1602179055508173ffffffffffffffffffffffffffffffffffffffff168173ffffffffffffffffffffffffffffffffffffffff167f8be0079c531659141344cd1fd0a4f28419497f9722a3daafe3b4186f6b6457e060405160405180910390a35050565b80600260006101000a81548173ffffffffffffffffffffffffffffffffffffffff021916908373ffffffffffffffffffffffffffffffffffffffff16021790555050565b80600360006101000a81548173ffffffffffffffffffffffffffffffffffffffff021916908373ffffffffffffffffffffffffffffffffffffffff16021790555050565b600081519050919050565b7f4e487b7100000000000000000000000000000000000000000000000000000000600052604160045260246000fd5b7f4e487b7100000000000000000000000000000000000000000000000000000000600052602260045260246000fd5b600060028204905060018216806200030a57607f821691505b60208210810362000320576200031f620002c2565b5b50919050565b60008190508160005260206000209050919050565b60006020601f8301049050919050565b600082821b905092915050565b6000600883026200038a7fffffffffffffffffffffffffffffffffffffffffffffffffffffffffffffffff826200034b565b6200039686836200034b565b95508019841693508086168417925050509392505050565b6000819050919050565b6000819050919050565b6000620003e3620003dd620003d784620003ae565b620003b8565b620003ae565b9050919050565b6000819050919050565b620003ff83620003c2565b620004176200040e82620003ea565b84845462000358565b825550505050565b600090565b6200042e6200041f565b6200043b818484620003f4565b505050565b5b8181101562000463576200045760008262000424565b60018101905062000441565b5050565b601f821115620004b2576200047c8162000326565b62000487846200033b565b8101602085101562000497578190505b620004af620004a6856200033b565b83018262000440565b50505b505050565b600082821c905092915050565b6000620004d760001984600802620004b7565b1980831691505092915050565b6000620004f28383620004c4565b9150826002028217905092915050565b6200050d8262000288565b67ffffffffffffffff81111562000529576200052862000293565b5b620005358254620002f1565b6200054282828562000467565b600060209050601f8311600181146200057a576000841562000565578287015190505b620005718582620004e4565b865550620005e1565b601f1984166200058a8662000326565b60005b82811015620005b4578489015182556001820191506020850194506020810190506200058d565b86831015620005d45784890151620005d0601f891682620004c4565b8355505b6001600288020188555050505b505050505050565b600080fd5b620005f981620003ae565b81146200060557600080fd5b50565b6000815190506200061981620005ee565b92915050565b600060208284031215620006385762000637620005e9565b5b6000620006488482850162000608565b91505092915050565b7f4e487b7100000000000000000000000000000000000000000000000000000000600052601160045260246000fd5b60006200068d82620003ae565b91506200069a83620003ae565b9250828202620006aa81620003ae565b91508282048414831517620006c457620006c362000651565b5b5092915050565b7f4e487b7100000000000000000000000000000000000000000000000000000000600052601260045260246000fd5b60006200070782620003ae565b91506200071483620003ae565b925082620007275762000726620006cb565b5b828204905092915050565b608051612adf62000755600039600081816109ac0152610b700152612adf6000f3fe608060405234801561001057600080fd5b50600436106100ea5760003560e01c80638da5cb5b1161008c578063b30119f511610066578063b30119f514610226578063c61b586214610256578063e329e18b14610274578063f2fde38b146102a4576100ea565b80638da5cb5b146101e05780638dc654a2146101fe578063947a36fb14610208576100ea565b80634585e33b116100c85780634585e33b1461015957806355ab79cb146101755780636e04ff0d146101a5578063715018a6146101d6576100ea565b8063042f2b65146100ef5780632ecb20d31461010b5780633f3b3b271461013b575b600080fd5b61010960048036038101906101049190611941565b6102c0565b005b610125600480360381019061012091906119ba565b610411565b60405161013291906119f6565b60405180910390f35b6101436107b6565b6040516101509190611a2a565b60405180910390f35b610173600480360381019061016e9190611aaa565b6107bc565b005b61018f600480360381019061018a9190611af7565b610973565b60405161019c9190611b65565b60405180910390f35b6101bf60048036038101906101ba9190611aaa565b6109a6565b6040516101cd929190611c2b565b60405180910390f35b6101de6109e3565b005b6101e86109f7565b6040516101f59190611b65565b60405180910390f35b610206610a21565b005b610210610b6e565b60405161021d9190611a2a565b60405180910390f35b610240600480360381019061023b9190611d8b565b610b92565b60405161024d9190611de3565b60405180910390f35b61025e610d01565b60405161026b9190611de3565b60405180910390f35b61028e60048036038101906102899190611eac565b610d07565b60405161029b9190611f34565b60405180910390f35b6102be60048036038101906102b99190611f4f565b610d91565b005b816005600082815260200190815260200160002060009054906101000a900473ffffffffffffffffffffffffffffffffffffffff1673ffffffffffffffffffffffffffffffffffffffff163373ffffffffffffffffffffffffffffffffffffffff1614610362576040517f08c379a000000000000000000000000000000000000000000000000000000000815260040161035990611fff565b60405180910390fd5b6005600082815260200190815260200160002060006101000a81549073ffffffffffffffffffffffffffffffffffffffff0219169055807f7cc135e0cebb02c3480ae5d74d377283180a2601f8f644edf7987b009316c63a60405160405180910390a281600a8190555042600c819055507fa8cb132b52da720e75cf757ed23da4b3b9514099b24ca418908b5b2eec2fbee6428360405161040492919061201f565b60405180910390a1505050565b60007f30000000000000000000000000000000000000000000000000000000000000007effffffffffffffffffffffffffffffffffffffffffffffffffffffffffffff19168260f81b7effffffffffffffffffffffffffffffffffffffffffffffffffffffffffffff1916101580156104f157507f39000000000000000000000000000000000000000000000000000000000000007effffffffffffffffffffffffffffffffffffffffffffffffffffffffffffff19168260f81b7effffffffffffffffffffffffffffffffffffffffffffffffffffffffffffff191611155b1561052c577f300000000000000000000000000000000000000000000000000000000000000060f81c826105259190612077565b90506107b1565b7f61000000000000000000000000000000000000000000000000000000000000007effffffffffffffffffffffffffffffffffffffffffffffffffffffffffffff19168260f81b7effffffffffffffffffffffffffffffffffffffffffffffffffffffffffffff19161015801561060a57507f66000000000000000000000000000000000000000000000000000000000000007effffffffffffffffffffffffffffffffffffffffffffffffffffffffffffff19168260f81b7effffffffffffffffffffffffffffffffffffffffffffffffffffffffffffff191611155b15610651577f610000000000000000000000000000000000000000000000000000000000000060f81c82600a61064091906120ac565b61064a9190612077565b90506107b1565b7f41000000000000000000000000000000000000000000000000000000000000007effffffffffffffffffffffffffffffffffffffffffffffffffffffffffffff19168260f81b7effffffffffffffffffffffffffffffffffffffffffffffffffffffffffffff19161015801561072f57507f46000000000000000000000000000000000000000000000000000000000000007effffffffffffffffffffffffffffffffffffffffffffffffffffffffffffff19168260f81b7effffffffffffffffffffffffffffffffffffffffffffffffffffffffffffff191611155b15610776577f410000000000000000000000000000000000000000000000000000000000000060f81c82600a61076591906120ac565b61076f9190612077565b90506107b1565b6040517f08c379a00000000000000000000000000000000000000000000000000000000081526004016107a89061212d565b60405180910390fd5b919050565b600c5481565b60006107d26009543063042f2b6560e01b610e14565b90506108a86040518060400160405280600381526020017f67657400000000000000000000000000000000000000000000000000000000008152506007805461081a9061217c565b80601f01602080910402602001604051908101604052809291908181526020018280546108469061217c565b80156108935780601f1061086857610100808354040283529160200191610893565b820191906000526020600020905b81548152906001019060200180831161087657829003601f168201915b505050505083610e459092919063ffffffff16565b6109276040518060400160405280600481526020017f70617468000000000000000000000000000000000000000000000000000000008152506040518060400160405280600481526020017f726f6f740000000000000000000000000000000000000000000000000000000081525083610e459092919063ffffffff16565b7fc9f16d20e33dc0075b30c422e02ce848affb09fe61ccd14f81b0df31e9759b70600742604051610959929190612246565b60405180910390a161096d81600854610e78565b50505050565b600b6020528060005260406000206000915054906101000a900473ffffffffffffffffffffffffffffffffffffffff1681565b600060607f0000000000000000000000000000000000000000000000000000000000000000600c54426109d99190612276565b1191509250929050565b6109eb610eaf565b6109f56000610f2d565b565b6000600660009054906101000a900473ffffffffffffffffffffffffffffffffffffffff16905090565b610a29610eaf565b6000610a33610ff3565b90508073ffffffffffffffffffffffffffffffffffffffff1663a9059cbb338373ffffffffffffffffffffffffffffffffffffffff166370a08231306040518263ffffffff1660e01b8152600401610a8b9190611b65565b602060405180830381865afa158015610aa8573d6000803e3d6000fd5b505050506040513d601f19601f82011682018060405250810190610acc91906122bf565b6040518363ffffffff1660e01b8152600401610ae99291906122ec565b6020604051808303816000875af1158015610b08573d6000803e3d6000fd5b505050506040513d601f19601f82011682018060405250810190610b2c9190612341565b610b6b576040517f08c379a0000000000000000000000000000000000000000000000000000000008152600401610b62906123ba565b60405180910390fd5b50565b7f000000000000000000000000000000000000000000000000000000000000000081565b600080829050600060028251610ba89190612409565b14610bb257600080fd5b6000602067ffffffffffffffff811115610bcf57610bce611c60565b5b6040519080825280601f01601f191660200182016040528015610c015781602001600182028036833780820191505090505b50905060005b6020811015610cf257610c51836001836002610c23919061243a565b610c2d919061247c565b81518110610c3e57610c3d6124b0565b5b602001015160f81c60f81b60f81c610411565b6010610c8885846002610c64919061243a565b81518110610c7557610c746124b0565b5b602001015160f81c60f81b60f81c610411565b610c9291906124df565b610c9c91906120ac565b60f81b828281518110610cb257610cb16124b0565b5b60200101907effffffffffffffffffffffffffffffffffffffffffffffffffffffffffffff1916908160001a90535080610ceb9061251c565b9050610c07565b50602081015192505050919050565b600a5481565b600080868686604051602001610d1f939291906125cd565b604051602081830303815290604052805190602001209050610d85848480806020026020016040519081016040528093929190818152602001838360200280828437600081840152601f19601f82011690508083019250505050505050600a548361101d565b91505095945050505050565b610d99610eaf565b600073ffffffffffffffffffffffffffffffffffffffff168173ffffffffffffffffffffffffffffffffffffffff1603610e08576040517f08c379a0000000000000000000000000000000000000000000000000000000008152600401610dff9061267c565b60405180910390fd5b610e1181610f2d565b50565b610e1c611870565b610e24611870565b610e3b85858584611034909392919063ffffffff16565b9150509392505050565b610e5c8284608001516110e490919063ffffffff16565b610e738184608001516110e490919063ffffffff16565b505050565b6000610ea7600360009054906101000a900473ffffffffffffffffffffffffffffffffffffffff168484611109565b905092915050565b610eb76111d5565b73ffffffffffffffffffffffffffffffffffffffff16610ed56109f7565b73ffffffffffffffffffffffffffffffffffffffff1614610f2b576040517f08c379a0000000000000000000000000000000000000000000000000000000008152600401610f22906126e8565b60405180910390fd5b565b6000600660009054906101000a900473ffffffffffffffffffffffffffffffffffffffff16905081600660006101000a81548173ffffffffffffffffffffffffffffffffffffffff021916908373ffffffffffffffffffffffffffffffffffffffff1602179055508173ffffffffffffffffffffffffffffffffffffffff168173ffffffffffffffffffffffffffffffffffffffff167f8be0079c531659141344cd1fd0a4f28419497f9722a3daafe3b4186f6b6457e060405160405180910390a35050565b6000600260009054906101000a900473ffffffffffffffffffffffffffffffffffffffff16905090565b60008261102a85846111dd565b1490509392505050565b61103c611870565b61104c8560800151610100611233565b508385600001818152505082856020019073ffffffffffffffffffffffffffffffffffffffff16908173ffffffffffffffffffffffffffffffffffffffff16815250508185604001907bffffffffffffffffffffffffffffffffffffffffffffffffffffffff191690817bffffffffffffffffffffffffffffffffffffffffffffffffffffffff191681525050849050949350505050565b6110f1826003835161129d565b611104818361142290919063ffffffff16565b505050565b600080600454905060018161111e919061247c565b6004819055506000634042994660e01b60008087600001513089604001518760018c608001516000015160405160240161115f989796959493929190612743565b604051602081830303815290604052907bffffffffffffffffffffffffffffffffffffffffffffffffffffffff19166020820180517bffffffffffffffffffffffffffffffffffffffffffffffffffffffff838183161783525050505090506111ca86838684611444565b925050509392505050565b600033905090565b60008082905060005b84518110156112285761121382868381518110611206576112056124b0565b5b60200260200101516115d9565b915080806112209061251c565b9150506111e6565b508091505092915050565b61123b6118dd565b600060208361124a9190612409565b146112765760208261125c9190612409565b60206112689190612276565b82611273919061247c565b91505b81836020018181525050604051808452600081528281016020016040525082905092915050565b60178167ffffffffffffffff16116112d4576112ce8160058460ff16901b60ff16178461160490919063ffffffff16565b5061141d565b60ff8167ffffffffffffffff161161132a57611303601860058460ff16901b178461160490919063ffffffff16565b506113248167ffffffffffffffff166001856116249092919063ffffffff16565b5061141c565b61ffff8167ffffffffffffffff16116113815761135a601960058460ff16901b178461160490919063ffffffff16565b5061137b8167ffffffffffffffff166002856116249092919063ffffffff16565b5061141b565b63ffffffff8167ffffffffffffffff16116113da576113b3601a60058460ff16901b178461160490919063ffffffff16565b506113d48167ffffffffffffffff166004856116249092919063ffffffff16565b5061141a565b6113f7601b60058460ff16901b178461160490919063ffffffff16565b506114188167ffffffffffffffff166008856116249092919063ffffffff16565b505b5b5b5b505050565b61142a6118dd565b61143c83846000015151848551611646565b905092915050565b6000308460405160200161145992919061282f565b604051602081830303815290604052805190602001209050846005600083815260200190815260200160002060006101000a81548173ffffffffffffffffffffffffffffffffffffffff021916908373ffffffffffffffffffffffffffffffffffffffff160217905550807fb5e6e01e79f91267dc17b4e6314d5d4d03593d2ceee0fbb452b750bd70ea5af960405160405180910390a2600260009054906101000a900473ffffffffffffffffffffffffffffffffffffffff1673ffffffffffffffffffffffffffffffffffffffff16634000aea08685856040518463ffffffff1660e01b815260040161154f9392919061285b565b6020604051808303816000875af115801561156e573d6000803e3d6000fd5b505050506040513d601f19601f820116820180604052508101906115929190612341565b6115d1576040517f08c379a00000000000000000000000000000000000000000000000000000000081526004016115c89061290b565b60405180910390fd5b949350505050565b60008183106115f1576115ec8284611735565b6115fc565b6115fb8383611735565b5b905092915050565b61160c6118dd565b61161c838460000151518461174c565b905092915050565b61162c6118dd565b61163d8485600001515185856117a2565b90509392505050565b61164e6118dd565b825182111561165c57600080fd5b8460200151828561166d919061247c565b11156116a2576116a18560026116928860200151888761168d919061247c565b611830565b61169c919061243a565b61184c565b5b6000808651805187602083010193508088870111156116c15787860182525b60208701925050505b6020841061170857805182526020826116e3919061247c565b91506020816116f2919061247c565b90506020846117019190612276565b93506116ca565b60006001856020036101000a03905080198251168184511681811785525050508692505050949350505050565b600082600052816020526040600020905092915050565b6117546118dd565b8360200151831061177a576117798460028660200151611774919061243a565b61184c565b5b83518051602085830101848153818603611795576001820183525b5050508390509392505050565b6117aa6118dd565b846020015184836117bb919061247c565b11156117e3576117e285600286856117d3919061247c565b6117dd919061243a565b61184c565b5b60006001836101006117f59190612a5e565b6117ff9190612276565b905085518386820101858319825116178152815185880111156118225784870182525b505085915050949350505050565b60008183111561184257829050611846565b8190505b92915050565b60008260000151905061185f8383611233565b5061186a8382611422565b50505050565b6040518060a0016040528060008019168152602001600073ffffffffffffffffffffffffffffffffffffffff16815260200160007bffffffffffffffffffffffffffffffffffffffffffffffffffffffff19168152602001600081526020016118d76118dd565b81525090565b604051806040016040528060608152602001600081525090565b6000604051905090565b600080fd5b600080fd5b6000819050919050565b61191e8161190b565b811461192957600080fd5b50565b60008135905061193b81611915565b92915050565b6000806040838503121561195857611957611901565b5b60006119668582860161192c565b92505060206119778582860161192c565b9150509250929050565b600060ff82169050919050565b61199781611981565b81146119a257600080fd5b50565b6000813590506119b48161198e565b92915050565b6000602082840312156119d0576119cf611901565b5b60006119de848285016119a5565b91505092915050565b6119f081611981565b82525050565b6000602082019050611a0b60008301846119e7565b92915050565b6000819050919050565b611a2481611a11565b82525050565b6000602082019050611a3f6000830184611a1b565b92915050565b600080fd5b600080fd5b600080fd5b60008083601f840112611a6a57611a69611a45565b5b8235905067ffffffffffffffff811115611a8757611a86611a4a565b5b602083019150836001820283011115611aa357611aa2611a4f565b5b9250929050565b60008060208385031215611ac157611ac0611901565b5b600083013567ffffffffffffffff811115611adf57611ade611906565b5b611aeb85828601611a54565b92509250509250929050565b600060208284031215611b0d57611b0c611901565b5b6000611b1b8482850161192c565b91505092915050565b600073ffffffffffffffffffffffffffffffffffffffff82169050919050565b6000611b4f82611b24565b9050919050565b611b5f81611b44565b82525050565b6000602082019050611b7a6000830184611b56565b92915050565b60008115159050919050565b611b9581611b80565b82525050565b600081519050919050565b600082825260208201905092915050565b60005b83811015611bd5578082015181840152602081019050611bba565b60008484015250505050565b6000601f19601f8301169050919050565b6000611bfd82611b9b565b611c078185611ba6565b9350611c17818560208601611bb7565b611c2081611be1565b840191505092915050565b6000604082019050611c406000830185611b8c565b8181036020830152611c528184611bf2565b90509392505050565b600080fd5b7f4e487b7100000000000000000000000000000000000000000000000000000000600052604160045260246000fd5b611c9882611be1565b810181811067ffffffffffffffff82111715611cb757611cb6611c60565b5b80604052505050565b6000611cca6118f7565b9050611cd68282611c8f565b919050565b600067ffffffffffffffff821115611cf657611cf5611c60565b5b611cff82611be1565b9050602081019050919050565b82818337600083830152505050565b6000611d2e611d2984611cdb565b611cc0565b905082815260208101848484011115611d4a57611d49611c5b565b5b611d55848285611d0c565b509392505050565b600082601f830112611d7257611d71611a45565b5b8135611d82848260208601611d1b565b91505092915050565b600060208284031215611da157611da0611901565b5b600082013567ffffffffffffffff811115611dbf57611dbe611906565b5b611dcb84828501611d5d565b91505092915050565b611ddd8161190b565b82525050565b6000602082019050611df86000830184611dd4565b92915050565b611e0781611b44565b8114611e1257600080fd5b50565b600081359050611e2481611dfe565b92915050565b611e3381611a11565b8114611e3e57600080fd5b50565b600081359050611e5081611e2a565b92915050565b60008083601f840112611e6c57611e6b611a45565b5b8235905067ffffffffffffffff811115611e8957611e88611a4a565b5b602083019150836020820283011115611ea557611ea4611a4f565b5b9250929050565b600080600080600060808688031215611ec857611ec7611901565b5b6000611ed688828901611e15565b9550506020611ee788828901611e41565b9450506040611ef888828901611e41565b935050606086013567ffffffffffffffff811115611f1957611f18611906565b5b611f2588828901611e56565b92509250509295509295909350565b6000602082019050611f496000830184611b8c565b92915050565b600060208284031215611f6557611f64611901565b5b6000611f7384828501611e15565b91505092915050565b600082825260208201905092915050565b7f536f75726365206d75737420626520746865206f7261636c65206f662074686560008201527f2072657175657374000000000000000000000000000000000000000000000000602082015250565b6000611fe9602883611f7c565b9150611ff482611f8d565b604082019050919050565b6000602082019050818103600083015261201881611fdc565b9050919050565b60006040820190506120346000830185611a1b565b6120416020830184611dd4565b9392505050565b7f4e487b7100000000000000000000000000000000000000000000000000000000600052601160045260246000fd5b600061208282611981565b915061208d83611981565b9250828203905060ff8111156120a6576120a5612048565b5b92915050565b60006120b782611981565b91506120c283611981565b9250828201905060ff8111156120db576120da612048565b5b92915050565b7f6661696c00000000000000000000000000000000000000000000000000000000600082015250565b6000612117600483611f7c565b9150612122826120e1565b602082019050919050565b600060208201905081810360008301526121468161210a565b9050919050565b7f4e487b7100000000000000000000000000000000000000000000000000000000600052602260045260246000fd5b6000600282049050600182168061219457607f821691505b6020821081036121a7576121a661214d565b5b50919050565b60008190508160005260206000209050919050565b600081546121cf8161217c565b6121d98186611f7c565b945060018216600081146121f4576001811461220a5761223d565b60ff19831686528115156020028601935061223d565b612213856121ad565b60005b8381101561223557815481890152600182019150602081019050612216565b808801955050505b50505092915050565b6000604082019050818103600083015261226081856121c2565b905061226f6020830184611a1b565b9392505050565b600061228182611a11565b915061228c83611a11565b92508282039050818111156122a4576122a3612048565b5b92915050565b6000815190506122b981611e2a565b92915050565b6000602082840312156122d5576122d4611901565b5b60006122e3848285016122aa565b91505092915050565b60006040820190506123016000830185611b56565b61230e6020830184611a1b565b9392505050565b61231e81611b80565b811461232957600080fd5b50565b60008151905061233b81612315565b92915050565b60006020828403121561235757612356611901565b5b60006123658482850161232c565b91505092915050565b7f556e61626c6520746f207472616e736665720000000000000000000000000000600082015250565b60006123a4601283611f7c565b91506123af8261236e565b602082019050919050565b600060208201905081810360008301526123d381612397565b9050919050565b7f4e487b7100000000000000000000000000000000000000000000000000000000600052601260045260246000fd5b600061241482611a11565b915061241f83611a11565b92508261242f5761242e6123da565b5b828206905092915050565b600061244582611a11565b915061245083611a11565b925082820261245e81611a11565b9150828204841483151761247557612474612048565b5b5092915050565b600061248782611a11565b915061249283611a11565b92508282019050808211156124aa576124a9612048565b5b92915050565b7f4e487b7100000000000000000000000000000000000000000000000000000000600052603260045260246000fd5b60006124ea82611981565b91506124f583611981565b925082820261250381611981565b915080821461251557612514612048565b5b5092915050565b600061252782611a11565b91507fffffffffffffffffffffffffffffffffffffffffffffffffffffffffffffffff820361255957612558612048565b5b600182019050919050565b60008160601b9050919050565b600061257c82612564565b9050919050565b600061258e82612571565b9050919050565b6125a66125a182611b44565b612583565b82525050565b6000819050919050565b6125c76125c282611a11565b6125ac565b82525050565b60006125d98286612595565b6014820191506125e982856125b6565b6020820191506125f982846125b6565b602082019150819050949350505050565b7f4f776e61626c653a206e6577206f776e657220697320746865207a65726f206160008201527f6464726573730000000000000000000000000000000000000000000000000000602082015250565b6000612666602683611f7c565b91506126718261260a565b604082019050919050565b6000602082019050818103600083015261269581612659565b9050919050565b7f4f776e61626c653a2063616c6c6572206973206e6f7420746865206f776e6572600082015250565b60006126d2602083611f7c565b91506126dd8261269c565b602082019050919050565b60006020820190508181036000830152612701816126c5565b9050919050565b60007fffffffff0000000000000000000000000000000000000000000000000000000082169050919050565b61273d81612708565b82525050565b600061010082019050612759600083018b611b56565b612766602083018a611a1b565b6127736040830189611dd4565b6127806060830188611b56565b61278d6080830187612734565b61279a60a0830186611a1b565b6127a760c0830185611a1b565b81810360e08301526127b98184611bf2565b90509998505050505050505050565b6000819050919050565b60006127ed6127e86127e384611b24565b6127c8565b611b24565b9050919050565b60006127ff826127d2565b9050919050565b6000612811826127f4565b9050919050565b61282961282482612806565b612583565b82525050565b600061283b8285612818565b60148201915061284b82846125b6565b6020820191508190509392505050565b60006060820190506128706000830186611b56565b61287d6020830185611a1b565b818103604083015261288f8184611bf2565b9050949350505050565b7f756e61626c6520746f207472616e73666572416e6443616c6c20746f206f726160008201527f636c650000000000000000000000000000000000000000000000000000000000602082015250565b60006128f5602383611f7c565b915061290082612899565b604082019050919050565b60006020820190508181036000830152612924816128e8565b9050919050565b60008160011c9050919050565b6000808291508390505b60018511156129825780860481111561295e5761295d612048565b5b600185161561296d5780820291505b808102905061297b8561292b565b9450612942565b94509492505050565b60008261299b5760019050612a57565b816129a95760009050612a57565b81600181146129bf57600281146129c9576129f8565b6001915050612a57565b60ff8411156129db576129da612048565b5b8360020a9150848211156129f2576129f1612048565b5b50612a57565b5060208310610133831016604e8410600b8410161715612a2d5782820a905083811115612a2857612a27612048565b5b612a57565b612a3a8484846001612938565b92509050818404811115612a5157612a50612048565b5b81810290505b9392505050565b6000612a6982611a11565b9150612a7483611a11565b9250612aa17fffffffffffffffffffffffffffffffffffffffffffffffffffffffffffffffff848461298b565b90509291505056fea264697066735822122012c23bb6698d82cac55ad7ff0a9575afcac853f8ad07a28686cf120b7999d27e64736f6c6343000811003368747470733a2f2f61702d6a6f762e636f6c79736575732e6465762f636861696e2f6765742d726f6f74",
  "devdoc": {
    "kind": "dev",
    "methods": {
      "owner()": {
        "details": "Returns the address of the current owner."
      },
      "renounceOwnership()": {
        "details": "Leaves the contract without owner. It will not be possible to call `onlyOwner` functions anymore. Can only be called by the current owner. NOTE: Renouncing ownership will leave the contract without an owner, thereby removing any functionality that is only available to the owner."
      },
      "transferOwnership(address)": {
        "details": "Transfers ownership of the contract to a new account (`newOwner`). Can only be called by the current owner."
      }
    },
    "version": 1
  },
  "userdoc": {
    "kind": "user",
    "methods": {},
    "version": 1
  },
  "storageLayout": {
    "storage": [
      {
        "astId": 358,
        "contract": "contracts/AssetValidator.sol:AssetValidator",
        "label": "s_ens",
        "offset": 0,
        "slot": "0",
        "type": "t_contract(ENSInterface)1214"
      },
      {
        "astId": 360,
        "contract": "contracts/AssetValidator.sol:AssetValidator",
        "label": "s_ensNode",
        "offset": 0,
        "slot": "1",
        "type": "t_bytes32"
      },
      {
        "astId": 363,
        "contract": "contracts/AssetValidator.sol:AssetValidator",
        "label": "s_link",
        "offset": 0,
        "slot": "2",
        "type": "t_contract(LinkTokenInterface)1309"
      },
      {
        "astId": 366,
        "contract": "contracts/AssetValidator.sol:AssetValidator",
        "label": "s_oracle",
        "offset": 0,
        "slot": "3",
        "type": "t_contract(OperatorInterface)1389"
      },
      {
        "astId": 369,
        "contract": "contracts/AssetValidator.sol:AssetValidator",
        "label": "s_requestCount",
        "offset": 0,
        "slot": "4",
        "type": "t_uint256"
      },
      {
        "astId": 373,
        "contract": "contracts/AssetValidator.sol:AssetValidator",
        "label": "s_pendingRequests",
        "offset": 0,
        "slot": "5",
        "type": "t_mapping(t_bytes32,t_address)"
      },
      {
        "astId": 2439,
        "contract": "contracts/AssetValidator.sol:AssetValidator",
        "label": "_owner",
        "offset": 0,
        "slot": "6",
        "type": "t_address"
      },
      {
        "astId": 5739,
        "contract": "contracts/AssetValidator.sol:AssetValidator",
        "label": "_url",
        "offset": 0,
        "slot": "7",
        "type": "t_string_storage"
      },
      {
        "astId": 5741,
        "contract": "contracts/AssetValidator.sol:AssetValidator",
        "label": "fee",
        "offset": 0,
        "slot": "8",
        "type": "t_uint256"
      },
      {
        "astId": 5743,
        "contract": "contracts/AssetValidator.sol:AssetValidator",
        "label": "jobId",
        "offset": 0,
        "slot": "9",
        "type": "t_bytes32"
      },
      {
        "astId": 5745,
        "contract": "contracts/AssetValidator.sol:AssetValidator",
        "label": "_root",
        "offset": 0,
        "slot": "10",
        "type": "t_bytes32"
      },
      {
        "astId": 5749,
        "contract": "contracts/AssetValidator.sol:AssetValidator",
        "label": "requestParams",
        "offset": 0,
        "slot": "11",
        "type": "t_mapping(t_bytes32,t_address)"
      },
      {
        "astId": 5753,
        "contract": "contracts/AssetValidator.sol:AssetValidator",
        "label": "lastTimeStamp",
        "offset": 0,
        "slot": "12",
        "type": "t_uint256"
      }
    ],
    "types": {
      "t_address": {
        "encoding": "inplace",
        "label": "address",
        "numberOfBytes": "20"
      },
      "t_bytes32": {
        "encoding": "inplace",
        "label": "bytes32",
        "numberOfBytes": "32"
      },
      "t_contract(ENSInterface)1214": {
        "encoding": "inplace",
        "label": "contract ENSInterface",
        "numberOfBytes": "20"
      },
      "t_contract(LinkTokenInterface)1309": {
        "encoding": "inplace",
        "label": "contract LinkTokenInterface",
        "numberOfBytes": "20"
      },
      "t_contract(OperatorInterface)1389": {
        "encoding": "inplace",
        "label": "contract OperatorInterface",
        "numberOfBytes": "20"
      },
      "t_mapping(t_bytes32,t_address)": {
        "encoding": "mapping",
        "key": "t_bytes32",
        "label": "mapping(bytes32 => address)",
        "numberOfBytes": "32",
        "value": "t_address"
      },
      "t_string_storage": {
        "encoding": "bytes",
        "label": "string",
        "numberOfBytes": "32"
      },
      "t_uint256": {
        "encoding": "inplace",
        "label": "uint256",
        "numberOfBytes": "32"
      }
    }
  }
}