{
  "address": "0x3A9C730539737C0E9657ddF18c2745fAEa81654a",
  "abi": [
    {
      "inputs": [
        {
          "internalType": "uint256",
          "name": "interval_",
          "type": "uint256"
        }
      ],
      "stateMutability": "nonpayable",
      "type": "constructor"
    },
    {
      "anonymous": false,
      "inputs": [
        {
          "indexed": true,
          "internalType": "bytes32",
          "name": "id",
          "type": "bytes32"
        }
      ],
      "name": "ChainlinkCancelled",
      "type": "event"
    },
    {
      "anonymous": false,
      "inputs": [
        {
          "indexed": true,
          "internalType": "bytes32",
          "name": "id",
          "type": "bytes32"
        }
      ],
      "name": "ChainlinkFulfilled",
      "type": "event"
    },
    {
      "anonymous": false,
      "inputs": [
        {
          "indexed": true,
          "internalType": "bytes32",
          "name": "id",
          "type": "bytes32"
        }
      ],
      "name": "ChainlinkRequested",
      "type": "event"
    },
    {
      "anonymous": false,
      "inputs": [
        {
          "indexed": true,
          "internalType": "address",
          "name": "previousOwner",
          "type": "address"
        },
        {
          "indexed": true,
          "internalType": "address",
          "name": "newOwner",
          "type": "address"
        }
      ],
      "name": "OwnershipTransferred",
      "type": "event"
    },
    {
      "anonymous": false,
      "inputs": [
        {
          "indexed": false,
          "internalType": "uint256",
          "name": "time",
          "type": "uint256"
        },
        {
          "indexed": false,
          "internalType": "string",
          "name": "root",
          "type": "string"
        }
      ],
      "name": "RequestRes",
      "type": "event"
    },
    {
      "anonymous": false,
      "inputs": [
        {
          "indexed": false,
          "internalType": "string",
          "name": "url",
          "type": "string"
        },
        {
          "indexed": false,
          "internalType": "uint256",
          "name": "time",
          "type": "uint256"
        }
      ],
      "name": "RequestUrl",
      "type": "event"
    },
    {
      "inputs": [
        {
          "internalType": "bytes",
          "name": "",
          "type": "bytes"
        }
      ],
      "name": "checkUpkeep",
      "outputs": [
        {
          "internalType": "bool",
          "name": "upkeepNeeded",
          "type": "bool"
        },
        {
          "internalType": "bytes",
          "name": "",
          "type": "bytes"
        }
      ],
      "stateMutability": "view",
      "type": "function"
    },
    {
      "inputs": [
        {
          "internalType": "bytes32",
          "name": "_requestId",
          "type": "bytes32"
        },
        {
          "internalType": "string",
          "name": "_val",
          "type": "string"
        }
      ],
      "name": "fulfill",
      "outputs": [],
      "stateMutability": "nonpayable",
      "type": "function"
    },
    {
      "inputs": [],
      "name": "interval",
      "outputs": [
        {
          "internalType": "uint256",
          "name": "",
          "type": "uint256"
        }
      ],
      "stateMutability": "view",
      "type": "function"
    },
    {
      "inputs": [],
      "name": "lastTimeStamp",
      "outputs": [
        {
          "internalType": "uint256",
          "name": "",
          "type": "uint256"
        }
      ],
      "stateMutability": "view",
      "type": "function"
    },
    {
      "inputs": [],
      "name": "owner",
      "outputs": [
        {
          "internalType": "address",
          "name": "",
          "type": "address"
        }
      ],
      "stateMutability": "view",
      "type": "function"
    },
    {
      "inputs": [
        {
          "internalType": "bytes",
          "name": "",
          "type": "bytes"
        }
      ],
      "name": "performUpkeep",
      "outputs": [],
      "stateMutability": "nonpayable",
      "type": "function"
    },
    {
      "inputs": [],
      "name": "renounceOwnership",
      "outputs": [],
      "stateMutability": "nonpayable",
      "type": "function"
    },
    {
      "inputs": [
        {
          "internalType": "bytes32",
          "name": "",
          "type": "bytes32"
        }
      ],
      "name": "requestParams",
      "outputs": [
        {
          "internalType": "address",
          "name": "",
          "type": "address"
        }
      ],
      "stateMutability": "view",
      "type": "function"
    },
    {
      "inputs": [],
      "name": "root",
      "outputs": [
        {
          "internalType": "string",
          "name": "",
          "type": "string"
        }
      ],
      "stateMutability": "view",
      "type": "function"
    },
    {
      "inputs": [
        {
          "internalType": "string",
          "name": "source",
          "type": "string"
        }
      ],
      "name": "stringToBytes32",
      "outputs": [
        {
          "internalType": "bytes32",
          "name": "result",
          "type": "bytes32"
        }
      ],
      "stateMutability": "pure",
      "type": "function"
    },
    {
      "inputs": [
        {
          "internalType": "address",
          "name": "newOwner",
          "type": "address"
        }
      ],
      "name": "transferOwnership",
      "outputs": [],
      "stateMutability": "nonpayable",
      "type": "function"
    },
    {
      "inputs": [
        {
          "internalType": "uint256",
          "name": "coinAmount",
          "type": "uint256"
        },
        {
          "internalType": "uint256",
          "name": "boxAmount",
          "type": "uint256"
        },
        {
          "internalType": "bytes32[]",
          "name": "proof",
          "type": "bytes32[]"
        }
      ],
      "name": "verify",
      "outputs": [
        {
          "internalType": "bool",
          "name": "valid",
          "type": "bool"
        }
      ],
      "stateMutability": "view",
      "type": "function"
    },
    {
      "inputs": [],
      "name": "withdrawLink",
      "outputs": [],
      "stateMutability": "nonpayable",
      "type": "function"
    }
  ],
  "transactionHash": "0x055a2b82f78132bffac7d27c9c5190725b12a81578a74f435b626d03b409a859",
  "args": [
    60
  ],
  "numDeployments": 3,
  "solcInputHash": "7b5cd31c4d3e009dd73ac8ec9a15f22a",
  "bytecode": "0x60a060405260016004556040518060600160405280602a815260200162003134602a91396007908162000033919062000502565b503480156200004157600080fd5b506040516200315e3803806200315e83398181016040528101906200006791906200061f565b620000876200007b6200013260201b60201c565b6200013a60201b60201c565b8060808181525050620000b473326c977e6efc84e512bb9c30f76e30c160ed06fb6200020060201b60201c565b620000d97340193c8518bb267228fc409a613bdbd8ec5a97b36200024460201b60201c565b7f3764383061363338366566353433613361626235323831376636373037653362600981905550600a670de0b6b3a7640000600162000119919062000680565b620001259190620006fa565b6008819055505062000732565b600033905090565b6000600660009054906101000a900473ffffffffffffffffffffffffffffffffffffffff16905081600660006101000a81548173ffffffffffffffffffffffffffffffffffffffff021916908373ffffffffffffffffffffffffffffffffffffffff1602179055508173ffffffffffffffffffffffffffffffffffffffff168173ffffffffffffffffffffffffffffffffffffffff167f8be0079c531659141344cd1fd0a4f28419497f9722a3daafe3b4186f6b6457e060405160405180910390a35050565b80600260006101000a81548173ffffffffffffffffffffffffffffffffffffffff021916908373ffffffffffffffffffffffffffffffffffffffff16021790555050565b80600360006101000a81548173ffffffffffffffffffffffffffffffffffffffff021916908373ffffffffffffffffffffffffffffffffffffffff16021790555050565b600081519050919050565b7f4e487b7100000000000000000000000000000000000000000000000000000000600052604160045260246000fd5b7f4e487b7100000000000000000000000000000000000000000000000000000000600052602260045260246000fd5b600060028204905060018216806200030a57607f821691505b60208210810362000320576200031f620002c2565b5b50919050565b60008190508160005260206000209050919050565b60006020601f8301049050919050565b600082821b905092915050565b6000600883026200038a7fffffffffffffffffffffffffffffffffffffffffffffffffffffffffffffffff826200034b565b6200039686836200034b565b95508019841693508086168417925050509392505050565b6000819050919050565b6000819050919050565b6000620003e3620003dd620003d784620003ae565b620003b8565b620003ae565b9050919050565b6000819050919050565b620003ff83620003c2565b620004176200040e82620003ea565b84845462000358565b825550505050565b600090565b6200042e6200041f565b6200043b818484620003f4565b505050565b5b8181101562000463576200045760008262000424565b60018101905062000441565b5050565b601f821115620004b2576200047c8162000326565b62000487846200033b565b8101602085101562000497578190505b620004af620004a6856200033b565b83018262000440565b50505b505050565b600082821c905092915050565b6000620004d760001984600802620004b7565b1980831691505092915050565b6000620004f28383620004c4565b9150826002028217905092915050565b6200050d8262000288565b67ffffffffffffffff81111562000529576200052862000293565b5b620005358254620002f1565b6200054282828562000467565b600060209050601f8311600181146200057a576000841562000565578287015190505b620005718582620004e4565b865550620005e1565b601f1984166200058a8662000326565b60005b82811015620005b4578489015182556001820191506020850194506020810190506200058d565b86831015620005d45784890151620005d0601f891682620004c4565b8355505b6001600288020188555050505b505050505050565b600080fd5b620005f981620003ae565b81146200060557600080fd5b50565b6000815190506200061981620005ee565b92915050565b600060208284031215620006385762000637620005e9565b5b6000620006488482850162000608565b91505092915050565b7f4e487b7100000000000000000000000000000000000000000000000000000000600052601160045260246000fd5b60006200068d82620003ae565b91506200069a83620003ae565b9250828202620006aa81620003ae565b91508282048414831517620006c457620006c362000651565b5b5092915050565b7f4e487b7100000000000000000000000000000000000000000000000000000000600052601260045260246000fd5b60006200070782620003ae565b91506200071483620003ae565b925082620007275762000726620006cb565b5b828204905092915050565b6080516129df620007556000396000818161062501526107e901526129df6000f3fe608060405234801561001057600080fd5b50600436106100cf5760003560e01c80638da5cb5b1161008c578063cfb5192811610066578063cfb51928146101db578063d0f2ccf91461020b578063ebf0c7171461023b578063f2fde38b14610259576100cf565b80638da5cb5b146101955780638dc654a2146101b3578063947a36fb146101bd576100cf565b806337441996146100d45780633f3b3b27146100f05780634585e33b1461010e57806355ab79cb1461012a5780636e04ff0d1461015a578063715018a61461018b575b600080fd5b6100ee60048036038101906100e99190611809565b610275565b005b6100f86103de565b604051610105919061187e565b60405180910390f35b610128600480360381019061012391906118f9565b6103e4565b005b610144600480360381019061013f9190611946565b6105ec565b60405161015191906119b4565b60405180910390f35b610174600480360381019061016f91906118f9565b61061f565b604051610182929190611a69565b60405180910390f35b61019361065c565b005b61019d610670565b6040516101aa91906119b4565b60405180910390f35b6101bb61069a565b005b6101c56107e7565b6040516101d2919061187e565b60405180910390f35b6101f560048036038101906101f09190611a99565b61080b565b6040516102029190611af1565b60405180910390f35b61022560048036038101906102209190611b8e565b610834565b6040516102329190611c02565b60405180910390f35b6102436108bd565b6040516102509190611c72565b60405180910390f35b610273600480360381019061026e9190611cc0565b61094b565b005b816005600082815260200190815260200160002060009054906101000a900473ffffffffffffffffffffffffffffffffffffffff1673ffffffffffffffffffffffffffffffffffffffff163373ffffffffffffffffffffffffffffffffffffffff1614610317576040517f08c379a000000000000000000000000000000000000000000000000000000000815260040161030e90611d5f565b60405180910390fd5b6005600082815260200190815260200160002060006101000a81549073ffffffffffffffffffffffffffffffffffffffff0219169055807f7cc135e0cebb02c3480ae5d74d377283180a2601f8f644edf7987b009316c63a60405160405180910390a26103838261080b565b600a8190555081600b90816103989190611f8b565b5042600d819055507f632eedb2844743937930c951c8ee047350588e5421b0711eaae2b70cc6c589c142836040516103d192919061205d565b60405180910390a1505050565b600d5481565b60006103fa60095430633744199660e01b6109ce565b90506104d06040518060400160405280600381526020017f67657400000000000000000000000000000000000000000000000000000000008152506007805461044290611dae565b80601f016020809104026020016040519081016040528092919081815260200182805461046e90611dae565b80156104bb5780601f10610490576101008083540402835291602001916104bb565b820191906000526020600020905b81548152906001019060200180831161049e57829003601f168201915b5050505050836109ff9092919063ffffffff16565b61054f6040518060400160405280600481526020017f70617468000000000000000000000000000000000000000000000000000000008152506040518060400160405280600481526020017f726f6f7400000000000000000000000000000000000000000000000000000000815250836109ff9092919063ffffffff16565b60006001905061059f6040518060400160405280600581526020017f74696d65730000000000000000000000000000000000000000000000000000008152508284610a329092919063ffffffff16565b7fc9f16d20e33dc0075b30c422e02ce848affb09fe61ccd14f81b0df31e9759b706007426040516105d1929190612111565b60405180910390a16105e582600854610a65565b5050505050565b600c6020528060005260406000206000915054906101000a900473ffffffffffffffffffffffffffffffffffffffff1681565b600060607f0000000000000000000000000000000000000000000000000000000000000000600d54426106529190612170565b1191509250929050565b610664610a9c565b61066e6000610b1a565b565b6000600660009054906101000a900473ffffffffffffffffffffffffffffffffffffffff16905090565b6106a2610a9c565b60006106ac610be0565b90508073ffffffffffffffffffffffffffffffffffffffff1663a9059cbb338373ffffffffffffffffffffffffffffffffffffffff166370a08231306040518263ffffffff1660e01b815260040161070491906119b4565b602060405180830381865afa158015610721573d6000803e3d6000fd5b505050506040513d601f19601f8201168201806040525081019061074591906121b9565b6040518363ffffffff1660e01b81526004016107629291906121e6565b6020604051808303816000875af1158015610781573d6000803e3d6000fd5b505050506040513d601f19601f820116820180604052508101906107a5919061223b565b6107e4576040517f08c379a00000000000000000000000000000000000000000000000000000000081526004016107db906122b4565b60405180910390fd5b50565b7f000000000000000000000000000000000000000000000000000000000000000081565b6000808290506000815103610826576000801b91505061082f565b60208301519150505b919050565b60008033868660405160200161084c9392919061233d565b6040516020818303038152906040528051906020012090506108b2848480806020026020016040519081016040528093929190818152602001838360200280828437600081840152601f19601f82011690508083019250505050505050600a5483610c0a565b915050949350505050565b600b80546108ca90611dae565b80601f01602080910402602001604051908101604052809291908181526020018280546108f690611dae565b80156109435780601f1061091857610100808354040283529160200191610943565b820191906000526020600020905b81548152906001019060200180831161092657829003601f168201915b505050505081565b610953610a9c565b600073ffffffffffffffffffffffffffffffffffffffff168173ffffffffffffffffffffffffffffffffffffffff16036109c2576040517f08c379a00000000000000000000000000000000000000000000000000000000081526004016109b9906123ec565b60405180910390fd5b6109cb81610b1a565b50565b6109d66115f2565b6109de6115f2565b6109f585858584610c21909392919063ffffffff16565b9150509392505050565b610a16828460800151610cd190919063ffffffff16565b610a2d818460800151610cd190919063ffffffff16565b505050565b610a49828460800151610cd190919063ffffffff16565b610a60818460800151610cf690919063ffffffff16565b505050565b6000610a94600360009054906101000a900473ffffffffffffffffffffffffffffffffffffffff168484610da3565b905092915050565b610aa4610e6f565b73ffffffffffffffffffffffffffffffffffffffff16610ac2610670565b73ffffffffffffffffffffffffffffffffffffffff1614610b18576040517f08c379a0000000000000000000000000000000000000000000000000000000008152600401610b0f90612458565b60405180910390fd5b565b6000600660009054906101000a900473ffffffffffffffffffffffffffffffffffffffff16905081600660006101000a81548173ffffffffffffffffffffffffffffffffffffffff021916908373ffffffffffffffffffffffffffffffffffffffff1602179055508173ffffffffffffffffffffffffffffffffffffffff168173ffffffffffffffffffffffffffffffffffffffff167f8be0079c531659141344cd1fd0a4f28419497f9722a3daafe3b4186f6b6457e060405160405180910390a35050565b6000600260009054906101000a900473ffffffffffffffffffffffffffffffffffffffff16905090565b600082610c178584610e77565b1490509392505050565b610c296115f2565b610c398560800151610100610ecd565b508385600001818152505082856020019073ffffffffffffffffffffffffffffffffffffffff16908173ffffffffffffffffffffffffffffffffffffffff16815250508185604001907bffffffffffffffffffffffffffffffffffffffffffffffffffffffff191690817bffffffffffffffffffffffffffffffffffffffffffffffffffffffff191681525050849050949350505050565b610cde8260038351610f37565b610cf181836110bc90919063ffffffff16565b505050565b7fffffffffffffffffffffffffffffffffffffffffffffffff0000000000000000811215610d2d57610d2882826110de565b610d9f565b67ffffffffffffffff811315610d4c57610d478282611155565b610d9e565b60008112610d6557610d6082600083610f37565b610d9d565b610d9c826001837fffffffffffffffffffffffffffffffffffffffffffffffffffffffffffffffff610d979190612482565b610f37565b5b5b5b5050565b6000806004549050600181610db891906124c5565b6004819055506000634042994660e01b60008087600001513089604001518760018c6080015160000151604051602401610df9989796959493929190612534565b604051602081830303815290604052907bffffffffffffffffffffffffffffffffffffffffffffffffffffffff19166020820180517bffffffffffffffffffffffffffffffffffffffffffffffffffffffff83818316178352505050509050610e64868386846111a1565b925050509392505050565b600033905090565b60008082905060005b8451811015610ec257610ead82868381518110610ea057610e9f6125b9565b5b6020026020010151611336565b91508080610eba906125e8565b915050610e80565b508091505092915050565b610ed561165f565b6000602083610ee4919061265f565b14610f1057602082610ef6919061265f565b6020610f029190612170565b82610f0d91906124c5565b91505b81836020018181525050604051808452600081528281016020016040525082905092915050565b60178167ffffffffffffffff1611610f6e57610f688160058460ff16901b60ff16178461136190919063ffffffff16565b506110b7565b60ff8167ffffffffffffffff1611610fc457610f9d601860058460ff16901b178461136190919063ffffffff16565b50610fbe8167ffffffffffffffff166001856113819092919063ffffffff16565b506110b6565b61ffff8167ffffffffffffffff161161101b57610ff4601960058460ff16901b178461136190919063ffffffff16565b506110158167ffffffffffffffff166002856113819092919063ffffffff16565b506110b5565b63ffffffff8167ffffffffffffffff16116110745761104d601a60058460ff16901b178461136190919063ffffffff16565b5061106e8167ffffffffffffffff166004856113819092919063ffffffff16565b506110b4565b611091601b60058460ff16901b178461136190919063ffffffff16565b506110b28167ffffffffffffffff166008856113819092919063ffffffff16565b505b5b5b5b505050565b6110c461165f565b6110d6838460000151518485516113a3565b905092915050565b6110fc60036005600660ff16901b178361136190919063ffffffff16565b5061115182827fffffffffffffffffffffffffffffffffffffffffffffffffffffffffffffffff61112d9190612482565b60405160200161113d919061187e565b604051602081830303815290604052611492565b5050565b61117360026005600660ff16901b178361136190919063ffffffff16565b5061119d8282604051602001611189919061187e565b604051602081830303815290604052611492565b5050565b600030846040516020016111b69291906126ed565b604051602081830303815290604052805190602001209050846005600083815260200190815260200160002060006101000a81548173ffffffffffffffffffffffffffffffffffffffff021916908373ffffffffffffffffffffffffffffffffffffffff160217905550807fb5e6e01e79f91267dc17b4e6314d5d4d03593d2ceee0fbb452b750bd70ea5af960405160405180910390a2600260009054906101000a900473ffffffffffffffffffffffffffffffffffffffff1673ffffffffffffffffffffffffffffffffffffffff16634000aea08685856040518463ffffffff1660e01b81526004016112ac93929190612719565b6020604051808303816000875af11580156112cb573d6000803e3d6000fd5b505050506040513d601f19601f820116820180604052508101906112ef919061223b565b61132e576040517f08c379a0000000000000000000000000000000000000000000000000000000008152600401611325906127c9565b60405180910390fd5b949350505050565b600081831061134e5761134982846114b7565b611359565b61135883836114b7565b5b905092915050565b61136961165f565b61137983846000015151846114ce565b905092915050565b61138961165f565b61139a848560000151518585611524565b90509392505050565b6113ab61165f565b82518211156113b957600080fd5b846020015182856113ca91906124c5565b11156113ff576113fe8560026113ef886020015188876113ea91906124c5565b6115b2565b6113f991906127e9565b6115ce565b5b60008086518051876020830101935080888701111561141e5787860182525b60208701925050505b60208410611465578051825260208261144091906124c5565b915060208161144f91906124c5565b905060208461145e9190612170565b9350611427565b60006001856020036101000a03905080198251168184511681811785525050508692505050949350505050565b61149f8260028351610f37565b6114b281836110bc90919063ffffffff16565b505050565b600082600052816020526040600020905092915050565b6114d661165f565b836020015183106114fc576114fb84600286602001516114f691906127e9565b6115ce565b5b83518051602085830101848153818603611517576001820183525b5050508390509392505050565b61152c61165f565b8460200151848361153d91906124c5565b111561156557611564856002868561155591906124c5565b61155f91906127e9565b6115ce565b5b6000600183610100611577919061295e565b6115819190612170565b905085518386820101858319825116178152815185880111156115a45784870182525b505085915050949350505050565b6000818311156115c4578290506115c8565b8190505b92915050565b6000826000015190506115e18383610ecd565b506115ec83826110bc565b50505050565b6040518060a0016040528060008019168152602001600073ffffffffffffffffffffffffffffffffffffffff16815260200160007bffffffffffffffffffffffffffffffffffffffffffffffffffffffff191681526020016000815260200161165961165f565b81525090565b604051806040016040528060608152602001600081525090565b6000604051905090565b600080fd5b600080fd5b6000819050919050565b6116a08161168d565b81146116ab57600080fd5b50565b6000813590506116bd81611697565b92915050565b600080fd5b600080fd5b6000601f19601f8301169050919050565b7f4e487b7100000000000000000000000000000000000000000000000000000000600052604160045260246000fd5b611716826116cd565b810181811067ffffffffffffffff82111715611735576117346116de565b5b80604052505050565b6000611748611679565b9050611754828261170d565b919050565b600067ffffffffffffffff821115611774576117736116de565b5b61177d826116cd565b9050602081019050919050565b82818337600083830152505050565b60006117ac6117a784611759565b61173e565b9050828152602081018484840111156117c8576117c76116c8565b5b6117d384828561178a565b509392505050565b600082601f8301126117f0576117ef6116c3565b5b8135611800848260208601611799565b91505092915050565b600080604083850312156118205761181f611683565b5b600061182e858286016116ae565b925050602083013567ffffffffffffffff81111561184f5761184e611688565b5b61185b858286016117db565b9150509250929050565b6000819050919050565b61187881611865565b82525050565b6000602082019050611893600083018461186f565b92915050565b600080fd5b600080fd5b60008083601f8401126118b9576118b86116c3565b5b8235905067ffffffffffffffff8111156118d6576118d5611899565b5b6020830191508360018202830111156118f2576118f161189e565b5b9250929050565b600080602083850312156119105761190f611683565b5b600083013567ffffffffffffffff81111561192e5761192d611688565b5b61193a858286016118a3565b92509250509250929050565b60006020828403121561195c5761195b611683565b5b600061196a848285016116ae565b91505092915050565b600073ffffffffffffffffffffffffffffffffffffffff82169050919050565b600061199e82611973565b9050919050565b6119ae81611993565b82525050565b60006020820190506119c960008301846119a5565b92915050565b60008115159050919050565b6119e4816119cf565b82525050565b600081519050919050565b600082825260208201905092915050565b60005b83811015611a24578082015181840152602081019050611a09565b60008484015250505050565b6000611a3b826119ea565b611a4581856119f5565b9350611a55818560208601611a06565b611a5e816116cd565b840191505092915050565b6000604082019050611a7e60008301856119db565b8181036020830152611a908184611a30565b90509392505050565b600060208284031215611aaf57611aae611683565b5b600082013567ffffffffffffffff811115611acd57611acc611688565b5b611ad9848285016117db565b91505092915050565b611aeb8161168d565b82525050565b6000602082019050611b066000830184611ae2565b92915050565b611b1581611865565b8114611b2057600080fd5b50565b600081359050611b3281611b0c565b92915050565b60008083601f840112611b4e57611b4d6116c3565b5b8235905067ffffffffffffffff811115611b6b57611b6a611899565b5b602083019150836020820283011115611b8757611b8661189e565b5b9250929050565b60008060008060608587031215611ba857611ba7611683565b5b6000611bb687828801611b23565b9450506020611bc787828801611b23565b935050604085013567ffffffffffffffff811115611be857611be7611688565b5b611bf487828801611b38565b925092505092959194509250565b6000602082019050611c1760008301846119db565b92915050565b600081519050919050565b600082825260208201905092915050565b6000611c4482611c1d565b611c4e8185611c28565b9350611c5e818560208601611a06565b611c67816116cd565b840191505092915050565b60006020820190508181036000830152611c8c8184611c39565b905092915050565b611c9d81611993565b8114611ca857600080fd5b50565b600081359050611cba81611c94565b92915050565b600060208284031215611cd657611cd5611683565b5b6000611ce484828501611cab565b91505092915050565b7f536f75726365206d75737420626520746865206f7261636c65206f662074686560008201527f2072657175657374000000000000000000000000000000000000000000000000602082015250565b6000611d49602883611c28565b9150611d5482611ced565b604082019050919050565b60006020820190508181036000830152611d7881611d3c565b9050919050565b7f4e487b7100000000000000000000000000000000000000000000000000000000600052602260045260246000fd5b60006002820490506001821680611dc657607f821691505b602082108103611dd957611dd8611d7f565b5b50919050565b60008190508160005260206000209050919050565b60006020601f8301049050919050565b600082821b905092915050565b600060088302611e417fffffffffffffffffffffffffffffffffffffffffffffffffffffffffffffffff82611e04565b611e4b8683611e04565b95508019841693508086168417925050509392505050565b6000819050919050565b6000611e88611e83611e7e84611865565b611e63565b611865565b9050919050565b6000819050919050565b611ea283611e6d565b611eb6611eae82611e8f565b848454611e11565b825550505050565b600090565b611ecb611ebe565b611ed6818484611e99565b505050565b5b81811015611efa57611eef600082611ec3565b600181019050611edc565b5050565b601f821115611f3f57611f1081611ddf565b611f1984611df4565b81016020851015611f28578190505b611f3c611f3485611df4565b830182611edb565b50505b505050565b600082821c905092915050565b6000611f6260001984600802611f44565b1980831691505092915050565b6000611f7b8383611f51565b9150826002028217905092915050565b611f9482611c1d565b67ffffffffffffffff811115611fad57611fac6116de565b5b611fb78254611dae565b611fc2828285611efe565b600060209050601f831160018114611ff55760008415611fe3578287015190505b611fed8582611f6f565b865550612055565b601f19841661200386611ddf565b60005b8281101561202b57848901518255600182019150602085019450602081019050612006565b868310156120485784890151612044601f891682611f51565b8355505b6001600288020188555050505b505050505050565b6000604082019050612072600083018561186f565b81810360208301526120848184611c39565b90509392505050565b6000815461209a81611dae565b6120a48186611c28565b945060018216600081146120bf57600181146120d557612108565b60ff198316865281151560200286019350612108565b6120de85611ddf565b60005b83811015612100578154818901526001820191506020810190506120e1565b808801955050505b50505092915050565b6000604082019050818103600083015261212b818561208d565b905061213a602083018461186f565b9392505050565b7f4e487b7100000000000000000000000000000000000000000000000000000000600052601160045260246000fd5b600061217b82611865565b915061218683611865565b925082820390508181111561219e5761219d612141565b5b92915050565b6000815190506121b381611b0c565b92915050565b6000602082840312156121cf576121ce611683565b5b60006121dd848285016121a4565b91505092915050565b60006040820190506121fb60008301856119a5565b612208602083018461186f565b9392505050565b612218816119cf565b811461222357600080fd5b50565b6000815190506122358161220f565b92915050565b60006020828403121561225157612250611683565b5b600061225f84828501612226565b91505092915050565b7f556e61626c6520746f207472616e736665720000000000000000000000000000600082015250565b600061229e601283611c28565b91506122a982612268565b602082019050919050565b600060208201905081810360008301526122cd81612291565b9050919050565b60008160601b9050919050565b60006122ec826122d4565b9050919050565b60006122fe826122e1565b9050919050565b61231661231182611993565b6122f3565b82525050565b6000819050919050565b61233761233282611865565b61231c565b82525050565b60006123498286612305565b6014820191506123598285612326565b6020820191506123698284612326565b602082019150819050949350505050565b7f4f776e61626c653a206e6577206f776e657220697320746865207a65726f206160008201527f6464726573730000000000000000000000000000000000000000000000000000602082015250565b60006123d6602683611c28565b91506123e18261237a565b604082019050919050565b60006020820190508181036000830152612405816123c9565b9050919050565b7f4f776e61626c653a2063616c6c6572206973206e6f7420746865206f776e6572600082015250565b6000612442602083611c28565b915061244d8261240c565b602082019050919050565b6000602082019050818103600083015261247181612435565b9050919050565b6000819050919050565b600061248d82612478565b915061249883612478565b92508282039050818112600084121682821360008512151617156124bf576124be612141565b5b92915050565b60006124d082611865565b91506124db83611865565b92508282019050808211156124f3576124f2612141565b5b92915050565b60007fffffffff0000000000000000000000000000000000000000000000000000000082169050919050565b61252e816124f9565b82525050565b60006101008201905061254a600083018b6119a5565b612557602083018a61186f565b6125646040830189611ae2565b61257160608301886119a5565b61257e6080830187612525565b61258b60a083018661186f565b61259860c083018561186f565b81810360e08301526125aa8184611a30565b90509998505050505050505050565b7f4e487b7100000000000000000000000000000000000000000000000000000000600052603260045260246000fd5b60006125f382611865565b91507fffffffffffffffffffffffffffffffffffffffffffffffffffffffffffffffff820361262557612624612141565b5b600182019050919050565b7f4e487b7100000000000000000000000000000000000000000000000000000000600052601260045260246000fd5b600061266a82611865565b915061267583611865565b92508261268557612684612630565b5b828206905092915050565b60006126ab6126a66126a184611973565b611e63565b611973565b9050919050565b60006126bd82612690565b9050919050565b60006126cf826126b2565b9050919050565b6126e76126e2826126c4565b6122f3565b82525050565b60006126f982856126d6565b6014820191506127098284612326565b6020820191508190509392505050565b600060608201905061272e60008301866119a5565b61273b602083018561186f565b818103604083015261274d8184611a30565b9050949350505050565b7f756e61626c6520746f207472616e73666572416e6443616c6c20746f206f726160008201527f636c650000000000000000000000000000000000000000000000000000000000602082015250565b60006127b3602383611c28565b91506127be82612757565b604082019050919050565b600060208201905081810360008301526127e2816127a6565b9050919050565b60006127f482611865565b91506127ff83611865565b925082820261280d81611865565b9150828204841483151761282457612823612141565b5b5092915050565b60008160011c9050919050565b6000808291508390505b60018511156128825780860481111561285e5761285d612141565b5b600185161561286d5780820291505b808102905061287b8561282b565b9450612842565b94509492505050565b60008261289b5760019050612957565b816128a95760009050612957565b81600181146128bf57600281146128c9576128f8565b6001915050612957565b60ff8411156128db576128da612141565b5b8360020a9150848211156128f2576128f1612141565b5b50612957565b5060208310610133831016604e8410600b841016171561292d5782820a90508381111561292857612927612141565b5b612957565b61293a8484846001612838565b9250905081840481111561295157612950612141565b5b81810290505b9392505050565b600061296982611865565b915061297483611865565b92506129a17fffffffffffffffffffffffffffffffffffffffffffffffffffffffffffffffff848461288b565b90509291505056fea26469706673582212206734e6e47738b444688f4cea02a950d2bd7b40f1d11fc37f006add7f1ee36b3d64736f6c6343000811003368747470733a2f2f61702d6a6f762e636f6c79736575732e6465762f636861696e2f6765742d726f6f74",
  "devdoc": {
    "kind": "dev",
    "methods": {
      "owner()": {
        "details": "Returns the address of the current owner."
      },
      "renounceOwnership()": {
        "details": "Leaves the contract without owner. It will not be possible to call `onlyOwner` functions anymore. Can only be called by the current owner. NOTE: Renouncing ownership will leave the contract without an owner, thereby removing any functionality that is only available to the owner."
      },
      "transferOwnership(address)": {
        "details": "Transfers ownership of the contract to a new account (`newOwner`). Can only be called by the current owner."
      }
    },
    "version": 1
  },
  "userdoc": {
    "kind": "user",
    "methods": {},
    "version": 1
  },
  "storageLayout": {
    "storage": [
      {
        "astId": 358,
        "contract": "contracts/AssetValidator.sol:AssetValidator",
        "label": "s_ens",
        "offset": 0,
        "slot": "0",
        "type": "t_contract(ENSInterface)1214"
      },
      {
        "astId": 360,
        "contract": "contracts/AssetValidator.sol:AssetValidator",
        "label": "s_ensNode",
        "offset": 0,
        "slot": "1",
        "type": "t_bytes32"
      },
      {
        "astId": 363,
        "contract": "contracts/AssetValidator.sol:AssetValidator",
        "label": "s_link",
        "offset": 0,
        "slot": "2",
        "type": "t_contract(LinkTokenInterface)1309"
      },
      {
        "astId": 366,
        "contract": "contracts/AssetValidator.sol:AssetValidator",
        "label": "s_oracle",
        "offset": 0,
        "slot": "3",
        "type": "t_contract(OperatorInterface)1389"
      },
      {
        "astId": 369,
        "contract": "contracts/AssetValidator.sol:AssetValidator",
        "label": "s_requestCount",
        "offset": 0,
        "slot": "4",
        "type": "t_uint256"
      },
      {
        "astId": 373,
        "contract": "contracts/AssetValidator.sol:AssetValidator",
        "label": "s_pendingRequests",
        "offset": 0,
        "slot": "5",
        "type": "t_mapping(t_bytes32,t_address)"
      },
      {
        "astId": 2439,
        "contract": "contracts/AssetValidator.sol:AssetValidator",
        "label": "_owner",
        "offset": 0,
        "slot": "6",
        "type": "t_address"
      },
      {
        "astId": 5739,
        "contract": "contracts/AssetValidator.sol:AssetValidator",
        "label": "_url",
        "offset": 0,
        "slot": "7",
        "type": "t_string_storage"
      },
      {
        "astId": 5741,
        "contract": "contracts/AssetValidator.sol:AssetValidator",
        "label": "fee",
        "offset": 0,
        "slot": "8",
        "type": "t_uint256"
      },
      {
        "astId": 5743,
        "contract": "contracts/AssetValidator.sol:AssetValidator",
        "label": "jobId",
        "offset": 0,
        "slot": "9",
        "type": "t_bytes32"
      },
      {
        "astId": 5745,
        "contract": "contracts/AssetValidator.sol:AssetValidator",
        "label": "_root",
        "offset": 0,
        "slot": "10",
        "type": "t_bytes32"
      },
      {
        "astId": 5747,
        "contract": "contracts/AssetValidator.sol:AssetValidator",
        "label": "root",
        "offset": 0,
        "slot": "11",
        "type": "t_string_storage"
      },
      {
        "astId": 5751,
        "contract": "contracts/AssetValidator.sol:AssetValidator",
        "label": "requestParams",
        "offset": 0,
        "slot": "12",
        "type": "t_mapping(t_bytes32,t_address)"
      },
      {
        "astId": 5755,
        "contract": "contracts/AssetValidator.sol:AssetValidator",
        "label": "lastTimeStamp",
        "offset": 0,
        "slot": "13",
        "type": "t_uint256"
      }
    ],
    "types": {
      "t_address": {
        "encoding": "inplace",
        "label": "address",
        "numberOfBytes": "20"
      },
      "t_bytes32": {
        "encoding": "inplace",
        "label": "bytes32",
        "numberOfBytes": "32"
      },
      "t_contract(ENSInterface)1214": {
        "encoding": "inplace",
        "label": "contract ENSInterface",
        "numberOfBytes": "20"
      },
      "t_contract(LinkTokenInterface)1309": {
        "encoding": "inplace",
        "label": "contract LinkTokenInterface",
        "numberOfBytes": "20"
      },
      "t_contract(OperatorInterface)1389": {
        "encoding": "inplace",
        "label": "contract OperatorInterface",
        "numberOfBytes": "20"
      },
      "t_mapping(t_bytes32,t_address)": {
        "encoding": "mapping",
        "key": "t_bytes32",
        "label": "mapping(bytes32 => address)",
        "numberOfBytes": "32",
        "value": "t_address"
      },
      "t_string_storage": {
        "encoding": "bytes",
        "label": "string",
        "numberOfBytes": "32"
      },
      "t_uint256": {
        "encoding": "inplace",
        "label": "uint256",
        "numberOfBytes": "32"
      }
    }
  }
}