{
  "address": "0xddb9759012D8186923AFce07413ec996C50b8DF4",
  "abi": [
    {
      "inputs": [
        {
          "internalType": "address",
          "name": "nftAddress",
          "type": "address"
        },
        {
          "internalType": "uint256",
          "name": "tokenId",
          "type": "uint256"
        }
      ],
      "name": "AlreadyListed",
      "type": "error"
    },
    {
      "inputs": [],
      "name": "NotApprovedForMarketplace",
      "type": "error"
    },
    {
      "inputs": [
        {
          "internalType": "address",
          "name": "nftAddress",
          "type": "address"
        },
        {
          "internalType": "uint256",
          "name": "tokenId",
          "type": "uint256"
        }
      ],
      "name": "NotListed",
      "type": "error"
    },
    {
      "inputs": [],
      "name": "NotOwner",
      "type": "error"
    },
    {
      "inputs": [],
      "name": "PriceMustBeAboveZero",
      "type": "error"
    },
    {
      "inputs": [
        {
          "internalType": "address",
          "name": "nftAddress",
          "type": "address"
        },
        {
          "internalType": "uint256",
          "name": "tokenId",
          "type": "uint256"
        },
        {
          "internalType": "uint256",
          "name": "price",
          "type": "uint256"
        }
      ],
      "name": "PriceNotMet",
      "type": "error"
    },
    {
      "anonymous": false,
      "inputs": [
        {
          "indexed": true,
          "internalType": "address",
          "name": "buyer",
          "type": "address"
        },
        {
          "indexed": true,
          "internalType": "address",
          "name": "nftAddress",
          "type": "address"
        },
        {
          "indexed": true,
          "internalType": "uint256",
          "name": "tokenId",
          "type": "uint256"
        },
        {
          "indexed": false,
          "internalType": "uint256",
          "name": "price",
          "type": "uint256"
        }
      ],
      "name": "ItemBought",
      "type": "event"
    },
    {
      "anonymous": false,
      "inputs": [
        {
          "indexed": true,
          "internalType": "address",
          "name": "seller",
          "type": "address"
        },
        {
          "indexed": true,
          "internalType": "address",
          "name": "nftAddress",
          "type": "address"
        },
        {
          "indexed": true,
          "internalType": "uint256",
          "name": "tokenId",
          "type": "uint256"
        }
      ],
      "name": "ItemCanceled",
      "type": "event"
    },
    {
      "anonymous": false,
      "inputs": [
        {
          "indexed": true,
          "internalType": "address",
          "name": "seller",
          "type": "address"
        },
        {
          "indexed": true,
          "internalType": "address",
          "name": "nftAddress",
          "type": "address"
        },
        {
          "indexed": true,
          "internalType": "uint256",
          "name": "tokenId",
          "type": "uint256"
        },
        {
          "indexed": false,
          "internalType": "uint256",
          "name": "price",
          "type": "uint256"
        }
      ],
      "name": "ItemListed",
      "type": "event"
    },
    {
      "inputs": [
        {
          "internalType": "address",
          "name": "",
          "type": "address"
        },
        {
          "internalType": "uint256",
          "name": "",
          "type": "uint256"
        }
      ],
      "name": "allList",
      "outputs": [
        {
          "internalType": "uint256",
          "name": "",
          "type": "uint256"
        }
      ],
      "stateMutability": "view",
      "type": "function"
    },
    {
      "inputs": [
        {
          "internalType": "address",
          "name": "nftAddress",
          "type": "address"
        },
        {
          "internalType": "uint256",
          "name": "tokenId",
          "type": "uint256"
        }
      ],
      "name": "buyItem",
      "outputs": [],
      "stateMutability": "payable",
      "type": "function"
    },
    {
      "inputs": [
        {
          "internalType": "address",
          "name": "nftAddress",
          "type": "address"
        },
        {
          "internalType": "uint256",
          "name": "tokenId",
          "type": "uint256"
        }
      ],
      "name": "cancelListing",
      "outputs": [],
      "stateMutability": "nonpayable",
      "type": "function"
    },
    {
      "inputs": [
        {
          "internalType": "address",
          "name": "nftAddress",
          "type": "address"
        },
        {
          "internalType": "uint256",
          "name": "tokenId",
          "type": "uint256"
        }
      ],
      "name": "getListing",
      "outputs": [
        {
          "components": [
            {
              "internalType": "uint256",
              "name": "price",
              "type": "uint256"
            },
            {
              "internalType": "address",
              "name": "seller",
              "type": "address"
            }
          ],
          "internalType": "struct NftMarketplace.Listing",
          "name": "",
          "type": "tuple"
        }
      ],
      "stateMutability": "view",
      "type": "function"
    },
    {
      "inputs": [
        {
          "internalType": "address",
          "name": "nftAddress",
          "type": "address"
        },
        {
          "internalType": "uint256",
          "name": "tokenId",
          "type": "uint256"
        },
        {
          "internalType": "uint256",
          "name": "price",
          "type": "uint256"
        }
      ],
      "name": "listItem",
      "outputs": [],
      "stateMutability": "nonpayable",
      "type": "function"
    },
    {
      "inputs": [
        {
          "internalType": "address",
          "name": "",
          "type": "address"
        },
        {
          "internalType": "uint256",
          "name": "",
          "type": "uint256"
        }
      ],
      "name": "s_listings",
      "outputs": [
        {
          "internalType": "uint256",
          "name": "price",
          "type": "uint256"
        },
        {
          "internalType": "address",
          "name": "seller",
          "type": "address"
        }
      ],
      "stateMutability": "view",
      "type": "function"
    },
    {
      "inputs": [
        {
          "internalType": "address",
          "name": "nftAddress",
          "type": "address"
        },
        {
          "internalType": "uint256",
          "name": "tokenId",
          "type": "uint256"
        },
        {
          "internalType": "uint256",
          "name": "newPrice",
          "type": "uint256"
        }
      ],
      "name": "updateListing",
      "outputs": [],
      "stateMutability": "nonpayable",
      "type": "function"
    }
  ],
  "transactionHash": "0xac97f69d527d837458e10c9b3cd91a55122a500d5bd779c0c3ece59d89215df0",
  "args": [],
  "numDeployments": 1,
  "solcInputHash": "4ef5b4b81cac7d8ce4ae8fdfac2227e5",
  "bytecode": "0x608060405234801561001057600080fd5b5060016000819055506116ef806100286000396000f3fe6080604052600436106100705760003560e01c80639f37092a1161004e5780639f37092a14610118578063a0b5a2ee14610134578063b2ddee0614610172578063f772adf11461019b57610070565b80633a38ee8c1461007557806388700d1c146100b257806389bfd38f146100ef575b600080fd5b34801561008157600080fd5b5061009c60048036038101906100979190611378565b6101c4565b6040516100a991906113c7565b60405180910390f35b3480156100be57600080fd5b506100d960048036038101906100d49190611378565b6101e9565b6040516100e6919061142f565b60405180910390f35b3480156100fb57600080fd5b506101166004803603810190610111919061144a565b6102b4565b005b610132600480360381019061012d9190611378565b610738565b005b34801561014057600080fd5b5061015b60048036038101906101569190611378565b610b70565b6040516101699291906114ac565b60405180910390f35b34801561017e57600080fd5b5061019960048036038101906101949190611378565b610bc1565b005b3480156101a757600080fd5b506101c260048036038101906101bd919061144a565b610ef5565b005b6002602052816000526040600020602052806000526040600020600091509150505481565b6101f16112af565b600160008473ffffffffffffffffffffffffffffffffffffffff1673ffffffffffffffffffffffffffffffffffffffff1681526020019081526020016000206000838152602001908152602001600020604051806040016040529081600082015481526020016001820160009054906101000a900473ffffffffffffffffffffffffffffffffffffffff1673ffffffffffffffffffffffffffffffffffffffff1673ffffffffffffffffffffffffffffffffffffffff1681525050905092915050565b8282336000600160008573ffffffffffffffffffffffffffffffffffffffff1673ffffffffffffffffffffffffffffffffffffffff1681526020019081526020016000206000848152602001908152602001600020604051806040016040529081600082015481526020016001820160009054906101000a900473ffffffffffffffffffffffffffffffffffffffff1673ffffffffffffffffffffffffffffffffffffffff1673ffffffffffffffffffffffffffffffffffffffff168152505090506000816000015111156103c25783836040517f4a5568d50000000000000000000000000000000000000000000000000000000081526004016103b99291906114d5565b60405180910390fd5b868633600083905060008173ffffffffffffffffffffffffffffffffffffffff16636352211e856040518263ffffffff1660e01b815260040161040591906113c7565b602060405180830381865afa158015610422573d6000803e3d6000fd5b505050506040513d601f19601f820116820180604052508101906104469190611513565b90508073ffffffffffffffffffffffffffffffffffffffff168373ffffffffffffffffffffffffffffffffffffffff16146104ad576040517f30cd747100000000000000000000000000000000000000000000000000000000815260040160405180910390fd5b60008a116104e7576040517fe1abbfc500000000000000000000000000000000000000000000000000000000815260040160405180910390fd5b60008c90508073ffffffffffffffffffffffffffffffffffffffff1663e985e9c5338f6040518363ffffffff1660e01b8152600401610527929190611540565b602060405180830381865afa158015610544573d6000803e3d6000fd5b505050506040513d601f19601f8201168201806040525081019061056891906115a1565b1561059f576040517f4be3a2c500000000000000000000000000000000000000000000000000000000815260040160405180910390fd5b60405180604001604052808c81526020013373ffffffffffffffffffffffffffffffffffffffff16815250600160008f73ffffffffffffffffffffffffffffffffffffffff1673ffffffffffffffffffffffffffffffffffffffff16815260200190815260200160002060008e81526020019081526020016000206000820151816000015560208201518160010160006101000a81548173ffffffffffffffffffffffffffffffffffffffff021916908373ffffffffffffffffffffffffffffffffffffffff1602179055509050508a600260008f73ffffffffffffffffffffffffffffffffffffffff1673ffffffffffffffffffffffffffffffffffffffff16815260200190815260200160002060008e8152602001908152602001600020819055508b8d73ffffffffffffffffffffffffffffffffffffffff163373ffffffffffffffffffffffffffffffffffffffff167fd547e933094f12a9159076970143ebe73234e64480317844b0dcb36117116de48e60405161072191906113c7565b60405180910390a450505050505050505050505050565b81816000600160008473ffffffffffffffffffffffffffffffffffffffff1673ffffffffffffffffffffffffffffffffffffffff1681526020019081526020016000206000838152602001908152602001600020604051806040016040529081600082015481526020016001820160009054906101000a900473ffffffffffffffffffffffffffffffffffffffff1673ffffffffffffffffffffffffffffffffffffffff1673ffffffffffffffffffffffffffffffffffffffff1681525050905060008160000151116108445782826040517f6831488c00000000000000000000000000000000000000000000000000000000815260040161083b9291906114d5565b60405180910390fd5b61084c611256565b6000600160008773ffffffffffffffffffffffffffffffffffffffff1673ffffffffffffffffffffffffffffffffffffffff1681526020019081526020016000206000868152602001908152602001600020604051806040016040529081600082015481526020016001820160009054906101000a900473ffffffffffffffffffffffffffffffffffffffff1673ffffffffffffffffffffffffffffffffffffffff1673ffffffffffffffffffffffffffffffffffffffff16815250509050806000015134101561095c57858582600001516040517f7c934565000000000000000000000000000000000000000000000000000000008152600401610953939291906115ce565b60405180910390fd5b600081602001519050600160008873ffffffffffffffffffffffffffffffffffffffff1673ffffffffffffffffffffffffffffffffffffffff16815260200190815260200160002060008781526020019081526020016000206000808201600090556001820160006101000a81549073ffffffffffffffffffffffffffffffffffffffff02191690555050600260008873ffffffffffffffffffffffffffffffffffffffff1673ffffffffffffffffffffffffffffffffffffffff1681526020019081526020016000206000878152602001908152602001600020600090558673ffffffffffffffffffffffffffffffffffffffff166342842e0e836020015133896040518463ffffffff1660e01b8152600401610a7c93929190611605565b600060405180830381600087803b158015610a9657600080fd5b505af1158015610aaa573d6000803e3d6000fd5b505050508073ffffffffffffffffffffffffffffffffffffffff166108fc349081150290604051600060405180830381858888f19350505050158015610af4573d6000803e3d6000fd5b50858773ffffffffffffffffffffffffffffffffffffffff163373ffffffffffffffffffffffffffffffffffffffff167f263223b1dd81e51054a4e6f791d45a4a1ddb4aadcd93a2dfd892615c3fdac1878560000151604051610b5791906113c7565b60405180910390a45050610b696112a5565b5050505050565b6001602052816000526040600020602052806000526040600020600091509150508060000154908060010160009054906101000a900473ffffffffffffffffffffffffffffffffffffffff16905082565b818133600083905060008173ffffffffffffffffffffffffffffffffffffffff16636352211e856040518263ffffffff1660e01b8152600401610c0491906113c7565b602060405180830381865afa158015610c21573d6000803e3d6000fd5b505050506040513d601f19601f82011682018060405250810190610c459190611513565b90508073ffffffffffffffffffffffffffffffffffffffff168373ffffffffffffffffffffffffffffffffffffffff1614610cac576040517f30cd747100000000000000000000000000000000000000000000000000000000815260040160405180910390fd5b86866000600160008473ffffffffffffffffffffffffffffffffffffffff1673ffffffffffffffffffffffffffffffffffffffff1681526020019081526020016000206000838152602001908152602001600020604051806040016040529081600082015481526020016001820160009054906101000a900473ffffffffffffffffffffffffffffffffffffffff1673ffffffffffffffffffffffffffffffffffffffff1673ffffffffffffffffffffffffffffffffffffffff168152505090506000816000015111610db85782826040517f6831488c000000000000000000000000000000000000000000000000000000008152600401610daf9291906114d5565b60405180910390fd5b600160008b73ffffffffffffffffffffffffffffffffffffffff1673ffffffffffffffffffffffffffffffffffffffff16815260200190815260200160002060008a81526020019081526020016000206000808201600090556001820160006101000a81549073ffffffffffffffffffffffffffffffffffffffff02191690555050600260008b73ffffffffffffffffffffffffffffffffffffffff1673ffffffffffffffffffffffffffffffffffffffff16815260200190815260200160002060008a815260200190815260200160002060009055888a73ffffffffffffffffffffffffffffffffffffffff163373ffffffffffffffffffffffffffffffffffffffff167f9ba1a3cb55ce8d63d072a886f94d2a744f50cddf82128e897d0661f5ec62315860405160405180910390a450505050505050505050565b82826000600160008473ffffffffffffffffffffffffffffffffffffffff1673ffffffffffffffffffffffffffffffffffffffff1681526020019081526020016000206000838152602001908152602001600020604051806040016040529081600082015481526020016001820160009054906101000a900473ffffffffffffffffffffffffffffffffffffffff1673ffffffffffffffffffffffffffffffffffffffff1673ffffffffffffffffffffffffffffffffffffffff1681525050905060008160000151116110015782826040517f6831488c000000000000000000000000000000000000000000000000000000008152600401610ff89291906114d5565b60405180910390fd5b611009611256565b858533600083905060008173ffffffffffffffffffffffffffffffffffffffff16636352211e856040518263ffffffff1660e01b815260040161104c91906113c7565b602060405180830381865afa158015611069573d6000803e3d6000fd5b505050506040513d601f19601f8201168201806040525081019061108d9190611513565b90508073ffffffffffffffffffffffffffffffffffffffff168373ffffffffffffffffffffffffffffffffffffffff16146110f4576040517f30cd747100000000000000000000000000000000000000000000000000000000815260040160405180910390fd5b6000891161112e576040517fe1abbfc500000000000000000000000000000000000000000000000000000000815260040160405180910390fd5b88600160008d73ffffffffffffffffffffffffffffffffffffffff1673ffffffffffffffffffffffffffffffffffffffff16815260200190815260200160002060008c81526020019081526020016000206000018190555088600260008d73ffffffffffffffffffffffffffffffffffffffff1673ffffffffffffffffffffffffffffffffffffffff16815260200190815260200160002060008c815260200190815260200160002081905550898b73ffffffffffffffffffffffffffffffffffffffff163373ffffffffffffffffffffffffffffffffffffffff167fd547e933094f12a9159076970143ebe73234e64480317844b0dcb36117116de48c60405161123991906113c7565b60405180910390a4505050505061124e6112a5565b505050505050565b60026000540361129b576040517f08c379a000000000000000000000000000000000000000000000000000000000815260040161129290611699565b60405180910390fd5b6002600081905550565b6001600081905550565b604051806040016040528060008152602001600073ffffffffffffffffffffffffffffffffffffffff1681525090565b600080fd5b600073ffffffffffffffffffffffffffffffffffffffff82169050919050565b600061130f826112e4565b9050919050565b61131f81611304565b811461132a57600080fd5b50565b60008135905061133c81611316565b92915050565b6000819050919050565b61135581611342565b811461136057600080fd5b50565b6000813590506113728161134c565b92915050565b6000806040838503121561138f5761138e6112df565b5b600061139d8582860161132d565b92505060206113ae85828601611363565b9150509250929050565b6113c181611342565b82525050565b60006020820190506113dc60008301846113b8565b92915050565b6113eb81611342565b82525050565b6113fa81611304565b82525050565b60408201600082015161141660008501826113e2565b50602082015161142960208501826113f1565b50505050565b60006040820190506114446000830184611400565b92915050565b600080600060608486031215611463576114626112df565b5b60006114718682870161132d565b935050602061148286828701611363565b925050604061149386828701611363565b9150509250925092565b6114a681611304565b82525050565b60006040820190506114c160008301856113b8565b6114ce602083018461149d565b9392505050565b60006040820190506114ea600083018561149d565b6114f760208301846113b8565b9392505050565b60008151905061150d81611316565b92915050565b600060208284031215611529576115286112df565b5b6000611537848285016114fe565b91505092915050565b6000604082019050611555600083018561149d565b611562602083018461149d565b9392505050565b60008115159050919050565b61157e81611569565b811461158957600080fd5b50565b60008151905061159b81611575565b92915050565b6000602082840312156115b7576115b66112df565b5b60006115c58482850161158c565b91505092915050565b60006060820190506115e3600083018661149d565b6115f060208301856113b8565b6115fd60408301846113b8565b949350505050565b600060608201905061161a600083018661149d565b611627602083018561149d565b61163460408301846113b8565b949350505050565b600082825260208201905092915050565b7f5265656e7472616e637947756172643a207265656e7472616e742063616c6c00600082015250565b6000611683601f8361163c565b915061168e8261164d565b602082019050919050565b600060208201905081810360008301526116b281611676565b905091905056fea2646970667358221220672f92df0a0a803a7c2715ae56d1da7163e85b271d7f67930701e9cdbc1c8c7664736f6c63430008110033",
  "devdoc": {
    "kind": "dev",
    "methods": {},
    "version": 1
  },
  "userdoc": {
    "kind": "user",
    "methods": {},
    "version": 1
  },
  "storageLayout": {
    "storage": [
      {
        "astId": 10,
        "contract": "contracts/NFTmarketplace.sol:NftMarketplace",
        "label": "_status",
        "offset": 0,
        "slot": "0",
        "type": "t_uint256"
      },
      {
        "astId": 2749,
        "contract": "contracts/NFTmarketplace.sol:NftMarketplace",
        "label": "s_listings",
        "offset": 0,
        "slot": "1",
        "type": "t_mapping(t_address,t_mapping(t_uint256,t_struct(Listing)2714_storage))"
      },
      {
        "astId": 2755,
        "contract": "contracts/NFTmarketplace.sol:NftMarketplace",
        "label": "allList",
        "offset": 0,
        "slot": "2",
        "type": "t_mapping(t_address,t_mapping(t_uint256,t_uint256))"
      }
    ],
    "types": {
      "t_address": {
        "encoding": "inplace",
        "label": "address",
        "numberOfBytes": "20"
      },
      "t_mapping(t_address,t_mapping(t_uint256,t_struct(Listing)2714_storage))": {
        "encoding": "mapping",
        "key": "t_address",
        "label": "mapping(address => mapping(uint256 => struct NftMarketplace.Listing))",
        "numberOfBytes": "32",
        "value": "t_mapping(t_uint256,t_struct(Listing)2714_storage)"
      },
      "t_mapping(t_address,t_mapping(t_uint256,t_uint256))": {
        "encoding": "mapping",
        "key": "t_address",
        "label": "mapping(address => mapping(uint256 => uint256))",
        "numberOfBytes": "32",
        "value": "t_mapping(t_uint256,t_uint256)"
      },
      "t_mapping(t_uint256,t_struct(Listing)2714_storage)": {
        "encoding": "mapping",
        "key": "t_uint256",
        "label": "mapping(uint256 => struct NftMarketplace.Listing)",
        "numberOfBytes": "32",
        "value": "t_struct(Listing)2714_storage"
      },
      "t_mapping(t_uint256,t_uint256)": {
        "encoding": "mapping",
        "key": "t_uint256",
        "label": "mapping(uint256 => uint256)",
        "numberOfBytes": "32",
        "value": "t_uint256"
      },
      "t_struct(Listing)2714_storage": {
        "encoding": "inplace",
        "label": "struct NftMarketplace.Listing",
        "members": [
          {
            "astId": 2711,
            "contract": "contracts/NFTmarketplace.sol:NftMarketplace",
            "label": "price",
            "offset": 0,
            "slot": "0",
            "type": "t_uint256"
          },
          {
            "astId": 2713,
            "contract": "contracts/NFTmarketplace.sol:NftMarketplace",
            "label": "seller",
            "offset": 0,
            "slot": "1",
            "type": "t_address"
          }
        ],
        "numberOfBytes": "64"
      },
      "t_uint256": {
        "encoding": "inplace",
        "label": "uint256",
        "numberOfBytes": "32"
      }
    }
  }
}