{
  "address": "0x2Bef352e66cE770fa9b4CD266e5F76e6f1393c8f",
  "abi": [
    {
      "inputs": [
        {
          "internalType": "address",
          "name": "vrfCoordinatorV2",
          "type": "address"
        },
        {
          "internalType": "uint64",
          "name": "subscriptionId",
          "type": "uint64"
        },
        {
          "internalType": "string[10]",
          "name": "fishTokenUris",
          "type": "string[10]"
        }
      ],
      "stateMutability": "nonpayable",
      "type": "constructor"
    },
    {
      "inputs": [],
      "name": "AlreadyInitialized",
      "type": "error"
    },
    {
      "inputs": [
        {
          "internalType": "address",
          "name": "have",
          "type": "address"
        },
        {
          "internalType": "address",
          "name": "want",
          "type": "address"
        }
      ],
      "name": "OnlyCoordinatorCanFulfill",
      "type": "error"
    },
    {
      "inputs": [],
      "name": "RangeOutOfBounds",
      "type": "error"
    },
    {
      "anonymous": false,
      "inputs": [
        {
          "indexed": true,
          "internalType": "address",
          "name": "owner",
          "type": "address"
        },
        {
          "indexed": true,
          "internalType": "address",
          "name": "approved",
          "type": "address"
        },
        {
          "indexed": true,
          "internalType": "uint256",
          "name": "tokenId",
          "type": "uint256"
        }
      ],
      "name": "Approval",
      "type": "event"
    },
    {
      "anonymous": false,
      "inputs": [
        {
          "indexed": true,
          "internalType": "address",
          "name": "owner",
          "type": "address"
        },
        {
          "indexed": true,
          "internalType": "address",
          "name": "operator",
          "type": "address"
        },
        {
          "indexed": false,
          "internalType": "bool",
          "name": "approved",
          "type": "bool"
        }
      ],
      "name": "ApprovalForAll",
      "type": "event"
    },
    {
      "anonymous": false,
      "inputs": [
        {
          "indexed": true,
          "internalType": "bytes32",
          "name": "id",
          "type": "bytes32"
        }
      ],
      "name": "ChainlinkCancelled",
      "type": "event"
    },
    {
      "anonymous": false,
      "inputs": [
        {
          "indexed": true,
          "internalType": "bytes32",
          "name": "id",
          "type": "bytes32"
        }
      ],
      "name": "ChainlinkFulfilled",
      "type": "event"
    },
    {
      "anonymous": false,
      "inputs": [
        {
          "indexed": true,
          "internalType": "bytes32",
          "name": "id",
          "type": "bytes32"
        }
      ],
      "name": "ChainlinkRequested",
      "type": "event"
    },
    {
      "anonymous": false,
      "inputs": [
        {
          "indexed": false,
          "internalType": "enum VrfMint.Breed",
          "name": "breed",
          "type": "uint8"
        },
        {
          "indexed": false,
          "internalType": "address",
          "name": "minter",
          "type": "address"
        }
      ],
      "name": "NftMinted",
      "type": "event"
    },
    {
      "anonymous": false,
      "inputs": [
        {
          "indexed": true,
          "internalType": "uint256",
          "name": "requestId",
          "type": "uint256"
        },
        {
          "indexed": false,
          "internalType": "address",
          "name": "requester",
          "type": "address"
        }
      ],
      "name": "NftRequested",
      "type": "event"
    },
    {
      "anonymous": false,
      "inputs": [
        {
          "indexed": true,
          "internalType": "address",
          "name": "previousOwner",
          "type": "address"
        },
        {
          "indexed": true,
          "internalType": "address",
          "name": "newOwner",
          "type": "address"
        }
      ],
      "name": "OwnershipTransferred",
      "type": "event"
    },
    {
      "anonymous": false,
      "inputs": [
        {
          "indexed": true,
          "internalType": "bytes32",
          "name": "requestId",
          "type": "bytes32"
        },
        {
          "indexed": false,
          "internalType": "uint256",
          "name": "amount",
          "type": "uint256"
        }
      ],
      "name": "RequestAmount",
      "type": "event"
    },
    {
      "anonymous": false,
      "inputs": [
        {
          "indexed": false,
          "internalType": "string",
          "name": "url",
          "type": "string"
        },
        {
          "indexed": false,
          "internalType": "address",
          "name": "requester",
          "type": "address"
        }
      ],
      "name": "RequestUrl",
      "type": "event"
    },
    {
      "anonymous": false,
      "inputs": [
        {
          "indexed": true,
          "internalType": "address",
          "name": "from",
          "type": "address"
        },
        {
          "indexed": true,
          "internalType": "address",
          "name": "to",
          "type": "address"
        },
        {
          "indexed": true,
          "internalType": "uint256",
          "name": "tokenId",
          "type": "uint256"
        }
      ],
      "name": "Transfer",
      "type": "event"
    },
    {
      "inputs": [
        {
          "internalType": "address",
          "name": "to",
          "type": "address"
        },
        {
          "internalType": "uint256",
          "name": "tokenId",
          "type": "uint256"
        }
      ],
      "name": "approve",
      "outputs": [],
      "stateMutability": "nonpayable",
      "type": "function"
    },
    {
      "inputs": [
        {
          "internalType": "address",
          "name": "owner",
          "type": "address"
        }
      ],
      "name": "balanceOf",
      "outputs": [
        {
          "internalType": "uint256",
          "name": "",
          "type": "uint256"
        }
      ],
      "stateMutability": "view",
      "type": "function"
    },
    {
      "inputs": [
        {
          "internalType": "address",
          "name": "",
          "type": "address"
        }
      ],
      "name": "canMintAmount",
      "outputs": [
        {
          "internalType": "uint32",
          "name": "",
          "type": "uint32"
        }
      ],
      "stateMutability": "view",
      "type": "function"
    },
    {
      "inputs": [
        {
          "internalType": "bytes32",
          "name": "_requestId",
          "type": "bytes32"
        },
        {
          "internalType": "uint256",
          "name": "_volume",
          "type": "uint256"
        }
      ],
      "name": "fulfill",
      "outputs": [],
      "stateMutability": "nonpayable",
      "type": "function"
    },
    {
      "inputs": [],
      "name": "getAmount",
      "outputs": [
        {
          "internalType": "bytes32",
          "name": "requestId",
          "type": "bytes32"
        }
      ],
      "stateMutability": "nonpayable",
      "type": "function"
    },
    {
      "inputs": [
        {
          "internalType": "uint256",
          "name": "tokenId",
          "type": "uint256"
        }
      ],
      "name": "getApproved",
      "outputs": [
        {
          "internalType": "address",
          "name": "",
          "type": "address"
        }
      ],
      "stateMutability": "view",
      "type": "function"
    },
    {
      "inputs": [
        {
          "internalType": "uint256",
          "name": "moddedRng",
          "type": "uint256"
        }
      ],
      "name": "getBreedFromModdedRng",
      "outputs": [
        {
          "internalType": "enum VrfMint.Breed",
          "name": "",
          "type": "uint8"
        }
      ],
      "stateMutability": "pure",
      "type": "function"
    },
    {
      "inputs": [],
      "name": "getChanceArray",
      "outputs": [
        {
          "internalType": "uint256[10]",
          "name": "",
          "type": "uint256[10]"
        }
      ],
      "stateMutability": "pure",
      "type": "function"
    },
    {
      "inputs": [],
      "name": "getInitialized",
      "outputs": [
        {
          "internalType": "bool",
          "name": "",
          "type": "bool"
        }
      ],
      "stateMutability": "view",
      "type": "function"
    },
    {
      "inputs": [],
      "name": "getTokenCounter",
      "outputs": [
        {
          "internalType": "uint256",
          "name": "",
          "type": "uint256"
        }
      ],
      "stateMutability": "view",
      "type": "function"
    },
    {
      "inputs": [
        {
          "internalType": "uint256",
          "name": "index",
          "type": "uint256"
        }
      ],
      "name": "getfishTokenUris",
      "outputs": [
        {
          "internalType": "string",
          "name": "",
          "type": "string"
        }
      ],
      "stateMutability": "view",
      "type": "function"
    },
    {
      "inputs": [
        {
          "internalType": "address",
          "name": "owner",
          "type": "address"
        },
        {
          "internalType": "address",
          "name": "operator",
          "type": "address"
        }
      ],
      "name": "isApprovedForAll",
      "outputs": [
        {
          "internalType": "bool",
          "name": "",
          "type": "bool"
        }
      ],
      "stateMutability": "view",
      "type": "function"
    },
    {
      "inputs": [],
      "name": "mint",
      "outputs": [
        {
          "internalType": "uint256",
          "name": "requestId",
          "type": "uint256"
        }
      ],
      "stateMutability": "nonpayable",
      "type": "function"
    },
    {
      "inputs": [],
      "name": "name",
      "outputs": [
        {
          "internalType": "string",
          "name": "",
          "type": "string"
        }
      ],
      "stateMutability": "view",
      "type": "function"
    },
    {
      "inputs": [],
      "name": "owner",
      "outputs": [
        {
          "internalType": "address",
          "name": "",
          "type": "address"
        }
      ],
      "stateMutability": "view",
      "type": "function"
    },
    {
      "inputs": [
        {
          "internalType": "uint256",
          "name": "tokenId",
          "type": "uint256"
        }
      ],
      "name": "ownerOf",
      "outputs": [
        {
          "internalType": "address",
          "name": "",
          "type": "address"
        }
      ],
      "stateMutability": "view",
      "type": "function"
    },
    {
      "inputs": [
        {
          "internalType": "uint256",
          "name": "requestId",
          "type": "uint256"
        },
        {
          "internalType": "uint256[]",
          "name": "randomWords",
          "type": "uint256[]"
        }
      ],
      "name": "rawFulfillRandomWords",
      "outputs": [],
      "stateMutability": "nonpayable",
      "type": "function"
    },
    {
      "inputs": [],
      "name": "renounceOwnership",
      "outputs": [],
      "stateMutability": "nonpayable",
      "type": "function"
    },
    {
      "inputs": [
        {
          "internalType": "bytes32",
          "name": "",
          "type": "bytes32"
        }
      ],
      "name": "requestParams",
      "outputs": [
        {
          "internalType": "address",
          "name": "",
          "type": "address"
        }
      ],
      "stateMutability": "view",
      "type": "function"
    },
    {
      "inputs": [
        {
          "internalType": "uint256",
          "name": "",
          "type": "uint256"
        }
      ],
      "name": "s_requestIdToSender",
      "outputs": [
        {
          "internalType": "address",
          "name": "",
          "type": "address"
        }
      ],
      "stateMutability": "view",
      "type": "function"
    },
    {
      "inputs": [
        {
          "internalType": "address",
          "name": "from",
          "type": "address"
        },
        {
          "internalType": "address",
          "name": "to",
          "type": "address"
        },
        {
          "internalType": "uint256",
          "name": "tokenId",
          "type": "uint256"
        }
      ],
      "name": "safeTransferFrom",
      "outputs": [],
      "stateMutability": "nonpayable",
      "type": "function"
    },
    {
      "inputs": [
        {
          "internalType": "address",
          "name": "from",
          "type": "address"
        },
        {
          "internalType": "address",
          "name": "to",
          "type": "address"
        },
        {
          "internalType": "uint256",
          "name": "tokenId",
          "type": "uint256"
        },
        {
          "internalType": "bytes",
          "name": "data",
          "type": "bytes"
        }
      ],
      "name": "safeTransferFrom",
      "outputs": [],
      "stateMutability": "nonpayable",
      "type": "function"
    },
    {
      "inputs": [
        {
          "internalType": "address",
          "name": "operator",
          "type": "address"
        },
        {
          "internalType": "bool",
          "name": "approved",
          "type": "bool"
        }
      ],
      "name": "setApprovalForAll",
      "outputs": [],
      "stateMutability": "nonpayable",
      "type": "function"
    },
    {
      "inputs": [
        {
          "internalType": "bytes4",
          "name": "interfaceId",
          "type": "bytes4"
        }
      ],
      "name": "supportsInterface",
      "outputs": [
        {
          "internalType": "bool",
          "name": "",
          "type": "bool"
        }
      ],
      "stateMutability": "view",
      "type": "function"
    },
    {
      "inputs": [],
      "name": "symbol",
      "outputs": [
        {
          "internalType": "string",
          "name": "",
          "type": "string"
        }
      ],
      "stateMutability": "view",
      "type": "function"
    },
    {
      "inputs": [
        {
          "internalType": "uint256",
          "name": "tokenId",
          "type": "uint256"
        }
      ],
      "name": "tokenURI",
      "outputs": [
        {
          "internalType": "string",
          "name": "",
          "type": "string"
        }
      ],
      "stateMutability": "view",
      "type": "function"
    },
    {
      "inputs": [
        {
          "internalType": "address",
          "name": "from",
          "type": "address"
        },
        {
          "internalType": "address",
          "name": "to",
          "type": "address"
        },
        {
          "internalType": "uint256",
          "name": "tokenId",
          "type": "uint256"
        }
      ],
      "name": "transferFrom",
      "outputs": [],
      "stateMutability": "nonpayable",
      "type": "function"
    },
    {
      "inputs": [
        {
          "internalType": "address",
          "name": "newOwner",
          "type": "address"
        }
      ],
      "name": "transferOwnership",
      "outputs": [],
      "stateMutability": "nonpayable",
      "type": "function"
    },
    {
      "inputs": [],
      "name": "volume",
      "outputs": [
        {
          "internalType": "uint256",
          "name": "",
          "type": "uint256"
        }
      ],
      "stateMutability": "view",
      "type": "function"
    },
    {
      "inputs": [],
      "name": "withdrawLink",
      "outputs": [],
      "stateMutability": "nonpayable",
      "type": "function"
    }
  ],
  "transactionHash": "0x3615ac704ce0f0dcc42a51c8e466934e7b8ca942fa177b7b7f9d696ec8278802",
  "args": [
    "0x7a1BaC17Ccc5b313516C5E16fb24f7659aA5ebed",
    2526,
    [
      "https://ipfs.filebase.io/ipfs/QmeZ3Xndo1DTruEGCbenzR381FyaLL8JgwGRKc1nfE3riU/1.json",
      "https://ipfs.filebase.io/ipfs/QmeZ3Xndo1DTruEGCbenzR381FyaLL8JgwGRKc1nfE3riU/2.json",
      "https://ipfs.filebase.io/ipfs/QmeZ3Xndo1DTruEGCbenzR381FyaLL8JgwGRKc1nfE3riU/3.json",
      "https://ipfs.filebase.io/ipfs/QmeZ3Xndo1DTruEGCbenzR381FyaLL8JgwGRKc1nfE3riU/4.json",
      "https://ipfs.filebase.io/ipfs/QmeZ3Xndo1DTruEGCbenzR381FyaLL8JgwGRKc1nfE3riU/5.json",
      "https://ipfs.filebase.io/ipfs/QmeZ3Xndo1DTruEGCbenzR381FyaLL8JgwGRKc1nfE3riU/6.json",
      "https://ipfs.filebase.io/ipfs/QmeZ3Xndo1DTruEGCbenzR381FyaLL8JgwGRKc1nfE3riU/7.json",
      "https://ipfs.filebase.io/ipfs/QmeZ3Xndo1DTruEGCbenzR381FyaLL8JgwGRKc1nfE3riU/8.json",
      "https://ipfs.filebase.io/ipfs/QmeZ3Xndo1DTruEGCbenzR381FyaLL8JgwGRKc1nfE3riU/9.json",
      "https://ipfs.filebase.io/ipfs/QmeZ3Xndo1DTruEGCbenzR381FyaLL8JgwGRKc1nfE3riU/10.json"
    ]
  ],
  "numDeployments": 6,
  "solcInputHash": "61626b6aea846d8c5b95d01ee2d2cdcc",
  "bytecode": "0x60e06040526001600c557f4b09e658ed251bcafeebbc69400383d49f344ace09b9576fe248bb02c003fe9f60001b600e55622625a0600f60006101000a81548163ffffffff021916908363ffffffff1602179055503480156200006157600080fd5b50604051620063b5380380620063b5833981810160405281019062000087919062000861565b826040518060400160405280601281526020017f50696578656c20466c79696e67206669736800000000000000000000000000008152506040518060400160405280600381526020017f5046460000000000000000000000000000000000000000000000000000000000815250816000908162000105919062000b27565b50806001908162000117919062000b27565b5050508073ffffffffffffffffffffffffffffffffffffffff1660808173ffffffffffffffffffffffffffffffffffffffff1681525050506200016f620001636200027d60201b60201c565b6200028560201b60201c565b8273ffffffffffffffffffffffffffffffffffffffff1660a08173ffffffffffffffffffffffffffffffffffffffff16815250508167ffffffffffffffff1660c08167ffffffffffffffff1681525050620001d0816200034b60201b60201c565b6000601081905550620001fd73326c977e6efc84e512bb9c30f76e30c160ed06fb620003c560201b60201c565b620002227340193c8518bb267228fc409a613bdbd8ec5a97b36200040960201b60201c565b7f6361393833363663633733313439353762386330313263373266303561656562601581905550600a670de0b6b3a7640000600162000262919062000c3d565b6200026e919062000cb7565b60168190555050505062000cef565b600033905090565b6000600760009054906101000a900473ffffffffffffffffffffffffffffffffffffffff16905081600760006101000a81548173ffffffffffffffffffffffffffffffffffffffff021916908373ffffffffffffffffffffffffffffffffffffffff1602179055508173ffffffffffffffffffffffffffffffffffffffff168173ffffffffffffffffffffffffffffffffffffffff167f8be0079c531659141344cd1fd0a4f28419497f9722a3daafe3b4186f6b6457e060405160405180910390a35050565b601360009054906101000a900460ff161562000393576040517f0dc149f000000000000000000000000000000000000000000000000000000000815260040160405180910390fd5b80601290600a620003a69291906200044d565b506001601360006101000a81548160ff02191690831515021790555050565b80600a60006101000a81548173ffffffffffffffffffffffffffffffffffffffff021916908373ffffffffffffffffffffffffffffffffffffffff16021790555050565b80600b60006101000a81548173ffffffffffffffffffffffffffffffffffffffff021916908373ffffffffffffffffffffffffffffffffffffffff16021790555050565b8280548282559060005260206000209081019282156200049a579160200282015b828111156200049957825182908162000488919062000b27565b50916020019190600101906200046e565b5b509050620004a99190620004ad565b5090565b5b80821115620004d15760008181620004c79190620004d5565b50600101620004ae565b5090565b508054620004e39062000916565b6000825580601f10620004f7575062000518565b601f0160209004906000526020600020908101906200051791906200051b565b5b50565b5b80821115620005365760008160009055506001016200051c565b5090565b6000604051905090565b600080fd5b600080fd5b600073ffffffffffffffffffffffffffffffffffffffff82169050919050565b60006200057b826200054e565b9050919050565b6200058d816200056e565b81146200059957600080fd5b50565b600081519050620005ad8162000582565b92915050565b600067ffffffffffffffff82169050919050565b620005d281620005b3565b8114620005de57600080fd5b50565b600081519050620005f281620005c7565b92915050565b600080fd5b6000601f19601f8301169050919050565b7f4e487b7100000000000000000000000000000000000000000000000000000000600052604160045260246000fd5b6200064882620005fd565b810181811067ffffffffffffffff821117156200066a57620006696200060e565b5b80604052505050565b60006200067f6200053a565b90506200068d82826200063d565b919050565b600067ffffffffffffffff821115620006b057620006af6200060e565b5b602082029050919050565b600080fd5b600080fd5b600067ffffffffffffffff821115620006e357620006e26200060e565b5b620006ee82620005fd565b9050602081019050919050565b60005b838110156200071b578082015181840152602081019050620006fe565b60008484015250505050565b60006200073e6200073884620006c5565b62000673565b9050828152602081018484840111156200075d576200075c620006c0565b5b6200076a848285620006fb565b509392505050565b600082601f8301126200078a5762000789620005f8565b5b81516200079c84826020860162000727565b91505092915050565b6000620007bc620007b68462000692565b62000673565b90508060208402830185811115620007d957620007d8620006bb565b5b835b818110156200082757805167ffffffffffffffff811115620008025762000801620005f8565b5b80860162000811898262000772565b85526020850194505050602081019050620007db565b5050509392505050565b600082601f830112620008495762000848620005f8565b5b600a62000858848285620007a5565b91505092915050565b6000806000606084860312156200087d576200087c62000544565b5b60006200088d868287016200059c565b9350506020620008a086828701620005e1565b925050604084015167ffffffffffffffff811115620008c457620008c362000549565b5b620008d28682870162000831565b9150509250925092565b600081519050919050565b7f4e487b7100000000000000000000000000000000000000000000000000000000600052602260045260246000fd5b600060028204905060018216806200092f57607f821691505b602082108103620009455762000944620008e7565b5b50919050565b60008190508160005260206000209050919050565b60006020601f8301049050919050565b600082821b905092915050565b600060088302620009af7fffffffffffffffffffffffffffffffffffffffffffffffffffffffffffffffff8262000970565b620009bb868362000970565b95508019841693508086168417925050509392505050565b6000819050919050565b6000819050919050565b600062000a0862000a02620009fc84620009d3565b620009dd565b620009d3565b9050919050565b6000819050919050565b62000a2483620009e7565b62000a3c62000a338262000a0f565b8484546200097d565b825550505050565b600090565b62000a5362000a44565b62000a6081848462000a19565b505050565b5b8181101562000a885762000a7c60008262000a49565b60018101905062000a66565b5050565b601f82111562000ad75762000aa1816200094b565b62000aac8462000960565b8101602085101562000abc578190505b62000ad462000acb8562000960565b83018262000a65565b50505b505050565b600082821c905092915050565b600062000afc6000198460080262000adc565b1980831691505092915050565b600062000b17838362000ae9565b9150826002028217905092915050565b62000b3282620008dc565b67ffffffffffffffff81111562000b4e5762000b4d6200060e565b5b62000b5a825462000916565b62000b6782828562000a8c565b600060209050601f83116001811462000b9f576000841562000b8a578287015190505b62000b96858262000b09565b86555062000c06565b601f19841662000baf866200094b565b60005b8281101562000bd95784890151825560018201915060208501945060208101905062000bb2565b8683101562000bf9578489015162000bf5601f89168262000ae9565b8355505b6001600288020188555050505b505050505050565b7f4e487b7100000000000000000000000000000000000000000000000000000000600052601160045260246000fd5b600062000c4a82620009d3565b915062000c5783620009d3565b925082820262000c6781620009d3565b9150828204841483151762000c815762000c8062000c0e565b5b5092915050565b7f4e487b7100000000000000000000000000000000000000000000000000000000600052601260045260246000fd5b600062000cc482620009d3565b915062000cd183620009d3565b92508262000ce45762000ce362000c88565b5b828204905092915050565b60805160a05160c05161568f62000d26600039600061095801526000610919015260008181610a820152610ad6015261568f6000f3fe608060405234801561001057600080fd5b50600436106101da5760003560e01c80638da5cb5b11610104578063a51cccf3116100a2578063d321fe2911610071578063d321fe2914610569578063e985e9c514610587578063ee89dab4146105b7578063f2fde38b146105d5576101da565b8063a51cccf3146104cf578063b88d4fde146104ff578063c618a1e41461051b578063c87b56dd14610539576101da565b806395d89b41116100de57806395d89b41146104355780639f5eb91514610453578063a22cb46514610483578063a36f573b1461049f576101da565b80638da5cb5b146103dd5780638dc654a2146103fb5780638f62cbdb14610405576101da565b806342842e0e1161017c5780636352211e1161014b5780636352211e146103555780636e02007d1461038557806370a08231146103a3578063715018a6146103d3576101da565b806342842e0e146102cf5780634357855e146102eb57806355ab79cb146103075780635dacf5f414610337576101da565b8063095ea7b3116101b8578063095ea7b31461025d5780631249c58b146102795780631fe543e31461029757806323b872dd146102b3576101da565b806301ffc9a7146101df57806306fdde031461020f578063081812fc1461022d575b600080fd5b6101f960048036038101906101f49190613885565b6105f1565b60405161020691906138cd565b60405180910390f35b6102176106d3565b6040516102249190613978565b60405180910390f35b610247600480360381019061024291906139d0565b610765565b6040516102549190613a3e565b60405180910390f35b61027760048036038101906102729190613a85565b6107ab565b005b6102816108c2565b60405161028e9190613ad4565b60405180910390f35b6102b160048036038101906102ac9190613c37565b610a80565b005b6102cd60048036038101906102c89190613c93565b610b40565b005b6102e960048036038101906102e49190613c93565b610ba0565b005b61030560048036038101906103009190613d1c565b610bc0565b005b610321600480360381019061031c9190613d5c565b610d9f565b60405161032e9190613a3e565b60405180910390f35b61033f610dd2565b60405161034c9190613e34565b60405180910390f35b61036f600480360381019061036a91906139d0565b610e2f565b60405161037c9190613a3e565b60405180910390f35b61038d610eb5565b60405161039a9190613ad4565b60405180910390f35b6103bd60048036038101906103b89190613e50565b610ebf565b6040516103ca9190613ad4565b60405180910390f35b6103db610f76565b005b6103e5610f8a565b6040516103f29190613a3e565b60405180910390f35b610403610fb4565b005b61041f600480360381019061041a9190613e50565b611101565b60405161042c9190613e9c565b60405180910390f35b61043d611124565b60405161044a9190613978565b60405180910390f35b61046d600480360381019061046891906139d0565b6111b6565b60405161047a9190613978565b60405180910390f35b61049d60048036038101906104989190613ee3565b611266565b005b6104b960048036038101906104b491906139d0565b61127c565b6040516104c69190613a3e565b60405180910390f35b6104e960048036038101906104e491906139d0565b6112af565b6040516104f69190613f9a565b60405180910390f35b6105196004803603810190610514919061406a565b61137b565b005b6105236113dd565b6040516105309190613ad4565b60405180910390f35b610553600480360381019061054e91906139d0565b6113e3565b6040516105609190613978565b60405180910390f35b6105716114f5565b60405161057e91906140fc565b60405180910390f35b6105a1600480360381019061059c9190614117565b61171c565b6040516105ae91906138cd565b60405180910390f35b6105bf6117b0565b6040516105cc91906138cd565b60405180910390f35b6105ef60048036038101906105ea9190613e50565b6117c7565b005b60007f80ac58cd000000000000000000000000000000000000000000000000000000007bffffffffffffffffffffffffffffffffffffffffffffffffffffffff1916827bffffffffffffffffffffffffffffffffffffffffffffffffffffffff191614806106bc57507f5b5e139f000000000000000000000000000000000000000000000000000000007bffffffffffffffffffffffffffffffffffffffffffffffffffffffff1916827bffffffffffffffffffffffffffffffffffffffffffffffffffffffff1916145b806106cc57506106cb8261184a565b5b9050919050565b6060600080546106e290614186565b80601f016020809104026020016040519081016040528092919081815260200182805461070e90614186565b801561075b5780601f106107305761010080835404028352916020019161075b565b820191906000526020600020905b81548152906001019060200180831161073e57829003601f168201915b5050505050905090565b6000610770826118b4565b6004600083815260200190815260200160002060009054906101000a900473ffffffffffffffffffffffffffffffffffffffff169050919050565b60006107b682610e2f565b90508073ffffffffffffffffffffffffffffffffffffffff168373ffffffffffffffffffffffffffffffffffffffff1603610826576040517f08c379a000000000000000000000000000000000000000000000000000000000815260040161081d90614229565b60405180910390fd5b8073ffffffffffffffffffffffffffffffffffffffff166108456118ff565b73ffffffffffffffffffffffffffffffffffffffff16148061087457506108738161086e6118ff565b61171c565b5b6108b3576040517f08c379a00000000000000000000000000000000000000000000000000000000081526004016108aa906142bb565b60405180910390fd5b6108bd8383611907565b505050565b600080601760003373ffffffffffffffffffffffffffffffffffffffff1673ffffffffffffffffffffffffffffffffffffffff16815260200190815260200160002060009054906101000a900463ffffffff1690507f000000000000000000000000000000000000000000000000000000000000000073ffffffffffffffffffffffffffffffffffffffff16635d3b1d30600e547f00000000000000000000000000000000000000000000000000000000000000006003600f60009054906101000a900463ffffffff16866040518663ffffffff1660e01b81526004016109ad95949392919061431b565b6020604051808303816000875af11580156109cc573d6000803e3d6000fd5b505050506040513d601f19601f820116820180604052508101906109f09190614383565b9150336019600084815260200190815260200160002060006101000a81548173ffffffffffffffffffffffffffffffffffffffff021916908373ffffffffffffffffffffffffffffffffffffffff160217905550817ff873236e6cc0ecc5be1a9a35c95ee5b8d1ac4cc7bfef0cc5060391d6cc98e26b33604051610a749190613a3e565b60405180910390a25090565b7f000000000000000000000000000000000000000000000000000000000000000073ffffffffffffffffffffffffffffffffffffffff163373ffffffffffffffffffffffffffffffffffffffff1614610b3257337f00000000000000000000000000000000000000000000000000000000000000006040517f1cf993f4000000000000000000000000000000000000000000000000000000008152600401610b299291906143b0565b60405180910390fd5b610b3c82826119c0565b5050565b610b51610b4b6118ff565b82611b79565b610b90576040517f08c379a0000000000000000000000000000000000000000000000000000000008152600401610b879061444b565b60405180910390fd5b610b9b838383611c0e565b505050565b610bbb8383836040518060200160405280600081525061137b565b505050565b81600d600082815260200190815260200160002060009054906101000a900473ffffffffffffffffffffffffffffffffffffffff1673ffffffffffffffffffffffffffffffffffffffff163373ffffffffffffffffffffffffffffffffffffffff1614610c62576040517f08c379a0000000000000000000000000000000000000000000000000000000008152600401610c59906144dd565b60405180910390fd5b600d600082815260200190815260200160002060006101000a81549073ffffffffffffffffffffffffffffffffffffffff0219169055807f7cc135e0cebb02c3480ae5d74d377283180a2601f8f644edf7987b009316c63a60405160405180910390a2827fcf7377622719718dd9b6dea1e0c01e882175ec209963aeb3336c7178280bc4e883604051610cf59190613ad4565b60405180910390a260006018600085815260200190815260200160002060009054906101000a900473ffffffffffffffffffffffffffffffffffffffff169050600083905080601760008473ffffffffffffffffffffffffffffffffffffffff1673ffffffffffffffffffffffffffffffffffffffff16815260200190815260200160002060006101000a81548163ffffffff021916908363ffffffff1602179055505050505050565b60186020528060005260406000206000915054906101000a900473ffffffffffffffffffffffffffffffffffffffff1681565b610dda61376f565b604051806101400160405280600a815260200160148152602001601e81526020016028815260200160328152602001603781526020016046815260200160508152602001605a81526020016064815250905090565b600080610e3b83611f07565b9050600073ffffffffffffffffffffffffffffffffffffffff168173ffffffffffffffffffffffffffffffffffffffff1603610eac576040517f08c379a0000000000000000000000000000000000000000000000000000000008152600401610ea390614549565b60405180910390fd5b80915050919050565b6000601054905090565b60008073ffffffffffffffffffffffffffffffffffffffff168273ffffffffffffffffffffffffffffffffffffffff1603610f2f576040517f08c379a0000000000000000000000000000000000000000000000000000000008152600401610f26906145db565b60405180910390fd5b600360008373ffffffffffffffffffffffffffffffffffffffff1673ffffffffffffffffffffffffffffffffffffffff168152602001908152602001600020549050919050565b610f7e611f44565b610f886000611fc2565b565b6000600760009054906101000a900473ffffffffffffffffffffffffffffffffffffffff16905090565b610fbc611f44565b6000610fc6612088565b90508073ffffffffffffffffffffffffffffffffffffffff1663a9059cbb338373ffffffffffffffffffffffffffffffffffffffff166370a08231306040518263ffffffff1660e01b815260040161101e9190613a3e565b602060405180830381865afa15801561103b573d6000803e3d6000fd5b505050506040513d601f19601f8201168201806040525081019061105f9190614383565b6040518363ffffffff1660e01b815260040161107c9291906145fb565b6020604051808303816000875af115801561109b573d6000803e3d6000fd5b505050506040513d601f19601f820116820180604052508101906110bf9190614639565b6110fe576040517f08c379a00000000000000000000000000000000000000000000000000000000081526004016110f5906146b2565b60405180910390fd5b50565b60176020528060005260406000206000915054906101000a900463ffffffff1681565b60606001805461113390614186565b80601f016020809104026020016040519081016040528092919081815260200182805461115f90614186565b80156111ac5780601f10611181576101008083540402835291602001916111ac565b820191906000526020600020905b81548152906001019060200180831161118f57829003601f168201915b5050505050905090565b6060601282815481106111cc576111cb6146d2565b5b9060005260206000200180546111e190614186565b80601f016020809104026020016040519081016040528092919081815260200182805461120d90614186565b801561125a5780601f1061122f5761010080835404028352916020019161125a565b820191906000526020600020905b81548152906001019060200180831161123d57829003601f168201915b50505050509050919050565b6112786112716118ff565b83836120b2565b5050565b60196020528060005260406000206000915054906101000a900473ffffffffffffffffffffffffffffffffffffffff1681565b6000806000905060006112c0610dd2565b905060005b600a811015611343578285101580156112f457508181600a81106112ec576112eb6146d2565b5b602002015185105b156113165780600981111561130c5761130b613f23565b5b9350505050611376565b8181600a8110611329576113286146d2565b5b60200201519250808061133b90614730565b9150506112c5565b506040517f0655dc2500000000000000000000000000000000000000000000000000000000815260040160405180910390fd5b919050565b61138c6113866118ff565b83611b79565b6113cb576040517f08c379a00000000000000000000000000000000000000000000000000000000081526004016113c29061444b565b60405180910390fd5b6113d78484848461221e565b50505050565b60145481565b60606113ee826118b4565b600060066000848152602001908152602001600020805461140e90614186565b80601f016020809104026020016040519081016040528092919081815260200182805461143a90614186565b80156114875780601f1061145c57610100808354040283529160200191611487565b820191906000526020600020905b81548152906001019060200180831161146a57829003601f168201915b50505050509050600061149861227a565b905060008151036114ad5781925050506114f0565b6000825111156114e25780826040516020016114ca9291906147b4565b604051602081830303815290604052925050506114f0565b6114eb84612291565b925050505b919050565b60008061150c60155430634357855e60e01b6122f9565b905060003373ffffffffffffffffffffffffffffffffffffffff169050600061153682601461232a565b90506000819050600081604051602001611550919061484a565b60405160208183030381529060405290506115ab6040518060400160405280600381526020017f676574000000000000000000000000000000000000000000000000000000000081525082876125669092919063ffffffff16565b61162a6040518060400160405280600481526020017f70617468000000000000000000000000000000000000000000000000000000008152506040518060400160405280600f81526020017f6d6573736167652c63616e4d696e740000000000000000000000000000000000815250876125669092919063ffffffff16565b60006001905061167a6040518060400160405280600581526020017f74696d657300000000000000000000000000000000000000000000000000000081525082886125999092919063ffffffff16565b7fb0436a691018ae46c51951a73ebe0c216e0f42e333fa53ca4af75c3e9b43876a82336040516116ab92919061486c565b60405180910390a16116bf866016546125cc565b9650336018600089815260200190815260200160002060006101000a81548173ffffffffffffffffffffffffffffffffffffffff021916908373ffffffffffffffffffffffffffffffffffffffff16021790555050505050505090565b6000600560008473ffffffffffffffffffffffffffffffffffffffff1673ffffffffffffffffffffffffffffffffffffffff16815260200190815260200160002060008373ffffffffffffffffffffffffffffffffffffffff1673ffffffffffffffffffffffffffffffffffffffff16815260200190815260200160002060009054906101000a900460ff16905092915050565b6000601360009054906101000a900460ff16905090565b6117cf611f44565b600073ffffffffffffffffffffffffffffffffffffffff168173ffffffffffffffffffffffffffffffffffffffff160361183e576040517f08c379a00000000000000000000000000000000000000000000000000000000081526004016118359061490e565b60405180910390fd5b61184781611fc2565b50565b60007f01ffc9a7000000000000000000000000000000000000000000000000000000007bffffffffffffffffffffffffffffffffffffffffffffffffffffffff1916827bffffffffffffffffffffffffffffffffffffffffffffffffffffffff1916149050919050565b6118bd81612603565b6118fc576040517f08c379a00000000000000000000000000000000000000000000000000000000081526004016118f390614549565b60405180910390fd5b50565b600033905090565b816004600083815260200190815260200160002060006101000a81548173ffffffffffffffffffffffffffffffffffffffff021916908373ffffffffffffffffffffffffffffffffffffffff160217905550808273ffffffffffffffffffffffffffffffffffffffff1661197a83610e2f565b73ffffffffffffffffffffffffffffffffffffffff167f8c5be1e5ebec7d5bd14f71427d1e84f3dd0314c0f7b2291e5b200ac8c7c3b92560405160405180910390a45050565b60006019600084815260200190815260200160002060009054906101000a900473ffffffffffffffffffffffffffffffffffffffff16905060005b8251811015611b7357600060105490506001601054611a1a919061492e565b60108190555060006064858481518110611a3757611a366146d2565b5b6020026020010151611a499190614991565b90506000611a56826112af565b9050611a628584612644565b611b24836012836009811115611a7b57611a7a613f23565b5b81548110611a8c57611a8b6146d2565b5b906000526020600020018054611aa190614186565b80601f0160208091040260200160405190810160405280929190818152602001828054611acd90614186565b8015611b1a5780601f10611aef57610100808354040283529160200191611b1a565b820191906000526020600020905b815481529060010190602001808311611afd57829003601f168201915b5050505050612662565b7f8a269f26b688e110e9cbd887d163dab35cae678fa353a0292de532c0cac1ecdc8186604051611b559291906149c2565b60405180910390a15050508080611b6b90614730565b9150506119fb565b50505050565b600080611b8583610e2f565b90508073ffffffffffffffffffffffffffffffffffffffff168473ffffffffffffffffffffffffffffffffffffffff161480611bc75750611bc6818561171c565b5b80611c0557508373ffffffffffffffffffffffffffffffffffffffff16611bed84610765565b73ffffffffffffffffffffffffffffffffffffffff16145b91505092915050565b8273ffffffffffffffffffffffffffffffffffffffff16611c2e82610e2f565b73ffffffffffffffffffffffffffffffffffffffff1614611c84576040517f08c379a0000000000000000000000000000000000000000000000000000000008152600401611c7b90614a5d565b60405180910390fd5b600073ffffffffffffffffffffffffffffffffffffffff168273ffffffffffffffffffffffffffffffffffffffff1603611cf3576040517f08c379a0000000000000000000000000000000000000000000000000000000008152600401611cea90614aef565b60405180910390fd5b611d0083838360016126cf565b8273ffffffffffffffffffffffffffffffffffffffff16611d2082610e2f565b73ffffffffffffffffffffffffffffffffffffffff1614611d76576040517f08c379a0000000000000000000000000000000000000000000000000000000008152600401611d6d90614a5d565b60405180910390fd5b6004600082815260200190815260200160002060006101000a81549073ffffffffffffffffffffffffffffffffffffffff02191690556001600360008573ffffffffffffffffffffffffffffffffffffffff1673ffffffffffffffffffffffffffffffffffffffff168152602001908152602001600020600082825403925050819055506001600360008473ffffffffffffffffffffffffffffffffffffffff1673ffffffffffffffffffffffffffffffffffffffff16815260200190815260200160002060008282540192505081905550816002600083815260200190815260200160002060006101000a81548173ffffffffffffffffffffffffffffffffffffffff021916908373ffffffffffffffffffffffffffffffffffffffff160217905550808273ffffffffffffffffffffffffffffffffffffffff168473ffffffffffffffffffffffffffffffffffffffff167fddf252ad1be2c89b69c2b068fc378daa952ba7f163c4a11628f55a4df523b3ef60405160405180910390a4611f0283838360016127f5565b505050565b60006002600083815260200190815260200160002060009054906101000a900473ffffffffffffffffffffffffffffffffffffffff169050919050565b611f4c6118ff565b73ffffffffffffffffffffffffffffffffffffffff16611f6a610f8a565b73ffffffffffffffffffffffffffffffffffffffff1614611fc0576040517f08c379a0000000000000000000000000000000000000000000000000000000008152600401611fb790614b5b565b60405180910390fd5b565b6000600760009054906101000a900473ffffffffffffffffffffffffffffffffffffffff16905081600760006101000a81548173ffffffffffffffffffffffffffffffffffffffff021916908373ffffffffffffffffffffffffffffffffffffffff1602179055508173ffffffffffffffffffffffffffffffffffffffff168173ffffffffffffffffffffffffffffffffffffffff167f8be0079c531659141344cd1fd0a4f28419497f9722a3daafe3b4186f6b6457e060405160405180910390a35050565b6000600a60009054906101000a900473ffffffffffffffffffffffffffffffffffffffff16905090565b8173ffffffffffffffffffffffffffffffffffffffff168373ffffffffffffffffffffffffffffffffffffffff1603612120576040517f08c379a000000000000000000000000000000000000000000000000000000000815260040161211790614bc7565b60405180910390fd5b80600560008573ffffffffffffffffffffffffffffffffffffffff1673ffffffffffffffffffffffffffffffffffffffff16815260200190815260200160002060008473ffffffffffffffffffffffffffffffffffffffff1673ffffffffffffffffffffffffffffffffffffffff16815260200190815260200160002060006101000a81548160ff0219169083151502179055508173ffffffffffffffffffffffffffffffffffffffff168373ffffffffffffffffffffffffffffffffffffffff167f17307eab39ab6107e8899845ad3d59bd9653f200f220920489ca2b5937696c318360405161221191906138cd565b60405180910390a3505050565b612229848484611c0e565b612235848484846127fb565b612274576040517f08c379a000000000000000000000000000000000000000000000000000000000815260040161226b90614c59565b60405180910390fd5b50505050565b606060405180602001604052806000815250905090565b606061229c826118b4565b60006122a661227a565b905060008151116122c657604051806020016040528060008152506122f1565b806122d084612982565b6040516020016122e19291906147b4565b6040516020818303038152906040525b915050919050565b612301613792565b612309613792565b61232085858584612a50909392919063ffffffff16565b9150509392505050565b60606000600283600261233d9190614c79565b612347919061492e565b67ffffffffffffffff8111156123605761235f613af4565b5b6040519080825280601f01601f1916602001820160405280156123925781602001600182028036833780820191505090505b5090507f3000000000000000000000000000000000000000000000000000000000000000816000815181106123ca576123c96146d2565b5b60200101907effffffffffffffffffffffffffffffffffffffffffffffffffffffffffffff1916908160001a9053507f78000000000000000000000000000000000000000000000000000000000000008160018151811061242e5761242d6146d2565b5b60200101907effffffffffffffffffffffffffffffffffffffffffffffffffffffffffffff1916908160001a9053506000600184600261246e9190614c79565b612478919061492e565b90505b6001811115612518577f3031323334353637383961626364656600000000000000000000000000000000600f8616601081106124ba576124b96146d2565b5b1a60f81b8282815181106124d1576124d06146d2565b5b60200101907effffffffffffffffffffffffffffffffffffffffffffffffffffffffffffff1916908160001a905350600485901c94508061251190614cbb565b905061247b565b506000841461255c576040517f08c379a000000000000000000000000000000000000000000000000000000000815260040161255390614d30565b60405180910390fd5b8091505092915050565b61257d828460800151612b0090919063ffffffff16565b612594818460800151612b0090919063ffffffff16565b505050565b6125b0828460800151612b0090919063ffffffff16565b6125c7818460800151612b2590919063ffffffff16565b505050565b60006125fb600b60009054906101000a900473ffffffffffffffffffffffffffffffffffffffff168484612bd2565b905092915050565b60008073ffffffffffffffffffffffffffffffffffffffff1661262583611f07565b73ffffffffffffffffffffffffffffffffffffffff1614159050919050565b61265e828260405180602001604052806000815250612c9e565b5050565b61266b82612603565b6126aa576040517f08c379a00000000000000000000000000000000000000000000000000000000081526004016126a190614dc2565b60405180910390fd5b806006600084815260200190815260200160002090816126ca9190614f8e565b505050565b60018111156127ef57600073ffffffffffffffffffffffffffffffffffffffff168473ffffffffffffffffffffffffffffffffffffffff16146127635780600360008673ffffffffffffffffffffffffffffffffffffffff1673ffffffffffffffffffffffffffffffffffffffff168152602001908152602001600020600082825461275b9190615060565b925050819055505b600073ffffffffffffffffffffffffffffffffffffffff168373ffffffffffffffffffffffffffffffffffffffff16146127ee5780600360008573ffffffffffffffffffffffffffffffffffffffff1673ffffffffffffffffffffffffffffffffffffffff16815260200190815260200160002060008282546127e6919061492e565b925050819055505b5b50505050565b50505050565b600061281c8473ffffffffffffffffffffffffffffffffffffffff16612cf9565b15612975578373ffffffffffffffffffffffffffffffffffffffff1663150b7a026128456118ff565b8786866040518563ffffffff1660e01b815260040161286794939291906150e9565b6020604051808303816000875af19250505080156128a357506040513d601f19601f820116820180604052508101906128a0919061514a565b60015b612925573d80600081146128d3576040519150601f19603f3d011682016040523d82523d6000602084013e6128d8565b606091505b50600081510361291d576040517f08c379a000000000000000000000000000000000000000000000000000000000815260040161291490614c59565b60405180910390fd5b805181602001fd5b63150b7a0260e01b7bffffffffffffffffffffffffffffffffffffffffffffffffffffffff1916817bffffffffffffffffffffffffffffffffffffffffffffffffffffffff19161491505061297a565b600190505b949350505050565b60606000600161299184612d1c565b01905060008167ffffffffffffffff8111156129b0576129af613af4565b5b6040519080825280601f01601f1916602001820160405280156129e25781602001600182028036833780820191505090505b509050600082602001820190505b600115612a45578080600190039150507f3031323334353637383961626364656600000000000000000000000000000000600a86061a8153600a8581612a3957612a38614962565b5b049450600085036129f0575b819350505050919050565b612a58613792565b612a688560800151610100612e6f565b508385600001818152505082856020019073ffffffffffffffffffffffffffffffffffffffff16908173ffffffffffffffffffffffffffffffffffffffff16815250508185604001907bffffffffffffffffffffffffffffffffffffffffffffffffffffffff191690817bffffffffffffffffffffffffffffffffffffffffffffffffffffffff191681525050849050949350505050565b612b0d8260038351612ed9565b612b20818361305e90919063ffffffff16565b505050565b7fffffffffffffffffffffffffffffffffffffffffffffffff0000000000000000811215612b5c57612b578282613080565b612bce565b67ffffffffffffffff811315612b7b57612b7682826130f7565b612bcd565b60008112612b9457612b8f82600083612ed9565b612bcc565b612bcb826001837fffffffffffffffffffffffffffffffffffffffffffffffffffffffffffffffff612bc69190615181565b612ed9565b5b5b5b5050565b600080600c549050600181612be7919061492e565b600c819055506000634042994660e01b60008087600001513089604001518760018c6080015160000151604051602401612c289897969594939291906151d3565b604051602081830303815290604052907bffffffffffffffffffffffffffffffffffffffffffffffffffffffff19166020820180517bffffffffffffffffffffffffffffffffffffffffffffffffffffffff83818316178352505050509050612c9386838684613143565b925050509392505050565b612ca883836132d8565b612cb560008484846127fb565b612cf4576040517f08c379a0000000000000000000000000000000000000000000000000000000008152600401612ceb90614c59565b60405180910390fd5b505050565b6000808273ffffffffffffffffffffffffffffffffffffffff163b119050919050565b600080600090507a184f03e93ff9f4daa797ed6e38ed64bf6a1f0100000000000000008310612d7a577a184f03e93ff9f4daa797ed6e38ed64bf6a1f0100000000000000008381612d7057612d6f614962565b5b0492506040810190505b6d04ee2d6d415b85acef81000000008310612db7576d04ee2d6d415b85acef81000000008381612dad57612dac614962565b5b0492506020810190505b662386f26fc100008310612de657662386f26fc100008381612ddc57612ddb614962565b5b0492506010810190505b6305f5e1008310612e0f576305f5e1008381612e0557612e04614962565b5b0492506008810190505b6127108310612e34576127108381612e2a57612e29614962565b5b0492506004810190505b60648310612e575760648381612e4d57612e4c614962565b5b0492506002810190505b600a8310612e66576001810190505b80915050919050565b612e776137ff565b6000602083612e869190614991565b14612eb257602082612e989190614991565b6020612ea49190615060565b82612eaf919061492e565b91505b81836020018181525050604051808452600081528281016020016040525082905092915050565b60178167ffffffffffffffff1611612f1057612f0a8160058460ff16901b60ff1617846134f590919063ffffffff16565b50613059565b60ff8167ffffffffffffffff1611612f6657612f3f601860058460ff16901b17846134f590919063ffffffff16565b50612f608167ffffffffffffffff166001856135159092919063ffffffff16565b50613058565b61ffff8167ffffffffffffffff1611612fbd57612f96601960058460ff16901b17846134f590919063ffffffff16565b50612fb78167ffffffffffffffff166002856135159092919063ffffffff16565b50613057565b63ffffffff8167ffffffffffffffff161161301657612fef601a60058460ff16901b17846134f590919063ffffffff16565b506130108167ffffffffffffffff166004856135159092919063ffffffff16565b50613056565b613033601b60058460ff16901b17846134f590919063ffffffff16565b506130548167ffffffffffffffff166008856135159092919063ffffffff16565b505b5b5b5b505050565b6130666137ff565b61307883846000015151848551613537565b905092915050565b61309e60036005600660ff16901b17836134f590919063ffffffff16565b506130f382827fffffffffffffffffffffffffffffffffffffffffffffffffffffffffffffffff6130cf9190615181565b6040516020016130df9190613ad4565b604051602081830303815290604052613626565b5050565b61311560026005600660ff16901b17836134f590919063ffffffff16565b5061313f828260405160200161312b9190613ad4565b604051602081830303815290604052613626565b5050565b60003084604051602001613158929190615307565b60405160208183030381529060405280519060200120905084600d600083815260200190815260200160002060006101000a81548173ffffffffffffffffffffffffffffffffffffffff021916908373ffffffffffffffffffffffffffffffffffffffff160217905550807fb5e6e01e79f91267dc17b4e6314d5d4d03593d2ceee0fbb452b750bd70ea5af960405160405180910390a2600a60009054906101000a900473ffffffffffffffffffffffffffffffffffffffff1673ffffffffffffffffffffffffffffffffffffffff16634000aea08685856040518463ffffffff1660e01b815260040161324e93929190615333565b6020604051808303816000875af115801561326d573d6000803e3d6000fd5b505050506040513d601f19601f820116820180604052508101906132919190614639565b6132d0576040517f08c379a00000000000000000000000000000000000000000000000000000000081526004016132c7906153e3565b60405180910390fd5b949350505050565b600073ffffffffffffffffffffffffffffffffffffffff168273ffffffffffffffffffffffffffffffffffffffff1603613347576040517f08c379a000000000000000000000000000000000000000000000000000000000815260040161333e9061544f565b60405180910390fd5b61335081612603565b15613390576040517f08c379a0000000000000000000000000000000000000000000000000000000008152600401613387906154bb565b60405180910390fd5b61339e6000838360016126cf565b6133a781612603565b156133e7576040517f08c379a00000000000000000000000000000000000000000000000000000000081526004016133de906154bb565b60405180910390fd5b6001600360008473ffffffffffffffffffffffffffffffffffffffff1673ffffffffffffffffffffffffffffffffffffffff16815260200190815260200160002060008282540192505081905550816002600083815260200190815260200160002060006101000a81548173ffffffffffffffffffffffffffffffffffffffff021916908373ffffffffffffffffffffffffffffffffffffffff160217905550808273ffffffffffffffffffffffffffffffffffffffff16600073ffffffffffffffffffffffffffffffffffffffff167fddf252ad1be2c89b69c2b068fc378daa952ba7f163c4a11628f55a4df523b3ef60405160405180910390a46134f16000838360016127f5565b5050565b6134fd6137ff565b61350d838460000151518461364b565b905092915050565b61351d6137ff565b61352e8485600001515185856136a1565b90509392505050565b61353f6137ff565b825182111561354d57600080fd5b8460200151828561355e919061492e565b1115613593576135928560026135838860200151888761357e919061492e565b61372f565b61358d9190614c79565b61374b565b5b6000808651805187602083010193508088870111156135b25787860182525b60208701925050505b602084106135f957805182526020826135d4919061492e565b91506020816135e3919061492e565b90506020846135f29190615060565b93506135bb565b60006001856020036101000a03905080198251168184511681811785525050508692505050949350505050565b6136338260028351612ed9565b613646818361305e90919063ffffffff16565b505050565b6136536137ff565b836020015183106136795761367884600286602001516136739190614c79565b61374b565b5b83518051602085830101848153818603613694576001820183525b5050508390509392505050565b6136a96137ff565b846020015184836136ba919061492e565b11156136e2576136e185600286856136d2919061492e565b6136dc9190614c79565b61374b565b5b60006001836101006136f4919061560e565b6136fe9190615060565b905085518386820101858319825116178152815185880111156137215784870182525b505085915050949350505050565b60008183111561374157829050613745565b8190505b92915050565b60008260000151905061375e8383612e6f565b50613769838261305e565b50505050565b604051806101400160405280600a90602082028036833780820191505090505090565b6040518060a0016040528060008019168152602001600073ffffffffffffffffffffffffffffffffffffffff16815260200160007bffffffffffffffffffffffffffffffffffffffffffffffffffffffff19168152602001600081526020016137f96137ff565b81525090565b604051806040016040528060608152602001600081525090565b6000604051905090565b600080fd5b600080fd5b60007fffffffff0000000000000000000000000000000000000000000000000000000082169050919050565b6138628161382d565b811461386d57600080fd5b50565b60008135905061387f81613859565b92915050565b60006020828403121561389b5761389a613823565b5b60006138a984828501613870565b91505092915050565b60008115159050919050565b6138c7816138b2565b82525050565b60006020820190506138e260008301846138be565b92915050565b600081519050919050565b600082825260208201905092915050565b60005b83811015613922578082015181840152602081019050613907565b60008484015250505050565b6000601f19601f8301169050919050565b600061394a826138e8565b61395481856138f3565b9350613964818560208601613904565b61396d8161392e565b840191505092915050565b60006020820190508181036000830152613992818461393f565b905092915050565b6000819050919050565b6139ad8161399a565b81146139b857600080fd5b50565b6000813590506139ca816139a4565b92915050565b6000602082840312156139e6576139e5613823565b5b60006139f4848285016139bb565b91505092915050565b600073ffffffffffffffffffffffffffffffffffffffff82169050919050565b6000613a28826139fd565b9050919050565b613a3881613a1d565b82525050565b6000602082019050613a536000830184613a2f565b92915050565b613a6281613a1d565b8114613a6d57600080fd5b50565b600081359050613a7f81613a59565b92915050565b60008060408385031215613a9c57613a9b613823565b5b6000613aaa85828601613a70565b9250506020613abb858286016139bb565b9150509250929050565b613ace8161399a565b82525050565b6000602082019050613ae96000830184613ac5565b92915050565b600080fd5b7f4e487b7100000000000000000000000000000000000000000000000000000000600052604160045260246000fd5b613b2c8261392e565b810181811067ffffffffffffffff82111715613b4b57613b4a613af4565b5b80604052505050565b6000613b5e613819565b9050613b6a8282613b23565b919050565b600067ffffffffffffffff821115613b8a57613b89613af4565b5b602082029050602081019050919050565b600080fd5b6000613bb3613bae84613b6f565b613b54565b90508083825260208201905060208402830185811115613bd657613bd5613b9b565b5b835b81811015613bff5780613beb88826139bb565b845260208401935050602081019050613bd8565b5050509392505050565b600082601f830112613c1e57613c1d613aef565b5b8135613c2e848260208601613ba0565b91505092915050565b60008060408385031215613c4e57613c4d613823565b5b6000613c5c858286016139bb565b925050602083013567ffffffffffffffff811115613c7d57613c7c613828565b5b613c8985828601613c09565b9150509250929050565b600080600060608486031215613cac57613cab613823565b5b6000613cba86828701613a70565b9350506020613ccb86828701613a70565b9250506040613cdc868287016139bb565b9150509250925092565b6000819050919050565b613cf981613ce6565b8114613d0457600080fd5b50565b600081359050613d1681613cf0565b92915050565b60008060408385031215613d3357613d32613823565b5b6000613d4185828601613d07565b9250506020613d52858286016139bb565b9150509250929050565b600060208284031215613d7257613d71613823565b5b6000613d8084828501613d07565b91505092915050565b6000600a9050919050565b600081905092915050565b6000819050919050565b613db28161399a565b82525050565b6000613dc48383613da9565b60208301905092915050565b6000602082019050919050565b613de681613d89565b613df08184613d94565b9250613dfb82613d9f565b8060005b83811015613e2c578151613e138782613db8565b9650613e1e83613dd0565b925050600181019050613dff565b505050505050565b600061014082019050613e4a6000830184613ddd565b92915050565b600060208284031215613e6657613e65613823565b5b6000613e7484828501613a70565b91505092915050565b600063ffffffff82169050919050565b613e9681613e7d565b82525050565b6000602082019050613eb16000830184613e8d565b92915050565b613ec0816138b2565b8114613ecb57600080fd5b50565b600081359050613edd81613eb7565b92915050565b60008060408385031215613efa57613ef9613823565b5b6000613f0885828601613a70565b9250506020613f1985828601613ece565b9150509250929050565b7f4e487b7100000000000000000000000000000000000000000000000000000000600052602160045260246000fd5b600a8110613f6357613f62613f23565b5b50565b6000819050613f7482613f52565b919050565b6000613f8482613f66565b9050919050565b613f9481613f79565b82525050565b6000602082019050613faf6000830184613f8b565b92915050565b600080fd5b600067ffffffffffffffff821115613fd557613fd4613af4565b5b613fde8261392e565b9050602081019050919050565b82818337600083830152505050565b600061400d61400884613fba565b613b54565b90508281526020810184848401111561402957614028613fb5565b5b614034848285613feb565b509392505050565b600082601f83011261405157614050613aef565b5b8135614061848260208601613ffa565b91505092915050565b6000806000806080858703121561408457614083613823565b5b600061409287828801613a70565b94505060206140a387828801613a70565b93505060406140b4878288016139bb565b925050606085013567ffffffffffffffff8111156140d5576140d4613828565b5b6140e18782880161403c565b91505092959194509250565b6140f681613ce6565b82525050565b600060208201905061411160008301846140ed565b92915050565b6000806040838503121561412e5761412d613823565b5b600061413c85828601613a70565b925050602061414d85828601613a70565b9150509250929050565b7f4e487b7100000000000000000000000000000000000000000000000000000000600052602260045260246000fd5b6000600282049050600182168061419e57607f821691505b6020821081036141b1576141b0614157565b5b50919050565b7f4552433732313a20617070726f76616c20746f2063757272656e74206f776e6560008201527f7200000000000000000000000000000000000000000000000000000000000000602082015250565b60006142136021836138f3565b915061421e826141b7565b604082019050919050565b6000602082019050818103600083015261424281614206565b9050919050565b7f4552433732313a20617070726f76652063616c6c6572206973206e6f7420746f60008201527f6b656e206f776e6572206f7220617070726f76656420666f7220616c6c000000602082015250565b60006142a5603d836138f3565b91506142b082614249565b604082019050919050565b600060208201905081810360008301526142d481614298565b9050919050565b600067ffffffffffffffff82169050919050565b6142f8816142db565b82525050565b600061ffff82169050919050565b614315816142fe565b82525050565b600060a08201905061433060008301886140ed565b61433d60208301876142ef565b61434a604083018661430c565b6143576060830185613e8d565b6143646080830184613e8d565b9695505050505050565b60008151905061437d816139a4565b92915050565b60006020828403121561439957614398613823565b5b60006143a78482850161436e565b91505092915050565b60006040820190506143c56000830185613a2f565b6143d26020830184613a2f565b9392505050565b7f4552433732313a2063616c6c6572206973206e6f7420746f6b656e206f776e6560008201527f72206f7220617070726f76656400000000000000000000000000000000000000602082015250565b6000614435602d836138f3565b9150614440826143d9565b604082019050919050565b6000602082019050818103600083015261446481614428565b9050919050565b7f536f75726365206d75737420626520746865206f7261636c65206f662074686560008201527f2072657175657374000000000000000000000000000000000000000000000000602082015250565b60006144c76028836138f3565b91506144d28261446b565b604082019050919050565b600060208201905081810360008301526144f6816144ba565b9050919050565b7f4552433732313a20696e76616c696420746f6b656e2049440000000000000000600082015250565b60006145336018836138f3565b915061453e826144fd565b602082019050919050565b6000602082019050818103600083015261456281614526565b9050919050565b7f4552433732313a2061646472657373207a65726f206973206e6f74206120766160008201527f6c6964206f776e65720000000000000000000000000000000000000000000000602082015250565b60006145c56029836138f3565b91506145d082614569565b604082019050919050565b600060208201905081810360008301526145f4816145b8565b9050919050565b60006040820190506146106000830185613a2f565b61461d6020830184613ac5565b9392505050565b60008151905061463381613eb7565b92915050565b60006020828403121561464f5761464e613823565b5b600061465d84828501614624565b91505092915050565b7f556e61626c6520746f207472616e736665720000000000000000000000000000600082015250565b600061469c6012836138f3565b91506146a782614666565b602082019050919050565b600060208201905081810360008301526146cb8161468f565b9050919050565b7f4e487b7100000000000000000000000000000000000000000000000000000000600052603260045260246000fd5b7f4e487b7100000000000000000000000000000000000000000000000000000000600052601160045260246000fd5b600061473b8261399a565b91507fffffffffffffffffffffffffffffffffffffffffffffffffffffffffffffffff820361476d5761476c614701565b5b600182019050919050565b600081905092915050565b600061478e826138e8565b6147988185614778565b93506147a8818560208601613904565b80840191505092915050565b60006147c08285614783565b91506147cc8284614783565b91508190509392505050565b7f68747470733a2f2f61702d6a6f762e636f6c79736575732e6465762f6368616960008201527f6e2f63616e2d6d696e742d616d6f756e743f0000000000000000000000000000602082015250565b6000614834603283614778565b915061483f826147d8565b603282019050919050565b600061485582614827565b91506148618284614783565b915081905092915050565b60006040820190508181036000830152614886818561393f565b90506148956020830184613a2f565b9392505050565b7f4f776e61626c653a206e6577206f776e657220697320746865207a65726f206160008201527f6464726573730000000000000000000000000000000000000000000000000000602082015250565b60006148f86026836138f3565b91506149038261489c565b604082019050919050565b60006020820190508181036000830152614927816148eb565b9050919050565b60006149398261399a565b91506149448361399a565b925082820190508082111561495c5761495b614701565b5b92915050565b7f4e487b7100000000000000000000000000000000000000000000000000000000600052601260045260246000fd5b600061499c8261399a565b91506149a78361399a565b9250826149b7576149b6614962565b5b828206905092915050565b60006040820190506149d76000830185613f8b565b6149e46020830184613a2f565b9392505050565b7f4552433732313a207472616e736665722066726f6d20696e636f72726563742060008201527f6f776e6572000000000000000000000000000000000000000000000000000000602082015250565b6000614a476025836138f3565b9150614a52826149eb565b604082019050919050565b60006020820190508181036000830152614a7681614a3a565b9050919050565b7f4552433732313a207472616e7366657220746f20746865207a65726f2061646460008201527f7265737300000000000000000000000000000000000000000000000000000000602082015250565b6000614ad96024836138f3565b9150614ae482614a7d565b604082019050919050565b60006020820190508181036000830152614b0881614acc565b9050919050565b7f4f776e61626c653a2063616c6c6572206973206e6f7420746865206f776e6572600082015250565b6000614b456020836138f3565b9150614b5082614b0f565b602082019050919050565b60006020820190508181036000830152614b7481614b38565b9050919050565b7f4552433732313a20617070726f766520746f2063616c6c657200000000000000600082015250565b6000614bb16019836138f3565b9150614bbc82614b7b565b602082019050919050565b60006020820190508181036000830152614be081614ba4565b9050919050565b7f4552433732313a207472616e7366657220746f206e6f6e20455243373231526560008201527f63656976657220696d706c656d656e7465720000000000000000000000000000602082015250565b6000614c436032836138f3565b9150614c4e82614be7565b604082019050919050565b60006020820190508181036000830152614c7281614c36565b9050919050565b6000614c848261399a565b9150614c8f8361399a565b9250828202614c9d8161399a565b91508282048414831517614cb457614cb3614701565b5b5092915050565b6000614cc68261399a565b915060008203614cd957614cd8614701565b5b600182039050919050565b7f537472696e67733a20686578206c656e67746820696e73756666696369656e74600082015250565b6000614d1a6020836138f3565b9150614d2582614ce4565b602082019050919050565b60006020820190508181036000830152614d4981614d0d565b9050919050565b7f45524337323155524953746f726167653a2055524920736574206f66206e6f6e60008201527f6578697374656e7420746f6b656e000000000000000000000000000000000000602082015250565b6000614dac602e836138f3565b9150614db782614d50565b604082019050919050565b60006020820190508181036000830152614ddb81614d9f565b9050919050565b60008190508160005260206000209050919050565b60006020601f8301049050919050565b600082821b905092915050565b600060088302614e447fffffffffffffffffffffffffffffffffffffffffffffffffffffffffffffffff82614e07565b614e4e8683614e07565b95508019841693508086168417925050509392505050565b6000819050919050565b6000614e8b614e86614e818461399a565b614e66565b61399a565b9050919050565b6000819050919050565b614ea583614e70565b614eb9614eb182614e92565b848454614e14565b825550505050565b600090565b614ece614ec1565b614ed9818484614e9c565b505050565b5b81811015614efd57614ef2600082614ec6565b600181019050614edf565b5050565b601f821115614f4257614f1381614de2565b614f1c84614df7565b81016020851015614f2b578190505b614f3f614f3785614df7565b830182614ede565b50505b505050565b600082821c905092915050565b6000614f6560001984600802614f47565b1980831691505092915050565b6000614f7e8383614f54565b9150826002028217905092915050565b614f97826138e8565b67ffffffffffffffff811115614fb057614faf613af4565b5b614fba8254614186565b614fc5828285614f01565b600060209050601f831160018114614ff85760008415614fe6578287015190505b614ff08582614f72565b865550615058565b601f19841661500686614de2565b60005b8281101561502e57848901518255600182019150602085019450602081019050615009565b8683101561504b5784890151615047601f891682614f54565b8355505b6001600288020188555050505b505050505050565b600061506b8261399a565b91506150768361399a565b925082820390508181111561508e5761508d614701565b5b92915050565b600081519050919050565b600082825260208201905092915050565b60006150bb82615094565b6150c5818561509f565b93506150d5818560208601613904565b6150de8161392e565b840191505092915050565b60006080820190506150fe6000830187613a2f565b61510b6020830186613a2f565b6151186040830185613ac5565b818103606083015261512a81846150b0565b905095945050505050565b60008151905061514481613859565b92915050565b6000602082840312156151605761515f613823565b5b600061516e84828501615135565b91505092915050565b6000819050919050565b600061518c82615177565b915061519783615177565b92508282039050818112600084121682821360008512151617156151be576151bd614701565b5b92915050565b6151cd8161382d565b82525050565b6000610100820190506151e9600083018b613a2f565b6151f6602083018a613ac5565b61520360408301896140ed565b6152106060830188613a2f565b61521d60808301876151c4565b61522a60a0830186613ac5565b61523760c0830185613ac5565b81810360e083015261524981846150b0565b90509998505050505050505050565b600061527361526e615269846139fd565b614e66565b6139fd565b9050919050565b600061528582615258565b9050919050565b60006152978261527a565b9050919050565b60008160601b9050919050565b60006152b68261529e565b9050919050565b60006152c8826152ab565b9050919050565b6152e06152db8261528c565b6152bd565b82525050565b6000819050919050565b6153016152fc8261399a565b6152e6565b82525050565b600061531382856152cf565b60148201915061532382846152f0565b6020820191508190509392505050565b60006060820190506153486000830186613a2f565b6153556020830185613ac5565b818103604083015261536781846150b0565b9050949350505050565b7f756e61626c6520746f207472616e73666572416e6443616c6c20746f206f726160008201527f636c650000000000000000000000000000000000000000000000000000000000602082015250565b60006153cd6023836138f3565b91506153d882615371565b604082019050919050565b600060208201905081810360008301526153fc816153c0565b9050919050565b7f4552433732313a206d696e7420746f20746865207a65726f2061646472657373600082015250565b60006154396020836138f3565b915061544482615403565b602082019050919050565b600060208201905081810360008301526154688161542c565b9050919050565b7f4552433732313a20746f6b656e20616c7265616479206d696e74656400000000600082015250565b60006154a5601c836138f3565b91506154b08261546f565b602082019050919050565b600060208201905081810360008301526154d481615498565b9050919050565b60008160011c9050919050565b6000808291508390505b60018511156155325780860481111561550e5761550d614701565b5b600185161561551d5780820291505b808102905061552b856154db565b94506154f2565b94509492505050565b60008261554b5760019050615607565b816155595760009050615607565b816001811461556f5760028114615579576155a8565b6001915050615607565b60ff84111561558b5761558a614701565b5b8360020a9150848211156155a2576155a1614701565b5b50615607565b5060208310610133831016604e8410600b84101617156155dd5782820a9050838111156155d8576155d7614701565b5b615607565b6155ea84848460016154e8565b9250905081840481111561560157615600614701565b5b81810290505b9392505050565b60006156198261399a565b91506156248361399a565b92506156517fffffffffffffffffffffffffffffffffffffffffffffffffffffffffffffffff848461553b565b90509291505056fea26469706673582212206009a34183e88003a1df4bfd076d712bd2026b7ae74021f5c103250bc5bb1b5264736f6c63430008110033",
  "devdoc": {
    "kind": "dev",
    "methods": {
      "approve(address,uint256)": {
        "details": "See {IERC721-approve}."
      },
      "balanceOf(address)": {
        "details": "See {IERC721-balanceOf}."
      },
      "getApproved(uint256)": {
        "details": "See {IERC721-getApproved}."
      },
      "isApprovedForAll(address,address)": {
        "details": "See {IERC721-isApprovedForAll}."
      },
      "name()": {
        "details": "See {IERC721Metadata-name}."
      },
      "owner()": {
        "details": "Returns the address of the current owner."
      },
      "ownerOf(uint256)": {
        "details": "See {IERC721-ownerOf}."
      },
      "renounceOwnership()": {
        "details": "Leaves the contract without owner. It will not be possible to call `onlyOwner` functions anymore. Can only be called by the current owner. NOTE: Renouncing ownership will leave the contract without an owner, thereby removing any functionality that is only available to the owner."
      },
      "safeTransferFrom(address,address,uint256)": {
        "details": "See {IERC721-safeTransferFrom}."
      },
      "safeTransferFrom(address,address,uint256,bytes)": {
        "details": "See {IERC721-safeTransferFrom}."
      },
      "setApprovalForAll(address,bool)": {
        "details": "See {IERC721-setApprovalForAll}."
      },
      "supportsInterface(bytes4)": {
        "details": "See {IERC165-supportsInterface}."
      },
      "symbol()": {
        "details": "See {IERC721Metadata-symbol}."
      },
      "tokenURI(uint256)": {
        "details": "See {IERC721Metadata-tokenURI}."
      },
      "transferFrom(address,address,uint256)": {
        "details": "See {IERC721-transferFrom}."
      },
      "transferOwnership(address)": {
        "details": "Transfers ownership of the contract to a new account (`newOwner`). Can only be called by the current owner."
      }
    },
    "version": 1
  },
  "userdoc": {
    "kind": "user",
    "methods": {},
    "version": 1
  },
  "storageLayout": {
    "storage": [
      {
        "astId": 2666,
        "contract": "contracts/VrfMint.sol:VrfMint",
        "label": "_name",
        "offset": 0,
        "slot": "0",
        "type": "t_string_storage"
      },
      {
        "astId": 2668,
        "contract": "contracts/VrfMint.sol:VrfMint",
        "label": "_symbol",
        "offset": 0,
        "slot": "1",
        "type": "t_string_storage"
      },
      {
        "astId": 2672,
        "contract": "contracts/VrfMint.sol:VrfMint",
        "label": "_owners",
        "offset": 0,
        "slot": "2",
        "type": "t_mapping(t_uint256,t_address)"
      },
      {
        "astId": 2676,
        "contract": "contracts/VrfMint.sol:VrfMint",
        "label": "_balances",
        "offset": 0,
        "slot": "3",
        "type": "t_mapping(t_address,t_uint256)"
      },
      {
        "astId": 2680,
        "contract": "contracts/VrfMint.sol:VrfMint",
        "label": "_tokenApprovals",
        "offset": 0,
        "slot": "4",
        "type": "t_mapping(t_uint256,t_address)"
      },
      {
        "astId": 2686,
        "contract": "contracts/VrfMint.sol:VrfMint",
        "label": "_operatorApprovals",
        "offset": 0,
        "slot": "5",
        "type": "t_mapping(t_address,t_mapping(t_address,t_bool))"
      },
      {
        "astId": 3732,
        "contract": "contracts/VrfMint.sol:VrfMint",
        "label": "_tokenURIs",
        "offset": 0,
        "slot": "6",
        "type": "t_mapping(t_uint256,t_string_storage)"
      },
      {
        "astId": 2535,
        "contract": "contracts/VrfMint.sol:VrfMint",
        "label": "_owner",
        "offset": 0,
        "slot": "7",
        "type": "t_address"
      },
      {
        "astId": 319,
        "contract": "contracts/VrfMint.sol:VrfMint",
        "label": "s_ens",
        "offset": 0,
        "slot": "8",
        "type": "t_contract(ENSInterface)1214"
      },
      {
        "astId": 321,
        "contract": "contracts/VrfMint.sol:VrfMint",
        "label": "s_ensNode",
        "offset": 0,
        "slot": "9",
        "type": "t_bytes32"
      },
      {
        "astId": 324,
        "contract": "contracts/VrfMint.sol:VrfMint",
        "label": "s_link",
        "offset": 0,
        "slot": "10",
        "type": "t_contract(LinkTokenInterface)1309"
      },
      {
        "astId": 327,
        "contract": "contracts/VrfMint.sol:VrfMint",
        "label": "s_oracle",
        "offset": 0,
        "slot": "11",
        "type": "t_contract(OperatorInterface)1389"
      },
      {
        "astId": 330,
        "contract": "contracts/VrfMint.sol:VrfMint",
        "label": "s_requestCount",
        "offset": 0,
        "slot": "12",
        "type": "t_uint256"
      },
      {
        "astId": 334,
        "contract": "contracts/VrfMint.sol:VrfMint",
        "label": "s_pendingRequests",
        "offset": 0,
        "slot": "13",
        "type": "t_mapping(t_bytes32,t_address)"
      },
      {
        "astId": 5339,
        "contract": "contracts/VrfMint.sol:VrfMint",
        "label": "i_gasLane",
        "offset": 0,
        "slot": "14",
        "type": "t_bytes32"
      },
      {
        "astId": 5342,
        "contract": "contracts/VrfMint.sol:VrfMint",
        "label": "i_callbackGasLimit",
        "offset": 0,
        "slot": "15",
        "type": "t_uint32"
      },
      {
        "astId": 5350,
        "contract": "contracts/VrfMint.sol:VrfMint",
        "label": "s_tokenCounter",
        "offset": 0,
        "slot": "16",
        "type": "t_uint256"
      },
      {
        "astId": 5355,
        "contract": "contracts/VrfMint.sol:VrfMint",
        "label": "s_tokenIdToBreed",
        "offset": 0,
        "slot": "17",
        "type": "t_mapping(t_uint256,t_enum(Breed)5331)"
      },
      {
        "astId": 5361,
        "contract": "contracts/VrfMint.sol:VrfMint",
        "label": "s_fishTokenUris",
        "offset": 0,
        "slot": "18",
        "type": "t_array(t_string_storage)dyn_storage"
      },
      {
        "astId": 5363,
        "contract": "contracts/VrfMint.sol:VrfMint",
        "label": "s_initialized",
        "offset": 0,
        "slot": "19",
        "type": "t_bool"
      },
      {
        "astId": 5369,
        "contract": "contracts/VrfMint.sol:VrfMint",
        "label": "volume",
        "offset": 0,
        "slot": "20",
        "type": "t_uint256"
      },
      {
        "astId": 5371,
        "contract": "contracts/VrfMint.sol:VrfMint",
        "label": "jobId",
        "offset": 0,
        "slot": "21",
        "type": "t_bytes32"
      },
      {
        "astId": 5373,
        "contract": "contracts/VrfMint.sol:VrfMint",
        "label": "fee",
        "offset": 0,
        "slot": "22",
        "type": "t_uint256"
      },
      {
        "astId": 5389,
        "contract": "contracts/VrfMint.sol:VrfMint",
        "label": "canMintAmount",
        "offset": 0,
        "slot": "23",
        "type": "t_mapping(t_address,t_uint32)"
      },
      {
        "astId": 5393,
        "contract": "contracts/VrfMint.sol:VrfMint",
        "label": "requestParams",
        "offset": 0,
        "slot": "24",
        "type": "t_mapping(t_bytes32,t_address)"
      },
      {
        "astId": 5397,
        "contract": "contracts/VrfMint.sol:VrfMint",
        "label": "s_requestIdToSender",
        "offset": 0,
        "slot": "25",
        "type": "t_mapping(t_uint256,t_address)"
      }
    ],
    "types": {
      "t_address": {
        "encoding": "inplace",
        "label": "address",
        "numberOfBytes": "20"
      },
      "t_array(t_string_storage)dyn_storage": {
        "base": "t_string_storage",
        "encoding": "dynamic_array",
        "label": "string[]",
        "numberOfBytes": "32"
      },
      "t_bool": {
        "encoding": "inplace",
        "label": "bool",
        "numberOfBytes": "1"
      },
      "t_bytes32": {
        "encoding": "inplace",
        "label": "bytes32",
        "numberOfBytes": "32"
      },
      "t_contract(ENSInterface)1214": {
        "encoding": "inplace",
        "label": "contract ENSInterface",
        "numberOfBytes": "20"
      },
      "t_contract(LinkTokenInterface)1309": {
        "encoding": "inplace",
        "label": "contract LinkTokenInterface",
        "numberOfBytes": "20"
      },
      "t_contract(OperatorInterface)1389": {
        "encoding": "inplace",
        "label": "contract OperatorInterface",
        "numberOfBytes": "20"
      },
      "t_enum(Breed)5331": {
        "encoding": "inplace",
        "label": "enum VrfMint.Breed",
        "numberOfBytes": "1"
      },
      "t_mapping(t_address,t_bool)": {
        "encoding": "mapping",
        "key": "t_address",
        "label": "mapping(address => bool)",
        "numberOfBytes": "32",
        "value": "t_bool"
      },
      "t_mapping(t_address,t_mapping(t_address,t_bool))": {
        "encoding": "mapping",
        "key": "t_address",
        "label": "mapping(address => mapping(address => bool))",
        "numberOfBytes": "32",
        "value": "t_mapping(t_address,t_bool)"
      },
      "t_mapping(t_address,t_uint256)": {
        "encoding": "mapping",
        "key": "t_address",
        "label": "mapping(address => uint256)",
        "numberOfBytes": "32",
        "value": "t_uint256"
      },
      "t_mapping(t_address,t_uint32)": {
        "encoding": "mapping",
        "key": "t_address",
        "label": "mapping(address => uint32)",
        "numberOfBytes": "32",
        "value": "t_uint32"
      },
      "t_mapping(t_bytes32,t_address)": {
        "encoding": "mapping",
        "key": "t_bytes32",
        "label": "mapping(bytes32 => address)",
        "numberOfBytes": "32",
        "value": "t_address"
      },
      "t_mapping(t_uint256,t_address)": {
        "encoding": "mapping",
        "key": "t_uint256",
        "label": "mapping(uint256 => address)",
        "numberOfBytes": "32",
        "value": "t_address"
      },
      "t_mapping(t_uint256,t_enum(Breed)5331)": {
        "encoding": "mapping",
        "key": "t_uint256",
        "label": "mapping(uint256 => enum VrfMint.Breed)",
        "numberOfBytes": "32",
        "value": "t_enum(Breed)5331"
      },
      "t_mapping(t_uint256,t_string_storage)": {
        "encoding": "mapping",
        "key": "t_uint256",
        "label": "mapping(uint256 => string)",
        "numberOfBytes": "32",
        "value": "t_string_storage"
      },
      "t_string_storage": {
        "encoding": "bytes",
        "label": "string",
        "numberOfBytes": "32"
      },
      "t_uint256": {
        "encoding": "inplace",
        "label": "uint256",
        "numberOfBytes": "32"
      },
      "t_uint32": {
        "encoding": "inplace",
        "label": "uint32",
        "numberOfBytes": "4"
      }
    }
  }
}