{
  "address": "0xED87c44B5B77a33AEecc2aA116755002EA28F368",
  "abi": [
    {
      "inputs": [
        {
          "internalType": "address",
          "name": "vrfCoordinatorV2",
          "type": "address"
        },
        {
          "internalType": "uint64",
          "name": "subscriptionId",
          "type": "uint64"
        },
        {
          "internalType": "string[10]",
          "name": "fishTokenUris",
          "type": "string[10]"
        }
      ],
      "stateMutability": "nonpayable",
      "type": "constructor"
    },
    {
      "inputs": [],
      "name": "AlreadyInitialized",
      "type": "error"
    },
    {
      "inputs": [
        {
          "internalType": "address",
          "name": "have",
          "type": "address"
        },
        {
          "internalType": "address",
          "name": "want",
          "type": "address"
        }
      ],
      "name": "OnlyCoordinatorCanFulfill",
      "type": "error"
    },
    {
      "inputs": [],
      "name": "RangeOutOfBounds",
      "type": "error"
    },
    {
      "anonymous": false,
      "inputs": [
        {
          "indexed": true,
          "internalType": "address",
          "name": "owner",
          "type": "address"
        },
        {
          "indexed": true,
          "internalType": "address",
          "name": "approved",
          "type": "address"
        },
        {
          "indexed": true,
          "internalType": "uint256",
          "name": "tokenId",
          "type": "uint256"
        }
      ],
      "name": "Approval",
      "type": "event"
    },
    {
      "anonymous": false,
      "inputs": [
        {
          "indexed": true,
          "internalType": "address",
          "name": "owner",
          "type": "address"
        },
        {
          "indexed": true,
          "internalType": "address",
          "name": "operator",
          "type": "address"
        },
        {
          "indexed": false,
          "internalType": "bool",
          "name": "approved",
          "type": "bool"
        }
      ],
      "name": "ApprovalForAll",
      "type": "event"
    },
    {
      "anonymous": false,
      "inputs": [
        {
          "indexed": true,
          "internalType": "bytes32",
          "name": "id",
          "type": "bytes32"
        }
      ],
      "name": "ChainlinkCancelled",
      "type": "event"
    },
    {
      "anonymous": false,
      "inputs": [
        {
          "indexed": true,
          "internalType": "bytes32",
          "name": "id",
          "type": "bytes32"
        }
      ],
      "name": "ChainlinkFulfilled",
      "type": "event"
    },
    {
      "anonymous": false,
      "inputs": [
        {
          "indexed": true,
          "internalType": "bytes32",
          "name": "id",
          "type": "bytes32"
        }
      ],
      "name": "ChainlinkRequested",
      "type": "event"
    },
    {
      "anonymous": false,
      "inputs": [
        {
          "indexed": false,
          "internalType": "enum VrfMint.Breed",
          "name": "breed",
          "type": "uint8"
        },
        {
          "indexed": false,
          "internalType": "address",
          "name": "minter",
          "type": "address"
        }
      ],
      "name": "NftMinted",
      "type": "event"
    },
    {
      "anonymous": false,
      "inputs": [
        {
          "indexed": true,
          "internalType": "uint256",
          "name": "requestId",
          "type": "uint256"
        },
        {
          "indexed": false,
          "internalType": "address",
          "name": "requester",
          "type": "address"
        }
      ],
      "name": "NftRequested",
      "type": "event"
    },
    {
      "anonymous": false,
      "inputs": [
        {
          "indexed": true,
          "internalType": "address",
          "name": "previousOwner",
          "type": "address"
        },
        {
          "indexed": true,
          "internalType": "address",
          "name": "newOwner",
          "type": "address"
        }
      ],
      "name": "OwnershipTransferred",
      "type": "event"
    },
    {
      "anonymous": false,
      "inputs": [
        {
          "indexed": true,
          "internalType": "bytes32",
          "name": "requestId",
          "type": "bytes32"
        },
        {
          "indexed": false,
          "internalType": "uint256",
          "name": "amount",
          "type": "uint256"
        }
      ],
      "name": "RequestAmount",
      "type": "event"
    },
    {
      "anonymous": false,
      "inputs": [
        {
          "indexed": false,
          "internalType": "string",
          "name": "url",
          "type": "string"
        },
        {
          "indexed": false,
          "internalType": "address",
          "name": "requester",
          "type": "address"
        }
      ],
      "name": "RequestUrl",
      "type": "event"
    },
    {
      "anonymous": false,
      "inputs": [
        {
          "indexed": true,
          "internalType": "address",
          "name": "from",
          "type": "address"
        },
        {
          "indexed": true,
          "internalType": "address",
          "name": "to",
          "type": "address"
        },
        {
          "indexed": true,
          "internalType": "uint256",
          "name": "tokenId",
          "type": "uint256"
        }
      ],
      "name": "Transfer",
      "type": "event"
    },
    {
      "inputs": [],
      "name": "_mint",
      "outputs": [
        {
          "internalType": "uint256",
          "name": "requestId",
          "type": "uint256"
        }
      ],
      "stateMutability": "nonpayable",
      "type": "function"
    },
    {
      "inputs": [
        {
          "internalType": "address",
          "name": "to",
          "type": "address"
        },
        {
          "internalType": "uint256",
          "name": "tokenId",
          "type": "uint256"
        }
      ],
      "name": "approve",
      "outputs": [],
      "stateMutability": "nonpayable",
      "type": "function"
    },
    {
      "inputs": [
        {
          "internalType": "address",
          "name": "owner",
          "type": "address"
        }
      ],
      "name": "balanceOf",
      "outputs": [
        {
          "internalType": "uint256",
          "name": "",
          "type": "uint256"
        }
      ],
      "stateMutability": "view",
      "type": "function"
    },
    {
      "inputs": [
        {
          "internalType": "address",
          "name": "",
          "type": "address"
        }
      ],
      "name": "canMintAmount",
      "outputs": [
        {
          "internalType": "uint32",
          "name": "",
          "type": "uint32"
        }
      ],
      "stateMutability": "view",
      "type": "function"
    },
    {
      "inputs": [
        {
          "internalType": "bytes32",
          "name": "_requestId",
          "type": "bytes32"
        },
        {
          "internalType": "uint256",
          "name": "_volume",
          "type": "uint256"
        }
      ],
      "name": "fulfill",
      "outputs": [],
      "stateMutability": "nonpayable",
      "type": "function"
    },
    {
      "inputs": [
        {
          "internalType": "uint256",
          "name": "tokenId",
          "type": "uint256"
        }
      ],
      "name": "getApproved",
      "outputs": [
        {
          "internalType": "address",
          "name": "",
          "type": "address"
        }
      ],
      "stateMutability": "view",
      "type": "function"
    },
    {
      "inputs": [
        {
          "internalType": "uint256",
          "name": "moddedRng",
          "type": "uint256"
        }
      ],
      "name": "getBreedFromModdedRng",
      "outputs": [
        {
          "internalType": "enum VrfMint.Breed",
          "name": "",
          "type": "uint8"
        }
      ],
      "stateMutability": "pure",
      "type": "function"
    },
    {
      "inputs": [],
      "name": "getChanceArray",
      "outputs": [
        {
          "internalType": "uint256[10]",
          "name": "",
          "type": "uint256[10]"
        }
      ],
      "stateMutability": "pure",
      "type": "function"
    },
    {
      "inputs": [],
      "name": "getInitialized",
      "outputs": [
        {
          "internalType": "bool",
          "name": "",
          "type": "bool"
        }
      ],
      "stateMutability": "view",
      "type": "function"
    },
    {
      "inputs": [],
      "name": "getTokenCounter",
      "outputs": [
        {
          "internalType": "uint256",
          "name": "",
          "type": "uint256"
        }
      ],
      "stateMutability": "view",
      "type": "function"
    },
    {
      "inputs": [
        {
          "internalType": "uint256",
          "name": "index",
          "type": "uint256"
        }
      ],
      "name": "getfishTokenUris",
      "outputs": [
        {
          "internalType": "string",
          "name": "",
          "type": "string"
        }
      ],
      "stateMutability": "view",
      "type": "function"
    },
    {
      "inputs": [
        {
          "internalType": "address",
          "name": "owner",
          "type": "address"
        },
        {
          "internalType": "address",
          "name": "operator",
          "type": "address"
        }
      ],
      "name": "isApprovedForAll",
      "outputs": [
        {
          "internalType": "bool",
          "name": "",
          "type": "bool"
        }
      ],
      "stateMutability": "view",
      "type": "function"
    },
    {
      "inputs": [],
      "name": "mintAll",
      "outputs": [
        {
          "internalType": "bytes32",
          "name": "requestId",
          "type": "bytes32"
        }
      ],
      "stateMutability": "nonpayable",
      "type": "function"
    },
    {
      "inputs": [],
      "name": "name",
      "outputs": [
        {
          "internalType": "string",
          "name": "",
          "type": "string"
        }
      ],
      "stateMutability": "view",
      "type": "function"
    },
    {
      "inputs": [],
      "name": "owner",
      "outputs": [
        {
          "internalType": "address",
          "name": "",
          "type": "address"
        }
      ],
      "stateMutability": "view",
      "type": "function"
    },
    {
      "inputs": [
        {
          "internalType": "uint256",
          "name": "tokenId",
          "type": "uint256"
        }
      ],
      "name": "ownerOf",
      "outputs": [
        {
          "internalType": "address",
          "name": "",
          "type": "address"
        }
      ],
      "stateMutability": "view",
      "type": "function"
    },
    {
      "inputs": [
        {
          "internalType": "uint256",
          "name": "requestId",
          "type": "uint256"
        },
        {
          "internalType": "uint256[]",
          "name": "randomWords",
          "type": "uint256[]"
        }
      ],
      "name": "rawFulfillRandomWords",
      "outputs": [],
      "stateMutability": "nonpayable",
      "type": "function"
    },
    {
      "inputs": [],
      "name": "renounceOwnership",
      "outputs": [],
      "stateMutability": "nonpayable",
      "type": "function"
    },
    {
      "inputs": [
        {
          "internalType": "bytes32",
          "name": "",
          "type": "bytes32"
        }
      ],
      "name": "requestParams",
      "outputs": [
        {
          "internalType": "address",
          "name": "",
          "type": "address"
        }
      ],
      "stateMutability": "view",
      "type": "function"
    },
    {
      "inputs": [
        {
          "internalType": "uint256",
          "name": "",
          "type": "uint256"
        }
      ],
      "name": "s_requestIdToSender",
      "outputs": [
        {
          "internalType": "address",
          "name": "",
          "type": "address"
        }
      ],
      "stateMutability": "view",
      "type": "function"
    },
    {
      "inputs": [
        {
          "internalType": "address",
          "name": "from",
          "type": "address"
        },
        {
          "internalType": "address",
          "name": "to",
          "type": "address"
        },
        {
          "internalType": "uint256",
          "name": "tokenId",
          "type": "uint256"
        }
      ],
      "name": "safeTransferFrom",
      "outputs": [],
      "stateMutability": "nonpayable",
      "type": "function"
    },
    {
      "inputs": [
        {
          "internalType": "address",
          "name": "from",
          "type": "address"
        },
        {
          "internalType": "address",
          "name": "to",
          "type": "address"
        },
        {
          "internalType": "uint256",
          "name": "tokenId",
          "type": "uint256"
        },
        {
          "internalType": "bytes",
          "name": "data",
          "type": "bytes"
        }
      ],
      "name": "safeTransferFrom",
      "outputs": [],
      "stateMutability": "nonpayable",
      "type": "function"
    },
    {
      "inputs": [
        {
          "internalType": "address",
          "name": "operator",
          "type": "address"
        },
        {
          "internalType": "bool",
          "name": "approved",
          "type": "bool"
        }
      ],
      "name": "setApprovalForAll",
      "outputs": [],
      "stateMutability": "nonpayable",
      "type": "function"
    },
    {
      "inputs": [
        {
          "internalType": "bytes4",
          "name": "interfaceId",
          "type": "bytes4"
        }
      ],
      "name": "supportsInterface",
      "outputs": [
        {
          "internalType": "bool",
          "name": "",
          "type": "bool"
        }
      ],
      "stateMutability": "view",
      "type": "function"
    },
    {
      "inputs": [],
      "name": "symbol",
      "outputs": [
        {
          "internalType": "string",
          "name": "",
          "type": "string"
        }
      ],
      "stateMutability": "view",
      "type": "function"
    },
    {
      "inputs": [
        {
          "internalType": "uint256",
          "name": "tokenId",
          "type": "uint256"
        }
      ],
      "name": "tokenURI",
      "outputs": [
        {
          "internalType": "string",
          "name": "",
          "type": "string"
        }
      ],
      "stateMutability": "view",
      "type": "function"
    },
    {
      "inputs": [
        {
          "internalType": "address",
          "name": "from",
          "type": "address"
        },
        {
          "internalType": "address",
          "name": "to",
          "type": "address"
        },
        {
          "internalType": "uint256",
          "name": "tokenId",
          "type": "uint256"
        }
      ],
      "name": "transferFrom",
      "outputs": [],
      "stateMutability": "nonpayable",
      "type": "function"
    },
    {
      "inputs": [
        {
          "internalType": "address",
          "name": "newOwner",
          "type": "address"
        }
      ],
      "name": "transferOwnership",
      "outputs": [],
      "stateMutability": "nonpayable",
      "type": "function"
    },
    {
      "inputs": [],
      "name": "volume",
      "outputs": [
        {
          "internalType": "uint256",
          "name": "",
          "type": "uint256"
        }
      ],
      "stateMutability": "view",
      "type": "function"
    },
    {
      "inputs": [],
      "name": "withdrawLink",
      "outputs": [],
      "stateMutability": "nonpayable",
      "type": "function"
    }
  ],
  "transactionHash": "0x41cd8190b95a4907edd4f51b0bad6460d86118e246f9dd913866803933a1ade5",
  "args": [
    "0x7a1BaC17Ccc5b313516C5E16fb24f7659aA5ebed",
    2526,
    [
      "https://ipfs.filebase.io/ipfs/QmeZ3Xndo1DTruEGCbenzR381FyaLL8JgwGRKc1nfE3riU/1.json",
      "https://ipfs.filebase.io/ipfs/QmeZ3Xndo1DTruEGCbenzR381FyaLL8JgwGRKc1nfE3riU/2.json",
      "https://ipfs.filebase.io/ipfs/QmeZ3Xndo1DTruEGCbenzR381FyaLL8JgwGRKc1nfE3riU/3.json",
      "https://ipfs.filebase.io/ipfs/QmeZ3Xndo1DTruEGCbenzR381FyaLL8JgwGRKc1nfE3riU/4.json",
      "https://ipfs.filebase.io/ipfs/QmeZ3Xndo1DTruEGCbenzR381FyaLL8JgwGRKc1nfE3riU/5.json",
      "https://ipfs.filebase.io/ipfs/QmeZ3Xndo1DTruEGCbenzR381FyaLL8JgwGRKc1nfE3riU/6.json",
      "https://ipfs.filebase.io/ipfs/QmeZ3Xndo1DTruEGCbenzR381FyaLL8JgwGRKc1nfE3riU/7.json",
      "https://ipfs.filebase.io/ipfs/QmeZ3Xndo1DTruEGCbenzR381FyaLL8JgwGRKc1nfE3riU/8.json",
      "https://ipfs.filebase.io/ipfs/QmeZ3Xndo1DTruEGCbenzR381FyaLL8JgwGRKc1nfE3riU/9.json",
      "https://ipfs.filebase.io/ipfs/QmeZ3Xndo1DTruEGCbenzR381FyaLL8JgwGRKc1nfE3riU/10.json"
    ]
  ],
  "numDeployments": 5,
  "solcInputHash": "e564df39938b9da5e614c4738d190411",
  "bytecode": "0x60e06040526001600c557f4b09e658ed251bcafeebbc69400383d49f344ace09b9576fe248bb02c003fe9f60001b600e55622625a0600f60006101000a81548163ffffffff021916908363ffffffff1602179055503480156200006157600080fd5b50604051620063b4380380620063b4833981810160405281019062000087919062000861565b826040518060400160405280601281526020017f50696578656c20466c79696e67206669736800000000000000000000000000008152506040518060400160405280600381526020017f5046460000000000000000000000000000000000000000000000000000000000815250816000908162000105919062000b27565b50806001908162000117919062000b27565b5050508073ffffffffffffffffffffffffffffffffffffffff1660808173ffffffffffffffffffffffffffffffffffffffff1681525050506200016f620001636200027d60201b60201c565b6200028560201b60201c565b8273ffffffffffffffffffffffffffffffffffffffff1660a08173ffffffffffffffffffffffffffffffffffffffff16815250508167ffffffffffffffff1660c08167ffffffffffffffff1681525050620001d0816200034b60201b60201c565b6000601081905550620001fd73326c977e6efc84e512bb9c30f76e30c160ed06fb620003c560201b60201c565b620002227340193c8518bb267228fc409a613bdbd8ec5a97b36200040960201b60201c565b7f6361393833363663633733313439353762386330313263373266303561656562601581905550600a670de0b6b3a7640000600162000262919062000c3d565b6200026e919062000cb7565b60168190555050505062000cef565b600033905090565b6000600760009054906101000a900473ffffffffffffffffffffffffffffffffffffffff16905081600760006101000a81548173ffffffffffffffffffffffffffffffffffffffff021916908373ffffffffffffffffffffffffffffffffffffffff1602179055508173ffffffffffffffffffffffffffffffffffffffff168173ffffffffffffffffffffffffffffffffffffffff167f8be0079c531659141344cd1fd0a4f28419497f9722a3daafe3b4186f6b6457e060405160405180910390a35050565b601360009054906101000a900460ff161562000393576040517f0dc149f000000000000000000000000000000000000000000000000000000000815260040160405180910390fd5b80601290600a620003a69291906200044d565b506001601360006101000a81548160ff02191690831515021790555050565b80600a60006101000a81548173ffffffffffffffffffffffffffffffffffffffff021916908373ffffffffffffffffffffffffffffffffffffffff16021790555050565b80600b60006101000a81548173ffffffffffffffffffffffffffffffffffffffff021916908373ffffffffffffffffffffffffffffffffffffffff16021790555050565b8280548282559060005260206000209081019282156200049a579160200282015b828111156200049957825182908162000488919062000b27565b50916020019190600101906200046e565b5b509050620004a99190620004ad565b5090565b5b80821115620004d15760008181620004c79190620004d5565b50600101620004ae565b5090565b508054620004e39062000916565b6000825580601f10620004f7575062000518565b601f0160209004906000526020600020908101906200051791906200051b565b5b50565b5b80821115620005365760008160009055506001016200051c565b5090565b6000604051905090565b600080fd5b600080fd5b600073ffffffffffffffffffffffffffffffffffffffff82169050919050565b60006200057b826200054e565b9050919050565b6200058d816200056e565b81146200059957600080fd5b50565b600081519050620005ad8162000582565b92915050565b600067ffffffffffffffff82169050919050565b620005d281620005b3565b8114620005de57600080fd5b50565b600081519050620005f281620005c7565b92915050565b600080fd5b6000601f19601f8301169050919050565b7f4e487b7100000000000000000000000000000000000000000000000000000000600052604160045260246000fd5b6200064882620005fd565b810181811067ffffffffffffffff821117156200066a57620006696200060e565b5b80604052505050565b60006200067f6200053a565b90506200068d82826200063d565b919050565b600067ffffffffffffffff821115620006b057620006af6200060e565b5b602082029050919050565b600080fd5b600080fd5b600067ffffffffffffffff821115620006e357620006e26200060e565b5b620006ee82620005fd565b9050602081019050919050565b60005b838110156200071b578082015181840152602081019050620006fe565b60008484015250505050565b60006200073e6200073884620006c5565b62000673565b9050828152602081018484840111156200075d576200075c620006c0565b5b6200076a848285620006fb565b509392505050565b600082601f8301126200078a5762000789620005f8565b5b81516200079c84826020860162000727565b91505092915050565b6000620007bc620007b68462000692565b62000673565b90508060208402830185811115620007d957620007d8620006bb565b5b835b818110156200082757805167ffffffffffffffff811115620008025762000801620005f8565b5b80860162000811898262000772565b85526020850194505050602081019050620007db565b5050509392505050565b600082601f830112620008495762000848620005f8565b5b600a62000858848285620007a5565b91505092915050565b6000806000606084860312156200087d576200087c62000544565b5b60006200088d868287016200059c565b9350506020620008a086828701620005e1565b925050604084015167ffffffffffffffff811115620008c457620008c362000549565b5b620008d28682870162000831565b9150509250925092565b600081519050919050565b7f4e487b7100000000000000000000000000000000000000000000000000000000600052602260045260246000fd5b600060028204905060018216806200092f57607f821691505b602082108103620009455762000944620008e7565b5b50919050565b60008190508160005260206000209050919050565b60006020601f8301049050919050565b600082821b905092915050565b600060088302620009af7fffffffffffffffffffffffffffffffffffffffffffffffffffffffffffffffff8262000970565b620009bb868362000970565b95508019841693508086168417925050509392505050565b6000819050919050565b6000819050919050565b600062000a0862000a02620009fc84620009d3565b620009dd565b620009d3565b9050919050565b6000819050919050565b62000a2483620009e7565b62000a3c62000a338262000a0f565b8484546200097d565b825550505050565b600090565b62000a5362000a44565b62000a6081848462000a19565b505050565b5b8181101562000a885762000a7c60008262000a49565b60018101905062000a66565b5050565b601f82111562000ad75762000aa1816200094b565b62000aac8462000960565b8101602085101562000abc578190505b62000ad462000acb8562000960565b83018262000a65565b50505b505050565b600082821c905092915050565b600062000afc6000198460080262000adc565b1980831691505092915050565b600062000b17838362000ae9565b9150826002028217905092915050565b62000b3282620008dc565b67ffffffffffffffff81111562000b4e5762000b4d6200060e565b5b62000b5a825462000916565b62000b6782828562000a8c565b600060209050601f83116001811462000b9f576000841562000b8a578287015190505b62000b96858262000b09565b86555062000c06565b601f19841662000baf866200094b565b60005b8281101562000bd95784890151825560018201915060208501945060208101905062000bb2565b8683101562000bf9578489015162000bf5601f89168262000ae9565b8355505b6001600288020188555050505b505050505050565b7f4e487b7100000000000000000000000000000000000000000000000000000000600052601160045260246000fd5b600062000c4a82620009d3565b915062000c5783620009d3565b925082820262000c6781620009d3565b9150828204841483151762000c815762000c8062000c0e565b5b5092915050565b7f4e487b7100000000000000000000000000000000000000000000000000000000600052601260045260246000fd5b600062000cc482620009d3565b915062000cd183620009d3565b92508262000ce45762000ce362000c88565b5b828204905092915050565b60805160a05160c05161568e62000d2660003960006114dc0152600061149d0152600081816108c40152610918015261568e6000f3fe608060405234801561001057600080fd5b50600436106101da5760003560e01c80638da5cb5b11610104578063a51cccf3116100a2578063c87b56dd11610071578063c87b56dd14610557578063e985e9c514610587578063ee89dab4146105b7578063f2fde38b146105d5576101da565b8063a51cccf3146104cf578063b88d4fde146104ff578063c0702d9c1461051b578063c618a1e414610539576101da565b806395d89b41116100de57806395d89b41146104355780639f5eb91514610453578063a22cb46514610483578063a36f573b1461049f576101da565b80638da5cb5b146103dd5780638dc654a2146103fb5780638f62cbdb14610405576101da565b80634357855e1161017c5780636352211e1161014b5780636352211e146103555780636e02007d1461038557806370a08231146103a3578063715018a6146103d3576101da565b80634357855e146102cd57806355ab79cb146102e9578063595882b3146103195780635dacf5f414610337576101da565b8063095ea7b3116101b8578063095ea7b31461025d5780631fe543e31461027957806323b872dd1461029557806342842e0e146102b1576101da565b806301ffc9a7146101df57806306fdde031461020f578063081812fc1461022d575b600080fd5b6101f960048036038101906101f49190613884565b6105f1565b60405161020691906138cc565b60405180910390f35b6102176106d3565b6040516102249190613977565b60405180910390f35b610247600480360381019061024291906139cf565b610765565b6040516102549190613a3d565b60405180910390f35b61027760048036038101906102729190613a84565b6107ab565b005b610293600480360381019061028e9190613c0c565b6108c2565b005b6102af60048036038101906102aa9190613c68565b610982565b005b6102cb60048036038101906102c69190613c68565b6109e2565b005b6102e760048036038101906102e29190613cf1565b610a02565b005b61030360048036038101906102fe9190613d31565b610be1565b6040516103109190613a3d565b60405180910390f35b610321610c14565b60405161032e9190613d6d565b60405180910390f35b61033f610e3b565b60405161034c9190613e33565b60405180910390f35b61036f600480360381019061036a91906139cf565b610e98565b60405161037c9190613a3d565b60405180910390f35b61038d610f1e565b60405161039a9190613e5e565b60405180910390f35b6103bd60048036038101906103b89190613e79565b610f28565b6040516103ca9190613e5e565b60405180910390f35b6103db610fdf565b005b6103e5610ff3565b6040516103f29190613a3d565b60405180910390f35b61040361101d565b005b61041f600480360381019061041a9190613e79565b61116a565b60405161042c9190613ec5565b60405180910390f35b61043d61118d565b60405161044a9190613977565b60405180910390f35b61046d600480360381019061046891906139cf565b61121f565b60405161047a9190613977565b60405180910390f35b61049d60048036038101906104989190613f0c565b6112cf565b005b6104b960048036038101906104b491906139cf565b6112e5565b6040516104c69190613a3d565b60405180910390f35b6104e960048036038101906104e491906139cf565b611318565b6040516104f69190613fc3565b60405180910390f35b61051960048036038101906105149190614093565b6113e4565b005b610523611446565b6040516105309190613e5e565b60405180910390f35b610541611604565b60405161054e9190613e5e565b60405180910390f35b610571600480360381019061056c91906139cf565b61160a565b60405161057e9190613977565b60405180910390f35b6105a1600480360381019061059c9190614116565b61171c565b6040516105ae91906138cc565b60405180910390f35b6105bf6117b0565b6040516105cc91906138cc565b60405180910390f35b6105ef60048036038101906105ea9190613e79565b6117c7565b005b60007f80ac58cd000000000000000000000000000000000000000000000000000000007bffffffffffffffffffffffffffffffffffffffffffffffffffffffff1916827bffffffffffffffffffffffffffffffffffffffffffffffffffffffff191614806106bc57507f5b5e139f000000000000000000000000000000000000000000000000000000007bffffffffffffffffffffffffffffffffffffffffffffffffffffffff1916827bffffffffffffffffffffffffffffffffffffffffffffffffffffffff1916145b806106cc57506106cb8261184a565b5b9050919050565b6060600080546106e290614185565b80601f016020809104026020016040519081016040528092919081815260200182805461070e90614185565b801561075b5780601f106107305761010080835404028352916020019161075b565b820191906000526020600020905b81548152906001019060200180831161073e57829003601f168201915b5050505050905090565b6000610770826118b4565b6004600083815260200190815260200160002060009054906101000a900473ffffffffffffffffffffffffffffffffffffffff169050919050565b60006107b682610e98565b90508073ffffffffffffffffffffffffffffffffffffffff168373ffffffffffffffffffffffffffffffffffffffff1603610826576040517f08c379a000000000000000000000000000000000000000000000000000000000815260040161081d90614228565b60405180910390fd5b8073ffffffffffffffffffffffffffffffffffffffff166108456118ff565b73ffffffffffffffffffffffffffffffffffffffff16148061087457506108738161086e6118ff565b61171c565b5b6108b3576040517f08c379a00000000000000000000000000000000000000000000000000000000081526004016108aa906142ba565b60405180910390fd5b6108bd8383611907565b505050565b7f000000000000000000000000000000000000000000000000000000000000000073ffffffffffffffffffffffffffffffffffffffff163373ffffffffffffffffffffffffffffffffffffffff161461097457337f00000000000000000000000000000000000000000000000000000000000000006040517f1cf993f400000000000000000000000000000000000000000000000000000000815260040161096b9291906142da565b60405180910390fd5b61097e82826119c0565b5050565b61099361098d6118ff565b82611b78565b6109d2576040517f08c379a00000000000000000000000000000000000000000000000000000000081526004016109c990614375565b60405180910390fd5b6109dd838383611c0d565b505050565b6109fd838383604051806020016040528060008152506113e4565b505050565b81600d600082815260200190815260200160002060009054906101000a900473ffffffffffffffffffffffffffffffffffffffff1673ffffffffffffffffffffffffffffffffffffffff163373ffffffffffffffffffffffffffffffffffffffff1614610aa4576040517f08c379a0000000000000000000000000000000000000000000000000000000008152600401610a9b90614407565b60405180910390fd5b600d600082815260200190815260200160002060006101000a81549073ffffffffffffffffffffffffffffffffffffffff0219169055807f7cc135e0cebb02c3480ae5d74d377283180a2601f8f644edf7987b009316c63a60405160405180910390a2827fcf7377622719718dd9b6dea1e0c01e882175ec209963aeb3336c7178280bc4e883604051610b379190613e5e565b60405180910390a260006018600085815260200190815260200160002060009054906101000a900473ffffffffffffffffffffffffffffffffffffffff169050600083905080601760008473ffffffffffffffffffffffffffffffffffffffff1673ffffffffffffffffffffffffffffffffffffffff16815260200190815260200160002060006101000a81548163ffffffff021916908363ffffffff1602179055505050505050565b60186020528060005260406000206000915054906101000a900473ffffffffffffffffffffffffffffffffffffffff1681565b600080610c2b60155430634357855e60e01b611f06565b905060003373ffffffffffffffffffffffffffffffffffffffff1690506000610c55826014611f37565b90506000819050600081604051602001610c6f91906144d5565b6040516020818303038152906040529050610cca6040518060400160405280600381526020017f676574000000000000000000000000000000000000000000000000000000000081525082876121739092919063ffffffff16565b610d496040518060400160405280600481526020017f70617468000000000000000000000000000000000000000000000000000000008152506040518060400160405280600f81526020017f6d6573736167652c63616e4d696e740000000000000000000000000000000000815250876121739092919063ffffffff16565b600060019050610d996040518060400160405280600581526020017f74696d657300000000000000000000000000000000000000000000000000000081525082886121a69092919063ffffffff16565b7fb0436a691018ae46c51951a73ebe0c216e0f42e333fa53ca4af75c3e9b43876a8233604051610dca9291906144f7565b60405180910390a1610dde866016546121d9565b9650336018600089815260200190815260200160002060006101000a81548173ffffffffffffffffffffffffffffffffffffffff021916908373ffffffffffffffffffffffffffffffffffffffff16021790555050505050505090565b610e4361376e565b604051806101400160405280600a815260200160148152602001601e81526020016028815260200160328152602001603781526020016046815260200160508152602001605a81526020016064815250905090565b600080610ea483612210565b9050600073ffffffffffffffffffffffffffffffffffffffff168173ffffffffffffffffffffffffffffffffffffffff1603610f15576040517f08c379a0000000000000000000000000000000000000000000000000000000008152600401610f0c90614573565b60405180910390fd5b80915050919050565b6000601054905090565b60008073ffffffffffffffffffffffffffffffffffffffff168273ffffffffffffffffffffffffffffffffffffffff1603610f98576040517f08c379a0000000000000000000000000000000000000000000000000000000008152600401610f8f90614605565b60405180910390fd5b600360008373ffffffffffffffffffffffffffffffffffffffff1673ffffffffffffffffffffffffffffffffffffffff168152602001908152602001600020549050919050565b610fe761224d565b610ff160006122cb565b565b6000600760009054906101000a900473ffffffffffffffffffffffffffffffffffffffff16905090565b61102561224d565b600061102f612391565b90508073ffffffffffffffffffffffffffffffffffffffff1663a9059cbb338373ffffffffffffffffffffffffffffffffffffffff166370a08231306040518263ffffffff1660e01b81526004016110879190613a3d565b602060405180830381865afa1580156110a4573d6000803e3d6000fd5b505050506040513d601f19601f820116820180604052508101906110c8919061463a565b6040518363ffffffff1660e01b81526004016110e5929190614667565b6020604051808303816000875af1158015611104573d6000803e3d6000fd5b505050506040513d601f19601f8201168201806040525081019061112891906146a5565b611167576040517f08c379a000000000000000000000000000000000000000000000000000000000815260040161115e9061471e565b60405180910390fd5b50565b60176020528060005260406000206000915054906101000a900463ffffffff1681565b60606001805461119c90614185565b80601f01602080910402602001604051908101604052809291908181526020018280546111c890614185565b80156112155780601f106111ea57610100808354040283529160200191611215565b820191906000526020600020905b8154815290600101906020018083116111f857829003601f168201915b5050505050905090565b6060601282815481106112355761123461473e565b5b90600052602060002001805461124a90614185565b80601f016020809104026020016040519081016040528092919081815260200182805461127690614185565b80156112c35780601f10611298576101008083540402835291602001916112c3565b820191906000526020600020905b8154815290600101906020018083116112a657829003601f168201915b50505050509050919050565b6112e16112da6118ff565b83836123bb565b5050565b60196020528060005260406000206000915054906101000a900473ffffffffffffffffffffffffffffffffffffffff1681565b600080600090506000611329610e3b565b905060005b600a8110156113ac5782851015801561135d57508181600a81106113555761135461473e565b5b602002015185105b1561137f5780600981111561137557611374613f4c565b5b93505050506113df565b8181600a81106113925761139161473e565b5b6020020151925080806113a49061479c565b91505061132e565b506040517f0655dc2500000000000000000000000000000000000000000000000000000000815260040160405180910390fd5b919050565b6113f56113ef6118ff565b83611b78565b611434576040517f08c379a000000000000000000000000000000000000000000000000000000000815260040161142b90614375565b60405180910390fd5b61144084848484612527565b50505050565b600080601760003373ffffffffffffffffffffffffffffffffffffffff1673ffffffffffffffffffffffffffffffffffffffff16815260200190815260200160002060009054906101000a900463ffffffff1690507f000000000000000000000000000000000000000000000000000000000000000073ffffffffffffffffffffffffffffffffffffffff16635d3b1d30600e547f00000000000000000000000000000000000000000000000000000000000000006003600f60009054906101000a900463ffffffff16866040518663ffffffff1660e01b8152600401611531959493929190614824565b6020604051808303816000875af1158015611550573d6000803e3d6000fd5b505050506040513d601f19601f82011682018060405250810190611574919061463a565b9150336019600084815260200190815260200160002060006101000a81548173ffffffffffffffffffffffffffffffffffffffff021916908373ffffffffffffffffffffffffffffffffffffffff160217905550817ff873236e6cc0ecc5be1a9a35c95ee5b8d1ac4cc7bfef0cc5060391d6cc98e26b336040516115f89190613a3d565b60405180910390a25090565b60145481565b6060611615826118b4565b600060066000848152602001908152602001600020805461163590614185565b80601f016020809104026020016040519081016040528092919081815260200182805461166190614185565b80156116ae5780601f10611683576101008083540402835291602001916116ae565b820191906000526020600020905b81548152906001019060200180831161169157829003601f168201915b5050505050905060006116bf612583565b905060008151036116d4578192505050611717565b6000825111156117095780826040516020016116f1929190614877565b60405160208183030381529060405292505050611717565b6117128461259a565b925050505b919050565b6000600560008473ffffffffffffffffffffffffffffffffffffffff1673ffffffffffffffffffffffffffffffffffffffff16815260200190815260200160002060008373ffffffffffffffffffffffffffffffffffffffff1673ffffffffffffffffffffffffffffffffffffffff16815260200190815260200160002060009054906101000a900460ff16905092915050565b6000601360009054906101000a900460ff16905090565b6117cf61224d565b600073ffffffffffffffffffffffffffffffffffffffff168173ffffffffffffffffffffffffffffffffffffffff160361183e576040517f08c379a00000000000000000000000000000000000000000000000000000000081526004016118359061490d565b60405180910390fd5b611847816122cb565b50565b60007f01ffc9a7000000000000000000000000000000000000000000000000000000007bffffffffffffffffffffffffffffffffffffffffffffffffffffffff1916827bffffffffffffffffffffffffffffffffffffffffffffffffffffffff1916149050919050565b6118bd81612602565b6118fc576040517f08c379a00000000000000000000000000000000000000000000000000000000081526004016118f390614573565b60405180910390fd5b50565b600033905090565b816004600083815260200190815260200160002060006101000a81548173ffffffffffffffffffffffffffffffffffffffff021916908373ffffffffffffffffffffffffffffffffffffffff160217905550808273ffffffffffffffffffffffffffffffffffffffff1661197a83610e98565b73ffffffffffffffffffffffffffffffffffffffff167f8c5be1e5ebec7d5bd14f71427d1e84f3dd0314c0f7b2291e5b200ac8c7c3b92560405160405180910390a45050565b60006019600084815260200190815260200160002060009054906101000a900473ffffffffffffffffffffffffffffffffffffffff16905060005b82518111611b7257600060105490506001601054611a19919061492d565b60108190555060006064858481518110611a3657611a3561473e565b5b6020026020010151611a489190614990565b90506000611a5582611318565b9050611a618584612643565b611b23836012836009811115611a7a57611a79613f4c565b5b81548110611a8b57611a8a61473e565b5b906000526020600020018054611aa090614185565b80601f0160208091040260200160405190810160405280929190818152602001828054611acc90614185565b8015611b195780601f10611aee57610100808354040283529160200191611b19565b820191906000526020600020905b815481529060010190602001808311611afc57829003601f168201915b5050505050612661565b7f8a269f26b688e110e9cbd887d163dab35cae678fa353a0292de532c0cac1ecdc8186604051611b549291906149c1565b60405180910390a15050508080611b6a9061479c565b9150506119fb565b50505050565b600080611b8483610e98565b90508073ffffffffffffffffffffffffffffffffffffffff168473ffffffffffffffffffffffffffffffffffffffff161480611bc65750611bc5818561171c565b5b80611c0457508373ffffffffffffffffffffffffffffffffffffffff16611bec84610765565b73ffffffffffffffffffffffffffffffffffffffff16145b91505092915050565b8273ffffffffffffffffffffffffffffffffffffffff16611c2d82610e98565b73ffffffffffffffffffffffffffffffffffffffff1614611c83576040517f08c379a0000000000000000000000000000000000000000000000000000000008152600401611c7a90614a5c565b60405180910390fd5b600073ffffffffffffffffffffffffffffffffffffffff168273ffffffffffffffffffffffffffffffffffffffff1603611cf2576040517f08c379a0000000000000000000000000000000000000000000000000000000008152600401611ce990614aee565b60405180910390fd5b611cff83838360016126ce565b8273ffffffffffffffffffffffffffffffffffffffff16611d1f82610e98565b73ffffffffffffffffffffffffffffffffffffffff1614611d75576040517f08c379a0000000000000000000000000000000000000000000000000000000008152600401611d6c90614a5c565b60405180910390fd5b6004600082815260200190815260200160002060006101000a81549073ffffffffffffffffffffffffffffffffffffffff02191690556001600360008573ffffffffffffffffffffffffffffffffffffffff1673ffffffffffffffffffffffffffffffffffffffff168152602001908152602001600020600082825403925050819055506001600360008473ffffffffffffffffffffffffffffffffffffffff1673ffffffffffffffffffffffffffffffffffffffff16815260200190815260200160002060008282540192505081905550816002600083815260200190815260200160002060006101000a81548173ffffffffffffffffffffffffffffffffffffffff021916908373ffffffffffffffffffffffffffffffffffffffff160217905550808273ffffffffffffffffffffffffffffffffffffffff168473ffffffffffffffffffffffffffffffffffffffff167fddf252ad1be2c89b69c2b068fc378daa952ba7f163c4a11628f55a4df523b3ef60405160405180910390a4611f0183838360016127f4565b505050565b611f0e613791565b611f16613791565b611f2d858585846127fa909392919063ffffffff16565b9150509392505050565b606060006002836002611f4a9190614b0e565b611f54919061492d565b67ffffffffffffffff811115611f6d57611f6c613ac9565b5b6040519080825280601f01601f191660200182016040528015611f9f5781602001600182028036833780820191505090505b5090507f300000000000000000000000000000000000000000000000000000000000000081600081518110611fd757611fd661473e565b5b60200101907effffffffffffffffffffffffffffffffffffffffffffffffffffffffffffff1916908160001a9053507f78000000000000000000000000000000000000000000000000000000000000008160018151811061203b5761203a61473e565b5b60200101907effffffffffffffffffffffffffffffffffffffffffffffffffffffffffffff1916908160001a9053506000600184600261207b9190614b0e565b612085919061492d565b90505b6001811115612125577f3031323334353637383961626364656600000000000000000000000000000000600f8616601081106120c7576120c661473e565b5b1a60f81b8282815181106120de576120dd61473e565b5b60200101907effffffffffffffffffffffffffffffffffffffffffffffffffffffffffffff1916908160001a905350600485901c94508061211e90614b50565b9050612088565b5060008414612169576040517f08c379a000000000000000000000000000000000000000000000000000000000815260040161216090614bc5565b60405180910390fd5b8091505092915050565b61218a8284608001516128aa90919063ffffffff16565b6121a18184608001516128aa90919063ffffffff16565b505050565b6121bd8284608001516128aa90919063ffffffff16565b6121d48184608001516128cf90919063ffffffff16565b505050565b6000612208600b60009054906101000a900473ffffffffffffffffffffffffffffffffffffffff16848461297c565b905092915050565b60006002600083815260200190815260200160002060009054906101000a900473ffffffffffffffffffffffffffffffffffffffff169050919050565b6122556118ff565b73ffffffffffffffffffffffffffffffffffffffff16612273610ff3565b73ffffffffffffffffffffffffffffffffffffffff16146122c9576040517f08c379a00000000000000000000000000000000000000000000000000000000081526004016122c090614c31565b60405180910390fd5b565b6000600760009054906101000a900473ffffffffffffffffffffffffffffffffffffffff16905081600760006101000a81548173ffffffffffffffffffffffffffffffffffffffff021916908373ffffffffffffffffffffffffffffffffffffffff1602179055508173ffffffffffffffffffffffffffffffffffffffff168173ffffffffffffffffffffffffffffffffffffffff167f8be0079c531659141344cd1fd0a4f28419497f9722a3daafe3b4186f6b6457e060405160405180910390a35050565b6000600a60009054906101000a900473ffffffffffffffffffffffffffffffffffffffff16905090565b8173ffffffffffffffffffffffffffffffffffffffff168373ffffffffffffffffffffffffffffffffffffffff1603612429576040517f08c379a000000000000000000000000000000000000000000000000000000000815260040161242090614c9d565b60405180910390fd5b80600560008573ffffffffffffffffffffffffffffffffffffffff1673ffffffffffffffffffffffffffffffffffffffff16815260200190815260200160002060008473ffffffffffffffffffffffffffffffffffffffff1673ffffffffffffffffffffffffffffffffffffffff16815260200190815260200160002060006101000a81548160ff0219169083151502179055508173ffffffffffffffffffffffffffffffffffffffff168373ffffffffffffffffffffffffffffffffffffffff167f17307eab39ab6107e8899845ad3d59bd9653f200f220920489ca2b5937696c318360405161251a91906138cc565b60405180910390a3505050565b612532848484611c0d565b61253e84848484612a48565b61257d576040517f08c379a000000000000000000000000000000000000000000000000000000000815260040161257490614d2f565b60405180910390fd5b50505050565b606060405180602001604052806000815250905090565b60606125a5826118b4565b60006125af612583565b905060008151116125cf57604051806020016040528060008152506125fa565b806125d984612bcf565b6040516020016125ea929190614877565b6040516020818303038152906040525b915050919050565b60008073ffffffffffffffffffffffffffffffffffffffff1661262483612210565b73ffffffffffffffffffffffffffffffffffffffff1614159050919050565b61265d828260405180602001604052806000815250612c9d565b5050565b61266a82612602565b6126a9576040517f08c379a00000000000000000000000000000000000000000000000000000000081526004016126a090614dc1565b60405180910390fd5b806006600084815260200190815260200160002090816126c99190614f8d565b505050565b60018111156127ee57600073ffffffffffffffffffffffffffffffffffffffff168473ffffffffffffffffffffffffffffffffffffffff16146127625780600360008673ffffffffffffffffffffffffffffffffffffffff1673ffffffffffffffffffffffffffffffffffffffff168152602001908152602001600020600082825461275a919061505f565b925050819055505b600073ffffffffffffffffffffffffffffffffffffffff168373ffffffffffffffffffffffffffffffffffffffff16146127ed5780600360008573ffffffffffffffffffffffffffffffffffffffff1673ffffffffffffffffffffffffffffffffffffffff16815260200190815260200160002060008282546127e5919061492d565b925050819055505b5b50505050565b50505050565b612802613791565b6128128560800151610100612cf8565b508385600001818152505082856020019073ffffffffffffffffffffffffffffffffffffffff16908173ffffffffffffffffffffffffffffffffffffffff16815250508185604001907bffffffffffffffffffffffffffffffffffffffffffffffffffffffff191690817bffffffffffffffffffffffffffffffffffffffffffffffffffffffff191681525050849050949350505050565b6128b78260038351612d62565b6128ca8183612ee790919063ffffffff16565b505050565b7fffffffffffffffffffffffffffffffffffffffffffffffff0000000000000000811215612906576129018282612f09565b612978565b67ffffffffffffffff811315612925576129208282612f80565b612977565b6000811261293e5761293982600083612d62565b612976565b612975826001837fffffffffffffffffffffffffffffffffffffffffffffffffffffffffffffffff612970919061509d565b612d62565b5b5b5b5050565b600080600c549050600181612991919061492d565b600c819055506000634042994660e01b60008087600001513089604001518760018c60800151600001516040516024016129d2989796959493929190615144565b604051602081830303815290604052907bffffffffffffffffffffffffffffffffffffffffffffffffffffffff19166020820180517bffffffffffffffffffffffffffffffffffffffffffffffffffffffff83818316178352505050509050612a3d86838684612fcc565b925050509392505050565b6000612a698473ffffffffffffffffffffffffffffffffffffffff16613161565b15612bc2578373ffffffffffffffffffffffffffffffffffffffff1663150b7a02612a926118ff565b8786866040518563ffffffff1660e01b8152600401612ab494939291906151c9565b6020604051808303816000875af1925050508015612af057506040513d601f19601f82011682018060405250810190612aed919061522a565b60015b612b72573d8060008114612b20576040519150601f19603f3d011682016040523d82523d6000602084013e612b25565b606091505b506000815103612b6a576040517f08c379a0000000000000000000000000000000000000000000000000000000008152600401612b6190614d2f565b60405180910390fd5b805181602001fd5b63150b7a0260e01b7bffffffffffffffffffffffffffffffffffffffffffffffffffffffff1916817bffffffffffffffffffffffffffffffffffffffffffffffffffffffff191614915050612bc7565b600190505b949350505050565b606060006001612bde84613184565b01905060008167ffffffffffffffff811115612bfd57612bfc613ac9565b5b6040519080825280601f01601f191660200182016040528015612c2f5781602001600182028036833780820191505090505b509050600082602001820190505b600115612c92578080600190039150507f3031323334353637383961626364656600000000000000000000000000000000600a86061a8153600a8581612c8657612c85614961565b5b04945060008503612c3d575b819350505050919050565b612ca783836132d7565b612cb46000848484612a48565b612cf3576040517f08c379a0000000000000000000000000000000000000000000000000000000008152600401612cea90614d2f565b60405180910390fd5b505050565b612d006137fe565b6000602083612d0f9190614990565b14612d3b57602082612d219190614990565b6020612d2d919061505f565b82612d38919061492d565b91505b81836020018181525050604051808452600081528281016020016040525082905092915050565b60178167ffffffffffffffff1611612d9957612d938160058460ff16901b60ff1617846134f490919063ffffffff16565b50612ee2565b60ff8167ffffffffffffffff1611612def57612dc8601860058460ff16901b17846134f490919063ffffffff16565b50612de98167ffffffffffffffff166001856135149092919063ffffffff16565b50612ee1565b61ffff8167ffffffffffffffff1611612e4657612e1f601960058460ff16901b17846134f490919063ffffffff16565b50612e408167ffffffffffffffff166002856135149092919063ffffffff16565b50612ee0565b63ffffffff8167ffffffffffffffff1611612e9f57612e78601a60058460ff16901b17846134f490919063ffffffff16565b50612e998167ffffffffffffffff166004856135149092919063ffffffff16565b50612edf565b612ebc601b60058460ff16901b17846134f490919063ffffffff16565b50612edd8167ffffffffffffffff166008856135149092919063ffffffff16565b505b5b5b5b505050565b612eef6137fe565b612f0183846000015151848551613536565b905092915050565b612f2760036005600660ff16901b17836134f490919063ffffffff16565b50612f7c82827fffffffffffffffffffffffffffffffffffffffffffffffffffffffffffffffff612f58919061509d565b604051602001612f689190613e5e565b604051602081830303815290604052613625565b5050565b612f9e60026005600660ff16901b17836134f490919063ffffffff16565b50612fc88282604051602001612fb49190613e5e565b604051602081830303815290604052613625565b5050565b60003084604051602001612fe1929190615306565b60405160208183030381529060405280519060200120905084600d600083815260200190815260200160002060006101000a81548173ffffffffffffffffffffffffffffffffffffffff021916908373ffffffffffffffffffffffffffffffffffffffff160217905550807fb5e6e01e79f91267dc17b4e6314d5d4d03593d2ceee0fbb452b750bd70ea5af960405160405180910390a2600a60009054906101000a900473ffffffffffffffffffffffffffffffffffffffff1673ffffffffffffffffffffffffffffffffffffffff16634000aea08685856040518463ffffffff1660e01b81526004016130d793929190615332565b6020604051808303816000875af11580156130f6573d6000803e3d6000fd5b505050506040513d601f19601f8201168201806040525081019061311a91906146a5565b613159576040517f08c379a0000000000000000000000000000000000000000000000000000000008152600401613150906153e2565b60405180910390fd5b949350505050565b6000808273ffffffffffffffffffffffffffffffffffffffff163b119050919050565b600080600090507a184f03e93ff9f4daa797ed6e38ed64bf6a1f01000000000000000083106131e2577a184f03e93ff9f4daa797ed6e38ed64bf6a1f01000000000000000083816131d8576131d7614961565b5b0492506040810190505b6d04ee2d6d415b85acef8100000000831061321f576d04ee2d6d415b85acef8100000000838161321557613214614961565b5b0492506020810190505b662386f26fc10000831061324e57662386f26fc10000838161324457613243614961565b5b0492506010810190505b6305f5e1008310613277576305f5e100838161326d5761326c614961565b5b0492506008810190505b612710831061329c57612710838161329257613291614961565b5b0492506004810190505b606483106132bf57606483816132b5576132b4614961565b5b0492506002810190505b600a83106132ce576001810190505b80915050919050565b600073ffffffffffffffffffffffffffffffffffffffff168273ffffffffffffffffffffffffffffffffffffffff1603613346576040517f08c379a000000000000000000000000000000000000000000000000000000000815260040161333d9061544e565b60405180910390fd5b61334f81612602565b1561338f576040517f08c379a0000000000000000000000000000000000000000000000000000000008152600401613386906154ba565b60405180910390fd5b61339d6000838360016126ce565b6133a681612602565b156133e6576040517f08c379a00000000000000000000000000000000000000000000000000000000081526004016133dd906154ba565b60405180910390fd5b6001600360008473ffffffffffffffffffffffffffffffffffffffff1673ffffffffffffffffffffffffffffffffffffffff16815260200190815260200160002060008282540192505081905550816002600083815260200190815260200160002060006101000a81548173ffffffffffffffffffffffffffffffffffffffff021916908373ffffffffffffffffffffffffffffffffffffffff160217905550808273ffffffffffffffffffffffffffffffffffffffff16600073ffffffffffffffffffffffffffffffffffffffff167fddf252ad1be2c89b69c2b068fc378daa952ba7f163c4a11628f55a4df523b3ef60405160405180910390a46134f06000838360016127f4565b5050565b6134fc6137fe565b61350c838460000151518461364a565b905092915050565b61351c6137fe565b61352d8485600001515185856136a0565b90509392505050565b61353e6137fe565b825182111561354c57600080fd5b8460200151828561355d919061492d565b1115613592576135918560026135828860200151888761357d919061492d565b61372e565b61358c9190614b0e565b61374a565b5b6000808651805187602083010193508088870111156135b15787860182525b60208701925050505b602084106135f857805182526020826135d3919061492d565b91506020816135e2919061492d565b90506020846135f1919061505f565b93506135ba565b60006001856020036101000a03905080198251168184511681811785525050508692505050949350505050565b6136328260028351612d62565b6136458183612ee790919063ffffffff16565b505050565b6136526137fe565b836020015183106136785761367784600286602001516136729190614b0e565b61374a565b5b83518051602085830101848153818603613693576001820183525b5050508390509392505050565b6136a86137fe565b846020015184836136b9919061492d565b11156136e1576136e085600286856136d1919061492d565b6136db9190614b0e565b61374a565b5b60006001836101006136f3919061560d565b6136fd919061505f565b905085518386820101858319825116178152815185880111156137205784870182525b505085915050949350505050565b60008183111561374057829050613744565b8190505b92915050565b60008260000151905061375d8383612cf8565b506137688382612ee7565b50505050565b604051806101400160405280600a90602082028036833780820191505090505090565b6040518060a0016040528060008019168152602001600073ffffffffffffffffffffffffffffffffffffffff16815260200160007bffffffffffffffffffffffffffffffffffffffffffffffffffffffff19168152602001600081526020016137f86137fe565b81525090565b604051806040016040528060608152602001600081525090565b6000604051905090565b600080fd5b600080fd5b60007fffffffff0000000000000000000000000000000000000000000000000000000082169050919050565b6138618161382c565b811461386c57600080fd5b50565b60008135905061387e81613858565b92915050565b60006020828403121561389a57613899613822565b5b60006138a88482850161386f565b91505092915050565b60008115159050919050565b6138c6816138b1565b82525050565b60006020820190506138e160008301846138bd565b92915050565b600081519050919050565b600082825260208201905092915050565b60005b83811015613921578082015181840152602081019050613906565b60008484015250505050565b6000601f19601f8301169050919050565b6000613949826138e7565b61395381856138f2565b9350613963818560208601613903565b61396c8161392d565b840191505092915050565b60006020820190508181036000830152613991818461393e565b905092915050565b6000819050919050565b6139ac81613999565b81146139b757600080fd5b50565b6000813590506139c9816139a3565b92915050565b6000602082840312156139e5576139e4613822565b5b60006139f3848285016139ba565b91505092915050565b600073ffffffffffffffffffffffffffffffffffffffff82169050919050565b6000613a27826139fc565b9050919050565b613a3781613a1c565b82525050565b6000602082019050613a526000830184613a2e565b92915050565b613a6181613a1c565b8114613a6c57600080fd5b50565b600081359050613a7e81613a58565b92915050565b60008060408385031215613a9b57613a9a613822565b5b6000613aa985828601613a6f565b9250506020613aba858286016139ba565b9150509250929050565b600080fd5b7f4e487b7100000000000000000000000000000000000000000000000000000000600052604160045260246000fd5b613b018261392d565b810181811067ffffffffffffffff82111715613b2057613b1f613ac9565b5b80604052505050565b6000613b33613818565b9050613b3f8282613af8565b919050565b600067ffffffffffffffff821115613b5f57613b5e613ac9565b5b602082029050602081019050919050565b600080fd5b6000613b88613b8384613b44565b613b29565b90508083825260208201905060208402830185811115613bab57613baa613b70565b5b835b81811015613bd45780613bc088826139ba565b845260208401935050602081019050613bad565b5050509392505050565b600082601f830112613bf357613bf2613ac4565b5b8135613c03848260208601613b75565b91505092915050565b60008060408385031215613c2357613c22613822565b5b6000613c31858286016139ba565b925050602083013567ffffffffffffffff811115613c5257613c51613827565b5b613c5e85828601613bde565b9150509250929050565b600080600060608486031215613c8157613c80613822565b5b6000613c8f86828701613a6f565b9350506020613ca086828701613a6f565b9250506040613cb1868287016139ba565b9150509250925092565b6000819050919050565b613cce81613cbb565b8114613cd957600080fd5b50565b600081359050613ceb81613cc5565b92915050565b60008060408385031215613d0857613d07613822565b5b6000613d1685828601613cdc565b9250506020613d27858286016139ba565b9150509250929050565b600060208284031215613d4757613d46613822565b5b6000613d5584828501613cdc565b91505092915050565b613d6781613cbb565b82525050565b6000602082019050613d826000830184613d5e565b92915050565b6000600a9050919050565b600081905092915050565b6000819050919050565b613db181613999565b82525050565b6000613dc38383613da8565b60208301905092915050565b6000602082019050919050565b613de581613d88565b613def8184613d93565b9250613dfa82613d9e565b8060005b83811015613e2b578151613e128782613db7565b9650613e1d83613dcf565b925050600181019050613dfe565b505050505050565b600061014082019050613e496000830184613ddc565b92915050565b613e5881613999565b82525050565b6000602082019050613e736000830184613e4f565b92915050565b600060208284031215613e8f57613e8e613822565b5b6000613e9d84828501613a6f565b91505092915050565b600063ffffffff82169050919050565b613ebf81613ea6565b82525050565b6000602082019050613eda6000830184613eb6565b92915050565b613ee9816138b1565b8114613ef457600080fd5b50565b600081359050613f0681613ee0565b92915050565b60008060408385031215613f2357613f22613822565b5b6000613f3185828601613a6f565b9250506020613f4285828601613ef7565b9150509250929050565b7f4e487b7100000000000000000000000000000000000000000000000000000000600052602160045260246000fd5b600a8110613f8c57613f8b613f4c565b5b50565b6000819050613f9d82613f7b565b919050565b6000613fad82613f8f565b9050919050565b613fbd81613fa2565b82525050565b6000602082019050613fd86000830184613fb4565b92915050565b600080fd5b600067ffffffffffffffff821115613ffe57613ffd613ac9565b5b6140078261392d565b9050602081019050919050565b82818337600083830152505050565b600061403661403184613fe3565b613b29565b90508281526020810184848401111561405257614051613fde565b5b61405d848285614014565b509392505050565b600082601f83011261407a57614079613ac4565b5b813561408a848260208601614023565b91505092915050565b600080600080608085870312156140ad576140ac613822565b5b60006140bb87828801613a6f565b94505060206140cc87828801613a6f565b93505060406140dd878288016139ba565b925050606085013567ffffffffffffffff8111156140fe576140fd613827565b5b61410a87828801614065565b91505092959194509250565b6000806040838503121561412d5761412c613822565b5b600061413b85828601613a6f565b925050602061414c85828601613a6f565b9150509250929050565b7f4e487b7100000000000000000000000000000000000000000000000000000000600052602260045260246000fd5b6000600282049050600182168061419d57607f821691505b6020821081036141b0576141af614156565b5b50919050565b7f4552433732313a20617070726f76616c20746f2063757272656e74206f776e6560008201527f7200000000000000000000000000000000000000000000000000000000000000602082015250565b60006142126021836138f2565b915061421d826141b6565b604082019050919050565b6000602082019050818103600083015261424181614205565b9050919050565b7f4552433732313a20617070726f76652063616c6c6572206973206e6f7420746f60008201527f6b656e206f776e6572206f7220617070726f76656420666f7220616c6c000000602082015250565b60006142a4603d836138f2565b91506142af82614248565b604082019050919050565b600060208201905081810360008301526142d381614297565b9050919050565b60006040820190506142ef6000830185613a2e565b6142fc6020830184613a2e565b9392505050565b7f4552433732313a2063616c6c6572206973206e6f7420746f6b656e206f776e6560008201527f72206f7220617070726f76656400000000000000000000000000000000000000602082015250565b600061435f602d836138f2565b915061436a82614303565b604082019050919050565b6000602082019050818103600083015261438e81614352565b9050919050565b7f536f75726365206d75737420626520746865206f7261636c65206f662074686560008201527f2072657175657374000000000000000000000000000000000000000000000000602082015250565b60006143f16028836138f2565b91506143fc82614395565b604082019050919050565b60006020820190508181036000830152614420816143e4565b9050919050565b600081905092915050565b7f68747470733a2f2f61702d6a6f762e636f6c79736575732e6465762f6368616960008201527f6e2f63616e2d6d696e742d616d6f756e743f0000000000000000000000000000602082015250565b600061448e603283614427565b915061449982614432565b603282019050919050565b60006144af826138e7565b6144b98185614427565b93506144c9818560208601613903565b80840191505092915050565b60006144e082614481565b91506144ec82846144a4565b915081905092915050565b60006040820190508181036000830152614511818561393e565b90506145206020830184613a2e565b9392505050565b7f4552433732313a20696e76616c696420746f6b656e2049440000000000000000600082015250565b600061455d6018836138f2565b915061456882614527565b602082019050919050565b6000602082019050818103600083015261458c81614550565b9050919050565b7f4552433732313a2061646472657373207a65726f206973206e6f74206120766160008201527f6c6964206f776e65720000000000000000000000000000000000000000000000602082015250565b60006145ef6029836138f2565b91506145fa82614593565b604082019050919050565b6000602082019050818103600083015261461e816145e2565b9050919050565b600081519050614634816139a3565b92915050565b6000602082840312156146505761464f613822565b5b600061465e84828501614625565b91505092915050565b600060408201905061467c6000830185613a2e565b6146896020830184613e4f565b9392505050565b60008151905061469f81613ee0565b92915050565b6000602082840312156146bb576146ba613822565b5b60006146c984828501614690565b91505092915050565b7f556e61626c6520746f207472616e736665720000000000000000000000000000600082015250565b60006147086012836138f2565b9150614713826146d2565b602082019050919050565b60006020820190508181036000830152614737816146fb565b9050919050565b7f4e487b7100000000000000000000000000000000000000000000000000000000600052603260045260246000fd5b7f4e487b7100000000000000000000000000000000000000000000000000000000600052601160045260246000fd5b60006147a782613999565b91507fffffffffffffffffffffffffffffffffffffffffffffffffffffffffffffffff82036147d9576147d861476d565b5b600182019050919050565b600067ffffffffffffffff82169050919050565b614801816147e4565b82525050565b600061ffff82169050919050565b61481e81614807565b82525050565b600060a0820190506148396000830188613d5e565b61484660208301876147f8565b6148536040830186614815565b6148606060830185613eb6565b61486d6080830184613eb6565b9695505050505050565b600061488382856144a4565b915061488f82846144a4565b91508190509392505050565b7f4f776e61626c653a206e6577206f776e657220697320746865207a65726f206160008201527f6464726573730000000000000000000000000000000000000000000000000000602082015250565b60006148f76026836138f2565b91506149028261489b565b604082019050919050565b60006020820190508181036000830152614926816148ea565b9050919050565b600061493882613999565b915061494383613999565b925082820190508082111561495b5761495a61476d565b5b92915050565b7f4e487b7100000000000000000000000000000000000000000000000000000000600052601260045260246000fd5b600061499b82613999565b91506149a683613999565b9250826149b6576149b5614961565b5b828206905092915050565b60006040820190506149d66000830185613fb4565b6149e36020830184613a2e565b9392505050565b7f4552433732313a207472616e736665722066726f6d20696e636f72726563742060008201527f6f776e6572000000000000000000000000000000000000000000000000000000602082015250565b6000614a466025836138f2565b9150614a51826149ea565b604082019050919050565b60006020820190508181036000830152614a7581614a39565b9050919050565b7f4552433732313a207472616e7366657220746f20746865207a65726f2061646460008201527f7265737300000000000000000000000000000000000000000000000000000000602082015250565b6000614ad86024836138f2565b9150614ae382614a7c565b604082019050919050565b60006020820190508181036000830152614b0781614acb565b9050919050565b6000614b1982613999565b9150614b2483613999565b9250828202614b3281613999565b91508282048414831517614b4957614b4861476d565b5b5092915050565b6000614b5b82613999565b915060008203614b6e57614b6d61476d565b5b600182039050919050565b7f537472696e67733a20686578206c656e67746820696e73756666696369656e74600082015250565b6000614baf6020836138f2565b9150614bba82614b79565b602082019050919050565b60006020820190508181036000830152614bde81614ba2565b9050919050565b7f4f776e61626c653a2063616c6c6572206973206e6f7420746865206f776e6572600082015250565b6000614c1b6020836138f2565b9150614c2682614be5565b602082019050919050565b60006020820190508181036000830152614c4a81614c0e565b9050919050565b7f4552433732313a20617070726f766520746f2063616c6c657200000000000000600082015250565b6000614c876019836138f2565b9150614c9282614c51565b602082019050919050565b60006020820190508181036000830152614cb681614c7a565b9050919050565b7f4552433732313a207472616e7366657220746f206e6f6e20455243373231526560008201527f63656976657220696d706c656d656e7465720000000000000000000000000000602082015250565b6000614d196032836138f2565b9150614d2482614cbd565b604082019050919050565b60006020820190508181036000830152614d4881614d0c565b9050919050565b7f45524337323155524953746f726167653a2055524920736574206f66206e6f6e60008201527f6578697374656e7420746f6b656e000000000000000000000000000000000000602082015250565b6000614dab602e836138f2565b9150614db682614d4f565b604082019050919050565b60006020820190508181036000830152614dda81614d9e565b9050919050565b60008190508160005260206000209050919050565b60006020601f8301049050919050565b600082821b905092915050565b600060088302614e437fffffffffffffffffffffffffffffffffffffffffffffffffffffffffffffffff82614e06565b614e4d8683614e06565b95508019841693508086168417925050509392505050565b6000819050919050565b6000614e8a614e85614e8084613999565b614e65565b613999565b9050919050565b6000819050919050565b614ea483614e6f565b614eb8614eb082614e91565b848454614e13565b825550505050565b600090565b614ecd614ec0565b614ed8818484614e9b565b505050565b5b81811015614efc57614ef1600082614ec5565b600181019050614ede565b5050565b601f821115614f4157614f1281614de1565b614f1b84614df6565b81016020851015614f2a578190505b614f3e614f3685614df6565b830182614edd565b50505b505050565b600082821c905092915050565b6000614f6460001984600802614f46565b1980831691505092915050565b6000614f7d8383614f53565b9150826002028217905092915050565b614f96826138e7565b67ffffffffffffffff811115614faf57614fae613ac9565b5b614fb98254614185565b614fc4828285614f00565b600060209050601f831160018114614ff75760008415614fe5578287015190505b614fef8582614f71565b865550615057565b601f19841661500586614de1565b60005b8281101561502d57848901518255600182019150602085019450602081019050615008565b8683101561504a5784890151615046601f891682614f53565b8355505b6001600288020188555050505b505050505050565b600061506a82613999565b915061507583613999565b925082820390508181111561508d5761508c61476d565b5b92915050565b6000819050919050565b60006150a882615093565b91506150b383615093565b92508282039050818112600084121682821360008512151617156150da576150d961476d565b5b92915050565b6150e98161382c565b82525050565b600081519050919050565b600082825260208201905092915050565b6000615116826150ef565b61512081856150fa565b9350615130818560208601613903565b6151398161392d565b840191505092915050565b60006101008201905061515a600083018b613a2e565b615167602083018a613e4f565b6151746040830189613d5e565b6151816060830188613a2e565b61518e60808301876150e0565b61519b60a0830186613e4f565b6151a860c0830185613e4f565b81810360e08301526151ba818461510b565b90509998505050505050505050565b60006080820190506151de6000830187613a2e565b6151eb6020830186613a2e565b6151f86040830185613e4f565b818103606083015261520a818461510b565b905095945050505050565b60008151905061522481613858565b92915050565b6000602082840312156152405761523f613822565b5b600061524e84828501615215565b91505092915050565b600061527261526d615268846139fc565b614e65565b6139fc565b9050919050565b600061528482615257565b9050919050565b600061529682615279565b9050919050565b60008160601b9050919050565b60006152b58261529d565b9050919050565b60006152c7826152aa565b9050919050565b6152df6152da8261528b565b6152bc565b82525050565b6000819050919050565b6153006152fb82613999565b6152e5565b82525050565b600061531282856152ce565b60148201915061532282846152ef565b6020820191508190509392505050565b60006060820190506153476000830186613a2e565b6153546020830185613e4f565b8181036040830152615366818461510b565b9050949350505050565b7f756e61626c6520746f207472616e73666572416e6443616c6c20746f206f726160008201527f636c650000000000000000000000000000000000000000000000000000000000602082015250565b60006153cc6023836138f2565b91506153d782615370565b604082019050919050565b600060208201905081810360008301526153fb816153bf565b9050919050565b7f4552433732313a206d696e7420746f20746865207a65726f2061646472657373600082015250565b60006154386020836138f2565b915061544382615402565b602082019050919050565b600060208201905081810360008301526154678161542b565b9050919050565b7f4552433732313a20746f6b656e20616c7265616479206d696e74656400000000600082015250565b60006154a4601c836138f2565b91506154af8261546e565b602082019050919050565b600060208201905081810360008301526154d381615497565b9050919050565b60008160011c9050919050565b6000808291508390505b60018511156155315780860481111561550d5761550c61476d565b5b600185161561551c5780820291505b808102905061552a856154da565b94506154f1565b94509492505050565b60008261554a5760019050615606565b816155585760009050615606565b816001811461556e5760028114615578576155a7565b6001915050615606565b60ff84111561558a5761558961476d565b5b8360020a9150848211156155a1576155a061476d565b5b50615606565b5060208310610133831016604e8410600b84101617156155dc5782820a9050838111156155d7576155d661476d565b5b615606565b6155e984848460016154e7565b92509050818404811115615600576155ff61476d565b5b81810290505b9392505050565b600061561882613999565b915061562383613999565b92506156507fffffffffffffffffffffffffffffffffffffffffffffffffffffffffffffffff848461553a565b90509291505056fea264697066735822122045ca5143a531c07b6a7b06ccad20a6d711df5df15b9cdb5a43518ee5eb016dba64736f6c63430008110033",
  "devdoc": {
    "kind": "dev",
    "methods": {
      "approve(address,uint256)": {
        "details": "See {IERC721-approve}."
      },
      "balanceOf(address)": {
        "details": "See {IERC721-balanceOf}."
      },
      "getApproved(uint256)": {
        "details": "See {IERC721-getApproved}."
      },
      "isApprovedForAll(address,address)": {
        "details": "See {IERC721-isApprovedForAll}."
      },
      "name()": {
        "details": "See {IERC721Metadata-name}."
      },
      "owner()": {
        "details": "Returns the address of the current owner."
      },
      "ownerOf(uint256)": {
        "details": "See {IERC721-ownerOf}."
      },
      "renounceOwnership()": {
        "details": "Leaves the contract without owner. It will not be possible to call `onlyOwner` functions anymore. Can only be called by the current owner. NOTE: Renouncing ownership will leave the contract without an owner, thereby removing any functionality that is only available to the owner."
      },
      "safeTransferFrom(address,address,uint256)": {
        "details": "See {IERC721-safeTransferFrom}."
      },
      "safeTransferFrom(address,address,uint256,bytes)": {
        "details": "See {IERC721-safeTransferFrom}."
      },
      "setApprovalForAll(address,bool)": {
        "details": "See {IERC721-setApprovalForAll}."
      },
      "supportsInterface(bytes4)": {
        "details": "See {IERC165-supportsInterface}."
      },
      "symbol()": {
        "details": "See {IERC721Metadata-symbol}."
      },
      "tokenURI(uint256)": {
        "details": "See {IERC721Metadata-tokenURI}."
      },
      "transferFrom(address,address,uint256)": {
        "details": "See {IERC721-transferFrom}."
      },
      "transferOwnership(address)": {
        "details": "Transfers ownership of the contract to a new account (`newOwner`). Can only be called by the current owner."
      }
    },
    "version": 1
  },
  "userdoc": {
    "kind": "user",
    "methods": {},
    "version": 1
  },
  "storageLayout": {
    "storage": [
      {
        "astId": 2666,
        "contract": "contracts/VrfMint.sol:VrfMint",
        "label": "_name",
        "offset": 0,
        "slot": "0",
        "type": "t_string_storage"
      },
      {
        "astId": 2668,
        "contract": "contracts/VrfMint.sol:VrfMint",
        "label": "_symbol",
        "offset": 0,
        "slot": "1",
        "type": "t_string_storage"
      },
      {
        "astId": 2672,
        "contract": "contracts/VrfMint.sol:VrfMint",
        "label": "_owners",
        "offset": 0,
        "slot": "2",
        "type": "t_mapping(t_uint256,t_address)"
      },
      {
        "astId": 2676,
        "contract": "contracts/VrfMint.sol:VrfMint",
        "label": "_balances",
        "offset": 0,
        "slot": "3",
        "type": "t_mapping(t_address,t_uint256)"
      },
      {
        "astId": 2680,
        "contract": "contracts/VrfMint.sol:VrfMint",
        "label": "_tokenApprovals",
        "offset": 0,
        "slot": "4",
        "type": "t_mapping(t_uint256,t_address)"
      },
      {
        "astId": 2686,
        "contract": "contracts/VrfMint.sol:VrfMint",
        "label": "_operatorApprovals",
        "offset": 0,
        "slot": "5",
        "type": "t_mapping(t_address,t_mapping(t_address,t_bool))"
      },
      {
        "astId": 3732,
        "contract": "contracts/VrfMint.sol:VrfMint",
        "label": "_tokenURIs",
        "offset": 0,
        "slot": "6",
        "type": "t_mapping(t_uint256,t_string_storage)"
      },
      {
        "astId": 2535,
        "contract": "contracts/VrfMint.sol:VrfMint",
        "label": "_owner",
        "offset": 0,
        "slot": "7",
        "type": "t_address"
      },
      {
        "astId": 319,
        "contract": "contracts/VrfMint.sol:VrfMint",
        "label": "s_ens",
        "offset": 0,
        "slot": "8",
        "type": "t_contract(ENSInterface)1214"
      },
      {
        "astId": 321,
        "contract": "contracts/VrfMint.sol:VrfMint",
        "label": "s_ensNode",
        "offset": 0,
        "slot": "9",
        "type": "t_bytes32"
      },
      {
        "astId": 324,
        "contract": "contracts/VrfMint.sol:VrfMint",
        "label": "s_link",
        "offset": 0,
        "slot": "10",
        "type": "t_contract(LinkTokenInterface)1309"
      },
      {
        "astId": 327,
        "contract": "contracts/VrfMint.sol:VrfMint",
        "label": "s_oracle",
        "offset": 0,
        "slot": "11",
        "type": "t_contract(OperatorInterface)1389"
      },
      {
        "astId": 330,
        "contract": "contracts/VrfMint.sol:VrfMint",
        "label": "s_requestCount",
        "offset": 0,
        "slot": "12",
        "type": "t_uint256"
      },
      {
        "astId": 334,
        "contract": "contracts/VrfMint.sol:VrfMint",
        "label": "s_pendingRequests",
        "offset": 0,
        "slot": "13",
        "type": "t_mapping(t_bytes32,t_address)"
      },
      {
        "astId": 5339,
        "contract": "contracts/VrfMint.sol:VrfMint",
        "label": "i_gasLane",
        "offset": 0,
        "slot": "14",
        "type": "t_bytes32"
      },
      {
        "astId": 5342,
        "contract": "contracts/VrfMint.sol:VrfMint",
        "label": "i_callbackGasLimit",
        "offset": 0,
        "slot": "15",
        "type": "t_uint32"
      },
      {
        "astId": 5350,
        "contract": "contracts/VrfMint.sol:VrfMint",
        "label": "s_tokenCounter",
        "offset": 0,
        "slot": "16",
        "type": "t_uint256"
      },
      {
        "astId": 5355,
        "contract": "contracts/VrfMint.sol:VrfMint",
        "label": "s_tokenIdToBreed",
        "offset": 0,
        "slot": "17",
        "type": "t_mapping(t_uint256,t_enum(Breed)5331)"
      },
      {
        "astId": 5361,
        "contract": "contracts/VrfMint.sol:VrfMint",
        "label": "s_fishTokenUris",
        "offset": 0,
        "slot": "18",
        "type": "t_array(t_string_storage)dyn_storage"
      },
      {
        "astId": 5363,
        "contract": "contracts/VrfMint.sol:VrfMint",
        "label": "s_initialized",
        "offset": 0,
        "slot": "19",
        "type": "t_bool"
      },
      {
        "astId": 5369,
        "contract": "contracts/VrfMint.sol:VrfMint",
        "label": "volume",
        "offset": 0,
        "slot": "20",
        "type": "t_uint256"
      },
      {
        "astId": 5371,
        "contract": "contracts/VrfMint.sol:VrfMint",
        "label": "jobId",
        "offset": 0,
        "slot": "21",
        "type": "t_bytes32"
      },
      {
        "astId": 5373,
        "contract": "contracts/VrfMint.sol:VrfMint",
        "label": "fee",
        "offset": 0,
        "slot": "22",
        "type": "t_uint256"
      },
      {
        "astId": 5389,
        "contract": "contracts/VrfMint.sol:VrfMint",
        "label": "canMintAmount",
        "offset": 0,
        "slot": "23",
        "type": "t_mapping(t_address,t_uint32)"
      },
      {
        "astId": 5393,
        "contract": "contracts/VrfMint.sol:VrfMint",
        "label": "requestParams",
        "offset": 0,
        "slot": "24",
        "type": "t_mapping(t_bytes32,t_address)"
      },
      {
        "astId": 5397,
        "contract": "contracts/VrfMint.sol:VrfMint",
        "label": "s_requestIdToSender",
        "offset": 0,
        "slot": "25",
        "type": "t_mapping(t_uint256,t_address)"
      }
    ],
    "types": {
      "t_address": {
        "encoding": "inplace",
        "label": "address",
        "numberOfBytes": "20"
      },
      "t_array(t_string_storage)dyn_storage": {
        "base": "t_string_storage",
        "encoding": "dynamic_array",
        "label": "string[]",
        "numberOfBytes": "32"
      },
      "t_bool": {
        "encoding": "inplace",
        "label": "bool",
        "numberOfBytes": "1"
      },
      "t_bytes32": {
        "encoding": "inplace",
        "label": "bytes32",
        "numberOfBytes": "32"
      },
      "t_contract(ENSInterface)1214": {
        "encoding": "inplace",
        "label": "contract ENSInterface",
        "numberOfBytes": "20"
      },
      "t_contract(LinkTokenInterface)1309": {
        "encoding": "inplace",
        "label": "contract LinkTokenInterface",
        "numberOfBytes": "20"
      },
      "t_contract(OperatorInterface)1389": {
        "encoding": "inplace",
        "label": "contract OperatorInterface",
        "numberOfBytes": "20"
      },
      "t_enum(Breed)5331": {
        "encoding": "inplace",
        "label": "enum VrfMint.Breed",
        "numberOfBytes": "1"
      },
      "t_mapping(t_address,t_bool)": {
        "encoding": "mapping",
        "key": "t_address",
        "label": "mapping(address => bool)",
        "numberOfBytes": "32",
        "value": "t_bool"
      },
      "t_mapping(t_address,t_mapping(t_address,t_bool))": {
        "encoding": "mapping",
        "key": "t_address",
        "label": "mapping(address => mapping(address => bool))",
        "numberOfBytes": "32",
        "value": "t_mapping(t_address,t_bool)"
      },
      "t_mapping(t_address,t_uint256)": {
        "encoding": "mapping",
        "key": "t_address",
        "label": "mapping(address => uint256)",
        "numberOfBytes": "32",
        "value": "t_uint256"
      },
      "t_mapping(t_address,t_uint32)": {
        "encoding": "mapping",
        "key": "t_address",
        "label": "mapping(address => uint32)",
        "numberOfBytes": "32",
        "value": "t_uint32"
      },
      "t_mapping(t_bytes32,t_address)": {
        "encoding": "mapping",
        "key": "t_bytes32",
        "label": "mapping(bytes32 => address)",
        "numberOfBytes": "32",
        "value": "t_address"
      },
      "t_mapping(t_uint256,t_address)": {
        "encoding": "mapping",
        "key": "t_uint256",
        "label": "mapping(uint256 => address)",
        "numberOfBytes": "32",
        "value": "t_address"
      },
      "t_mapping(t_uint256,t_enum(Breed)5331)": {
        "encoding": "mapping",
        "key": "t_uint256",
        "label": "mapping(uint256 => enum VrfMint.Breed)",
        "numberOfBytes": "32",
        "value": "t_enum(Breed)5331"
      },
      "t_mapping(t_uint256,t_string_storage)": {
        "encoding": "mapping",
        "key": "t_uint256",
        "label": "mapping(uint256 => string)",
        "numberOfBytes": "32",
        "value": "t_string_storage"
      },
      "t_string_storage": {
        "encoding": "bytes",
        "label": "string",
        "numberOfBytes": "32"
      },
      "t_uint256": {
        "encoding": "inplace",
        "label": "uint256",
        "numberOfBytes": "32"
      },
      "t_uint32": {
        "encoding": "inplace",
        "label": "uint32",
        "numberOfBytes": "4"
      }
    }
  }
}