{
  "address": "0x52bF793b02810469902BC87a47A4142c0b2264BF",
  "abi": [
    {
      "inputs": [
        {
          "internalType": "address",
          "name": "vrfCoordinatorV2",
          "type": "address"
        },
        {
          "internalType": "uint64",
          "name": "subscriptionId",
          "type": "uint64"
        },
        {
          "internalType": "string[20]",
          "name": "hackmonTokenUris",
          "type": "string[20]"
        }
      ],
      "stateMutability": "nonpayable",
      "type": "constructor"
    },
    {
      "inputs": [],
      "name": "AlreadyInitialized",
      "type": "error"
    },
    {
      "inputs": [
        {
          "internalType": "address",
          "name": "have",
          "type": "address"
        },
        {
          "internalType": "address",
          "name": "want",
          "type": "address"
        }
      ],
      "name": "OnlyCoordinatorCanFulfill",
      "type": "error"
    },
    {
      "inputs": [],
      "name": "RangeOutOfBounds",
      "type": "error"
    },
    {
      "anonymous": false,
      "inputs": [
        {
          "indexed": false,
          "internalType": "address",
          "name": "minter",
          "type": "address"
        },
        {
          "indexed": false,
          "internalType": "uint32",
          "name": "amount",
          "type": "uint32"
        }
      ],
      "name": "AmountMint",
      "type": "event"
    },
    {
      "anonymous": false,
      "inputs": [
        {
          "indexed": true,
          "internalType": "address",
          "name": "owner",
          "type": "address"
        },
        {
          "indexed": true,
          "internalType": "address",
          "name": "approved",
          "type": "address"
        },
        {
          "indexed": true,
          "internalType": "uint256",
          "name": "tokenId",
          "type": "uint256"
        }
      ],
      "name": "Approval",
      "type": "event"
    },
    {
      "anonymous": false,
      "inputs": [
        {
          "indexed": true,
          "internalType": "address",
          "name": "owner",
          "type": "address"
        },
        {
          "indexed": true,
          "internalType": "address",
          "name": "operator",
          "type": "address"
        },
        {
          "indexed": false,
          "internalType": "bool",
          "name": "approved",
          "type": "bool"
        }
      ],
      "name": "ApprovalForAll",
      "type": "event"
    },
    {
      "anonymous": false,
      "inputs": [
        {
          "indexed": true,
          "internalType": "bytes32",
          "name": "id",
          "type": "bytes32"
        }
      ],
      "name": "ChainlinkCancelled",
      "type": "event"
    },
    {
      "anonymous": false,
      "inputs": [
        {
          "indexed": true,
          "internalType": "bytes32",
          "name": "id",
          "type": "bytes32"
        }
      ],
      "name": "ChainlinkFulfilled",
      "type": "event"
    },
    {
      "anonymous": false,
      "inputs": [
        {
          "indexed": true,
          "internalType": "bytes32",
          "name": "id",
          "type": "bytes32"
        }
      ],
      "name": "ChainlinkRequested",
      "type": "event"
    },
    {
      "anonymous": false,
      "inputs": [
        {
          "indexed": false,
          "internalType": "enum VrfMint.Breed",
          "name": "breed",
          "type": "uint8"
        },
        {
          "indexed": false,
          "internalType": "address",
          "name": "minter",
          "type": "address"
        }
      ],
      "name": "NftMinted",
      "type": "event"
    },
    {
      "anonymous": false,
      "inputs": [
        {
          "indexed": true,
          "internalType": "uint256",
          "name": "requestId",
          "type": "uint256"
        },
        {
          "indexed": false,
          "internalType": "address",
          "name": "requester",
          "type": "address"
        }
      ],
      "name": "NftRequested",
      "type": "event"
    },
    {
      "anonymous": false,
      "inputs": [
        {
          "indexed": true,
          "internalType": "address",
          "name": "previousOwner",
          "type": "address"
        },
        {
          "indexed": true,
          "internalType": "address",
          "name": "newOwner",
          "type": "address"
        }
      ],
      "name": "OwnershipTransferred",
      "type": "event"
    },
    {
      "anonymous": false,
      "inputs": [
        {
          "indexed": true,
          "internalType": "bytes32",
          "name": "requestId",
          "type": "bytes32"
        },
        {
          "indexed": false,
          "internalType": "uint256",
          "name": "amount",
          "type": "uint256"
        }
      ],
      "name": "RequestAmount",
      "type": "event"
    },
    {
      "anonymous": false,
      "inputs": [
        {
          "indexed": false,
          "internalType": "string",
          "name": "url",
          "type": "string"
        },
        {
          "indexed": false,
          "internalType": "address",
          "name": "requester",
          "type": "address"
        }
      ],
      "name": "RequestUrl",
      "type": "event"
    },
    {
      "anonymous": false,
      "inputs": [
        {
          "indexed": true,
          "internalType": "address",
          "name": "from",
          "type": "address"
        },
        {
          "indexed": true,
          "internalType": "address",
          "name": "to",
          "type": "address"
        },
        {
          "indexed": true,
          "internalType": "uint256",
          "name": "tokenId",
          "type": "uint256"
        }
      ],
      "name": "Transfer",
      "type": "event"
    },
    {
      "inputs": [
        {
          "internalType": "address",
          "name": "to",
          "type": "address"
        },
        {
          "internalType": "uint256",
          "name": "tokenId",
          "type": "uint256"
        }
      ],
      "name": "approve",
      "outputs": [],
      "stateMutability": "nonpayable",
      "type": "function"
    },
    {
      "inputs": [
        {
          "internalType": "address",
          "name": "owner",
          "type": "address"
        }
      ],
      "name": "balanceOf",
      "outputs": [
        {
          "internalType": "uint256",
          "name": "",
          "type": "uint256"
        }
      ],
      "stateMutability": "view",
      "type": "function"
    },
    {
      "inputs": [
        {
          "internalType": "address",
          "name": "",
          "type": "address"
        }
      ],
      "name": "canMintAmount",
      "outputs": [
        {
          "internalType": "uint32",
          "name": "",
          "type": "uint32"
        }
      ],
      "stateMutability": "view",
      "type": "function"
    },
    {
      "inputs": [
        {
          "internalType": "bytes32",
          "name": "_requestId",
          "type": "bytes32"
        },
        {
          "internalType": "uint256",
          "name": "_val",
          "type": "uint256"
        }
      ],
      "name": "fulfill",
      "outputs": [],
      "stateMutability": "nonpayable",
      "type": "function"
    },
    {
      "inputs": [],
      "name": "getAmount",
      "outputs": [
        {
          "internalType": "bytes32",
          "name": "requestId",
          "type": "bytes32"
        }
      ],
      "stateMutability": "nonpayable",
      "type": "function"
    },
    {
      "inputs": [
        {
          "internalType": "uint256",
          "name": "tokenId",
          "type": "uint256"
        }
      ],
      "name": "getApproved",
      "outputs": [
        {
          "internalType": "address",
          "name": "",
          "type": "address"
        }
      ],
      "stateMutability": "view",
      "type": "function"
    },
    {
      "inputs": [
        {
          "internalType": "uint256",
          "name": "moddedRng",
          "type": "uint256"
        }
      ],
      "name": "getBreedFromModdedRng",
      "outputs": [
        {
          "internalType": "enum VrfMint.Breed",
          "name": "",
          "type": "uint8"
        }
      ],
      "stateMutability": "pure",
      "type": "function"
    },
    {
      "inputs": [],
      "name": "getChanceArray",
      "outputs": [
        {
          "internalType": "uint256[20]",
          "name": "",
          "type": "uint256[20]"
        }
      ],
      "stateMutability": "pure",
      "type": "function"
    },
    {
      "inputs": [],
      "name": "getInitialized",
      "outputs": [
        {
          "internalType": "bool",
          "name": "",
          "type": "bool"
        }
      ],
      "stateMutability": "view",
      "type": "function"
    },
    {
      "inputs": [],
      "name": "getTokenCounter",
      "outputs": [
        {
          "internalType": "uint256",
          "name": "",
          "type": "uint256"
        }
      ],
      "stateMutability": "view",
      "type": "function"
    },
    {
      "inputs": [
        {
          "internalType": "uint256",
          "name": "index",
          "type": "uint256"
        }
      ],
      "name": "gethackmonTokenUris",
      "outputs": [
        {
          "internalType": "string",
          "name": "",
          "type": "string"
        }
      ],
      "stateMutability": "view",
      "type": "function"
    },
    {
      "inputs": [
        {
          "internalType": "address",
          "name": "owner",
          "type": "address"
        },
        {
          "internalType": "address",
          "name": "operator",
          "type": "address"
        }
      ],
      "name": "isApprovedForAll",
      "outputs": [
        {
          "internalType": "bool",
          "name": "",
          "type": "bool"
        }
      ],
      "stateMutability": "view",
      "type": "function"
    },
    {
      "inputs": [],
      "name": "mint",
      "outputs": [
        {
          "internalType": "uint256",
          "name": "requestId",
          "type": "uint256"
        }
      ],
      "stateMutability": "nonpayable",
      "type": "function"
    },
    {
      "inputs": [],
      "name": "name",
      "outputs": [
        {
          "internalType": "string",
          "name": "",
          "type": "string"
        }
      ],
      "stateMutability": "view",
      "type": "function"
    },
    {
      "inputs": [],
      "name": "owner",
      "outputs": [
        {
          "internalType": "address",
          "name": "",
          "type": "address"
        }
      ],
      "stateMutability": "view",
      "type": "function"
    },
    {
      "inputs": [
        {
          "internalType": "uint256",
          "name": "tokenId",
          "type": "uint256"
        }
      ],
      "name": "ownerOf",
      "outputs": [
        {
          "internalType": "address",
          "name": "",
          "type": "address"
        }
      ],
      "stateMutability": "view",
      "type": "function"
    },
    {
      "inputs": [
        {
          "internalType": "uint256",
          "name": "requestId",
          "type": "uint256"
        },
        {
          "internalType": "uint256[]",
          "name": "randomWords",
          "type": "uint256[]"
        }
      ],
      "name": "rawFulfillRandomWords",
      "outputs": [],
      "stateMutability": "nonpayable",
      "type": "function"
    },
    {
      "inputs": [],
      "name": "renounceOwnership",
      "outputs": [],
      "stateMutability": "nonpayable",
      "type": "function"
    },
    {
      "inputs": [
        {
          "internalType": "bytes32",
          "name": "",
          "type": "bytes32"
        }
      ],
      "name": "requestParams",
      "outputs": [
        {
          "internalType": "address",
          "name": "",
          "type": "address"
        }
      ],
      "stateMutability": "view",
      "type": "function"
    },
    {
      "inputs": [
        {
          "internalType": "uint256",
          "name": "",
          "type": "uint256"
        }
      ],
      "name": "s_requestIdToSender",
      "outputs": [
        {
          "internalType": "address",
          "name": "",
          "type": "address"
        }
      ],
      "stateMutability": "view",
      "type": "function"
    },
    {
      "inputs": [
        {
          "internalType": "address",
          "name": "from",
          "type": "address"
        },
        {
          "internalType": "address",
          "name": "to",
          "type": "address"
        },
        {
          "internalType": "uint256",
          "name": "tokenId",
          "type": "uint256"
        }
      ],
      "name": "safeTransferFrom",
      "outputs": [],
      "stateMutability": "nonpayable",
      "type": "function"
    },
    {
      "inputs": [
        {
          "internalType": "address",
          "name": "from",
          "type": "address"
        },
        {
          "internalType": "address",
          "name": "to",
          "type": "address"
        },
        {
          "internalType": "uint256",
          "name": "tokenId",
          "type": "uint256"
        },
        {
          "internalType": "bytes",
          "name": "data",
          "type": "bytes"
        }
      ],
      "name": "safeTransferFrom",
      "outputs": [],
      "stateMutability": "nonpayable",
      "type": "function"
    },
    {
      "inputs": [
        {
          "internalType": "address",
          "name": "operator",
          "type": "address"
        },
        {
          "internalType": "bool",
          "name": "approved",
          "type": "bool"
        }
      ],
      "name": "setApprovalForAll",
      "outputs": [],
      "stateMutability": "nonpayable",
      "type": "function"
    },
    {
      "inputs": [
        {
          "internalType": "bytes4",
          "name": "interfaceId",
          "type": "bytes4"
        }
      ],
      "name": "supportsInterface",
      "outputs": [
        {
          "internalType": "bool",
          "name": "",
          "type": "bool"
        }
      ],
      "stateMutability": "view",
      "type": "function"
    },
    {
      "inputs": [],
      "name": "symbol",
      "outputs": [
        {
          "internalType": "string",
          "name": "",
          "type": "string"
        }
      ],
      "stateMutability": "view",
      "type": "function"
    },
    {
      "inputs": [
        {
          "internalType": "uint256",
          "name": "tokenId",
          "type": "uint256"
        }
      ],
      "name": "tokenURI",
      "outputs": [
        {
          "internalType": "string",
          "name": "",
          "type": "string"
        }
      ],
      "stateMutability": "view",
      "type": "function"
    },
    {
      "inputs": [
        {
          "internalType": "address",
          "name": "from",
          "type": "address"
        },
        {
          "internalType": "address",
          "name": "to",
          "type": "address"
        },
        {
          "internalType": "uint256",
          "name": "tokenId",
          "type": "uint256"
        }
      ],
      "name": "transferFrom",
      "outputs": [],
      "stateMutability": "nonpayable",
      "type": "function"
    },
    {
      "inputs": [
        {
          "internalType": "address",
          "name": "newOwner",
          "type": "address"
        }
      ],
      "name": "transferOwnership",
      "outputs": [],
      "stateMutability": "nonpayable",
      "type": "function"
    },
    {
      "inputs": [],
      "name": "val",
      "outputs": [
        {
          "internalType": "uint256",
          "name": "",
          "type": "uint256"
        }
      ],
      "stateMutability": "view",
      "type": "function"
    },
    {
      "inputs": [],
      "name": "withdrawLink",
      "outputs": [],
      "stateMutability": "nonpayable",
      "type": "function"
    }
  ],
  "transactionHash": "0x65b9e37ff061e35f35c66293f021f327cc75bc46a296060938645e418ae05aec",
  "args": [
    "0x7a1BaC17Ccc5b313516C5E16fb24f7659aA5ebed",
    2526,
    [
      "https://bafybeiawwybjv2x5xj2bshewhwfgnq4zvyzokyzapok4io2hr33yv5tzty.ipfs.nftstorage.link/0.json",
      "https://bafybeiawwybjv2x5xj2bshewhwfgnq4zvyzokyzapok4io2hr33yv5tzty.ipfs.nftstorage.link/1.json",
      "https://bafybeiawwybjv2x5xj2bshewhwfgnq4zvyzokyzapok4io2hr33yv5tzty.ipfs.nftstorage.link/2.json",
      "https://bafybeiawwybjv2x5xj2bshewhwfgnq4zvyzokyzapok4io2hr33yv5tzty.ipfs.nftstorage.link/3.json",
      "https://bafybeiawwybjv2x5xj2bshewhwfgnq4zvyzokyzapok4io2hr33yv5tzty.ipfs.nftstorage.link/4.json",
      "https://bafybeiawwybjv2x5xj2bshewhwfgnq4zvyzokyzapok4io2hr33yv5tzty.ipfs.nftstorage.link/5.json",
      "https://bafybeiawwybjv2x5xj2bshewhwfgnq4zvyzokyzapok4io2hr33yv5tzty.ipfs.nftstorage.link/6.json",
      "https://bafybeiawwybjv2x5xj2bshewhwfgnq4zvyzokyzapok4io2hr33yv5tzty.ipfs.nftstorage.link/7.json",
      "https://bafybeiawwybjv2x5xj2bshewhwfgnq4zvyzokyzapok4io2hr33yv5tzty.ipfs.nftstorage.link/8.json",
      "https://bafybeiawwybjv2x5xj2bshewhwfgnq4zvyzokyzapok4io2hr33yv5tzty.ipfs.nftstorage.link/9.json",
      "https://bafybeiawwybjv2x5xj2bshewhwfgnq4zvyzokyzapok4io2hr33yv5tzty.ipfs.nftstorage.link/10.json",
      "https://bafybeiawwybjv2x5xj2bshewhwfgnq4zvyzokyzapok4io2hr33yv5tzty.ipfs.nftstorage.link/11.json",
      "https://bafybeiawwybjv2x5xj2bshewhwfgnq4zvyzokyzapok4io2hr33yv5tzty.ipfs.nftstorage.link/12.json",
      "https://bafybeiawwybjv2x5xj2bshewhwfgnq4zvyzokyzapok4io2hr33yv5tzty.ipfs.nftstorage.link/13.json",
      "https://bafybeiawwybjv2x5xj2bshewhwfgnq4zvyzokyzapok4io2hr33yv5tzty.ipfs.nftstorage.link/14.json",
      "https://bafybeiawwybjv2x5xj2bshewhwfgnq4zvyzokyzapok4io2hr33yv5tzty.ipfs.nftstorage.link/15.json",
      "https://bafybeiawwybjv2x5xj2bshewhwfgnq4zvyzokyzapok4io2hr33yv5tzty.ipfs.nftstorage.link/16.json",
      "https://bafybeiawwybjv2x5xj2bshewhwfgnq4zvyzokyzapok4io2hr33yv5tzty.ipfs.nftstorage.link/17.json",
      "https://bafybeiawwybjv2x5xj2bshewhwfgnq4zvyzokyzapok4io2hr33yv5tzty.ipfs.nftstorage.link/18.json",
      "https://bafybeiawwybjv2x5xj2bshewhwfgnq4zvyzokyzapok4io2hr33yv5tzty.ipfs.nftstorage.link/19.json"
    ]
  ],
  "numDeployments": 7,
  "solcInputHash": "84c1d82af3a033133a9f42aa4607c40f",
  "bytecode": "0x60e06040526001600c557f4b09e658ed251bcafeebbc69400383d49f344ace09b9576fe248bb02c003fe9f60001b600e55622625a0600f60006101000a81548163ffffffff021916908363ffffffff1602179055503480156200006157600080fd5b50604051620064bc380380620064bc833981810160405281019062000087919062000861565b826040518060400160405280600781526020017f4861636b4d6f6e000000000000000000000000000000000000000000000000008152506040518060400160405280600481526020017f4841434b00000000000000000000000000000000000000000000000000000000815250816000908162000105919062000b27565b50806001908162000117919062000b27565b5050508073ffffffffffffffffffffffffffffffffffffffff1660808173ffffffffffffffffffffffffffffffffffffffff1681525050506200016f620001636200027d60201b60201c565b6200028560201b60201c565b8273ffffffffffffffffffffffffffffffffffffffff1660a08173ffffffffffffffffffffffffffffffffffffffff16815250508167ffffffffffffffff1660c08167ffffffffffffffff1681525050620001d0816200034b60201b60201c565b6000601081905550620001fd73326c977e6efc84e512bb9c30f76e30c160ed06fb620003c560201b60201c565b620002227340193c8518bb267228fc409a613bdbd8ec5a97b36200040960201b60201c565b7f6361393833363663633733313439353762386330313263373266303561656562601581905550600a670de0b6b3a7640000600162000262919062000c3d565b6200026e919062000cb7565b60168190555050505062000cef565b600033905090565b6000600760009054906101000a900473ffffffffffffffffffffffffffffffffffffffff16905081600760006101000a81548173ffffffffffffffffffffffffffffffffffffffff021916908373ffffffffffffffffffffffffffffffffffffffff1602179055508173ffffffffffffffffffffffffffffffffffffffff168173ffffffffffffffffffffffffffffffffffffffff167f8be0079c531659141344cd1fd0a4f28419497f9722a3daafe3b4186f6b6457e060405160405180910390a35050565b601360009054906101000a900460ff161562000393576040517f0dc149f000000000000000000000000000000000000000000000000000000000815260040160405180910390fd5b806012906014620003a69291906200044d565b506001601360006101000a81548160ff02191690831515021790555050565b80600a60006101000a81548173ffffffffffffffffffffffffffffffffffffffff021916908373ffffffffffffffffffffffffffffffffffffffff16021790555050565b80600b60006101000a81548173ffffffffffffffffffffffffffffffffffffffff021916908373ffffffffffffffffffffffffffffffffffffffff16021790555050565b8280548282559060005260206000209081019282156200049a579160200282015b828111156200049957825182908162000488919062000b27565b50916020019190600101906200046e565b5b509050620004a99190620004ad565b5090565b5b80821115620004d15760008181620004c79190620004d5565b50600101620004ae565b5090565b508054620004e39062000916565b6000825580601f10620004f7575062000518565b601f0160209004906000526020600020908101906200051791906200051b565b5b50565b5b80821115620005365760008160009055506001016200051c565b5090565b6000604051905090565b600080fd5b600080fd5b600073ffffffffffffffffffffffffffffffffffffffff82169050919050565b60006200057b826200054e565b9050919050565b6200058d816200056e565b81146200059957600080fd5b50565b600081519050620005ad8162000582565b92915050565b600067ffffffffffffffff82169050919050565b620005d281620005b3565b8114620005de57600080fd5b50565b600081519050620005f281620005c7565b92915050565b600080fd5b6000601f19601f8301169050919050565b7f4e487b7100000000000000000000000000000000000000000000000000000000600052604160045260246000fd5b6200064882620005fd565b810181811067ffffffffffffffff821117156200066a57620006696200060e565b5b80604052505050565b60006200067f6200053a565b90506200068d82826200063d565b919050565b600067ffffffffffffffff821115620006b057620006af6200060e565b5b602082029050919050565b600080fd5b600080fd5b600067ffffffffffffffff821115620006e357620006e26200060e565b5b620006ee82620005fd565b9050602081019050919050565b60005b838110156200071b578082015181840152602081019050620006fe565b60008484015250505050565b60006200073e6200073884620006c5565b62000673565b9050828152602081018484840111156200075d576200075c620006c0565b5b6200076a848285620006fb565b509392505050565b600082601f8301126200078a5762000789620005f8565b5b81516200079c84826020860162000727565b91505092915050565b6000620007bc620007b68462000692565b62000673565b90508060208402830185811115620007d957620007d8620006bb565b5b835b818110156200082757805167ffffffffffffffff811115620008025762000801620005f8565b5b80860162000811898262000772565b85526020850194505050602081019050620007db565b5050509392505050565b600082601f830112620008495762000848620005f8565b5b601462000858848285620007a5565b91505092915050565b6000806000606084860312156200087d576200087c62000544565b5b60006200088d868287016200059c565b9350506020620008a086828701620005e1565b925050604084015167ffffffffffffffff811115620008c457620008c362000549565b5b620008d28682870162000831565b9150509250925092565b600081519050919050565b7f4e487b7100000000000000000000000000000000000000000000000000000000600052602260045260246000fd5b600060028204905060018216806200092f57607f821691505b602082108103620009455762000944620008e7565b5b50919050565b60008190508160005260206000209050919050565b60006020601f8301049050919050565b600082821b905092915050565b600060088302620009af7fffffffffffffffffffffffffffffffffffffffffffffffffffffffffffffffff8262000970565b620009bb868362000970565b95508019841693508086168417925050509392505050565b6000819050919050565b6000819050919050565b600062000a0862000a02620009fc84620009d3565b620009dd565b620009d3565b9050919050565b6000819050919050565b62000a2483620009e7565b62000a3c62000a338262000a0f565b8484546200097d565b825550505050565b600090565b62000a5362000a44565b62000a6081848462000a19565b505050565b5b8181101562000a885762000a7c60008262000a49565b60018101905062000a66565b5050565b601f82111562000ad75762000aa1816200094b565b62000aac8462000960565b8101602085101562000abc578190505b62000ad462000acb8562000960565b83018262000a65565b50505b505050565b600082821c905092915050565b600062000afc6000198460080262000adc565b1980831691505092915050565b600062000b17838362000ae9565b9150826002028217905092915050565b62000b3282620008dc565b67ffffffffffffffff81111562000b4e5762000b4d6200060e565b5b62000b5a825462000916565b62000b6782828562000a8c565b600060209050601f83116001811462000b9f576000841562000b8a578287015190505b62000b96858262000b09565b86555062000c06565b601f19841662000baf866200094b565b60005b8281101562000bd95784890151825560018201915060208501945060208101905062000bb2565b8683101562000bf9578489015162000bf5601f89168262000ae9565b8355505b6001600288020188555050505b505050505050565b7f4e487b7100000000000000000000000000000000000000000000000000000000600052601160045260246000fd5b600062000c4a82620009d3565b915062000c5783620009d3565b925082820262000c6781620009d3565b9150828204841483151762000c815762000c8062000c0e565b5b5092915050565b7f4e487b7100000000000000000000000000000000000000000000000000000000600052601260045260246000fd5b600062000cc482620009d3565b915062000cd183620009d3565b92508262000ce45762000ce362000c88565b5b828204905092915050565b60805160a05160c05161579662000d26600039600061095801526000610919015260008181610b1a0152610b6e01526157966000f3fe608060405234801561001057600080fd5b50600436106101da5760003560e01c8063715018a611610104578063a51cccf3116100a2578063d321fe2911610071578063d321fe2914610569578063e985e9c514610587578063ee89dab4146105b7578063f2fde38b146105d5576101da565b8063a51cccf3146104bd578063b88d4fde146104ed578063c87b56dd14610509578063c9a973cf14610539576101da565b80638f62cbdb116100de5780638f62cbdb1461042357806395d89b4114610453578063a22cb46514610471578063a36f573b1461048d576101da565b8063715018a6146103f15780638da5cb5b146103fb5780638dc654a214610419576101da565b80633c6bb4361161017c5780635dacf5f41161014b5780635dacf5f4146103555780636352211e146103735780636e02007d146103a357806370a08231146103c1576101da565b80633c6bb436146102cf57806342842e0e146102ed5780634357855e1461030957806355ab79cb14610325576101da565b8063095ea7b3116101b8578063095ea7b31461025d5780631249c58b146102795780631fe543e31461029757806323b872dd146102b3576101da565b806301ffc9a7146101df57806306fdde031461020f578063081812fc1461022d575b600080fd5b6101f960048036038101906101f49190613963565b6105f1565b60405161020691906139ab565b60405180910390f35b6102176106d3565b6040516102249190613a56565b60405180910390f35b61024760048036038101906102429190613aae565b610765565b6040516102549190613b1c565b60405180910390f35b61027760048036038101906102729190613b63565b6107ab565b005b6102816108c2565b60405161028e9190613bb2565b60405180910390f35b6102b160048036038101906102ac9190613d15565b610b18565b005b6102cd60048036038101906102c89190613d71565b610bd8565b005b6102d7610c38565b6040516102e49190613bb2565b60405180910390f35b61030760048036038101906103029190613d71565b610c3e565b005b610323600480360381019061031e9190613dfa565b610c5e565b005b61033f600480360381019061033a9190613e3a565b610e3d565b60405161034c9190613b1c565b60405180910390f35b61035d610e70565b60405161036a9190613f12565b60405180910390f35b61038d60048036038101906103889190613aae565b610f13565b60405161039a9190613b1c565b60405180910390f35b6103ab610f99565b6040516103b89190613bb2565b60405180910390f35b6103db60048036038101906103d69190613f2e565b610fa3565b6040516103e89190613bb2565b60405180910390f35b6103f961105a565b005b61040361106e565b6040516104109190613b1c565b60405180910390f35b610421611098565b005b61043d60048036038101906104389190613f2e565b6111e5565b60405161044a9190613f7a565b60405180910390f35b61045b611208565b6040516104689190613a56565b60405180910390f35b61048b60048036038101906104869190613fc1565b61129a565b005b6104a760048036038101906104a29190613aae565b6112b0565b6040516104b49190613b1c565b60405180910390f35b6104d760048036038101906104d29190613aae565b6112e3565b6040516104e49190614078565b60405180910390f35b61050760048036038101906105029190614148565b6113af565b005b610523600480360381019061051e9190613aae565b611411565b6040516105309190613a56565b60405180910390f35b610553600480360381019061054e9190613aae565b611523565b6040516105609190613a56565b60405180910390f35b6105716115d3565b60405161057e91906141da565b60405180910390f35b6105a1600480360381019061059c91906141f5565b6117fa565b6040516105ae91906139ab565b60405180910390f35b6105bf61188e565b6040516105cc91906139ab565b60405180910390f35b6105ef60048036038101906105ea9190613f2e565b6118a5565b005b60007f80ac58cd000000000000000000000000000000000000000000000000000000007bffffffffffffffffffffffffffffffffffffffffffffffffffffffff1916827bffffffffffffffffffffffffffffffffffffffffffffffffffffffff191614806106bc57507f5b5e139f000000000000000000000000000000000000000000000000000000007bffffffffffffffffffffffffffffffffffffffffffffffffffffffff1916827bffffffffffffffffffffffffffffffffffffffffffffffffffffffff1916145b806106cc57506106cb82611928565b5b9050919050565b6060600080546106e290614264565b80601f016020809104026020016040519081016040528092919081815260200182805461070e90614264565b801561075b5780601f106107305761010080835404028352916020019161075b565b820191906000526020600020905b81548152906001019060200180831161073e57829003601f168201915b5050505050905090565b600061077082611992565b6004600083815260200190815260200160002060009054906101000a900473ffffffffffffffffffffffffffffffffffffffff169050919050565b60006107b682610f13565b90508073ffffffffffffffffffffffffffffffffffffffff168373ffffffffffffffffffffffffffffffffffffffff1603610826576040517f08c379a000000000000000000000000000000000000000000000000000000000815260040161081d90614307565b60405180910390fd5b8073ffffffffffffffffffffffffffffffffffffffff166108456119dd565b73ffffffffffffffffffffffffffffffffffffffff16148061087457506108738161086e6119dd565b6117fa565b5b6108b3576040517f08c379a00000000000000000000000000000000000000000000000000000000081526004016108aa90614399565b60405180910390fd5b6108bd83836119e5565b505050565b600080601760003373ffffffffffffffffffffffffffffffffffffffff1673ffffffffffffffffffffffffffffffffffffffff16815260200190815260200160002060009054906101000a900463ffffffff1690507f000000000000000000000000000000000000000000000000000000000000000073ffffffffffffffffffffffffffffffffffffffff16635d3b1d30600e547f00000000000000000000000000000000000000000000000000000000000000006003600f60009054906101000a900463ffffffff16866040518663ffffffff1660e01b81526004016109ad9594939291906143f9565b6020604051808303816000875af11580156109cc573d6000803e3d6000fd5b505050506040513d601f19601f820116820180604052508101906109f09190614461565b9150336019600084815260200190815260200160002060006101000a81548173ffffffffffffffffffffffffffffffffffffffff021916908373ffffffffffffffffffffffffffffffffffffffff160217905550817ff873236e6cc0ecc5be1a9a35c95ee5b8d1ac4cc7bfef0cc5060391d6cc98e26b33604051610a749190613b1c565b60405180910390a26000601760003373ffffffffffffffffffffffffffffffffffffffff1673ffffffffffffffffffffffffffffffffffffffff16815260200190815260200160002060006101000a81548163ffffffff021916908363ffffffff1602179055507fb58c8ffd7dcc267af7498574cde004b6e99d64f43074e8f988a584900d5849173382604051610b0c92919061448e565b60405180910390a15090565b7f000000000000000000000000000000000000000000000000000000000000000073ffffffffffffffffffffffffffffffffffffffff163373ffffffffffffffffffffffffffffffffffffffff1614610bca57337f00000000000000000000000000000000000000000000000000000000000000006040517f1cf993f4000000000000000000000000000000000000000000000000000000008152600401610bc19291906144b7565b60405180910390fd5b610bd48282611a9e565b5050565b610be9610be36119dd565b82611c57565b610c28576040517f08c379a0000000000000000000000000000000000000000000000000000000008152600401610c1f90614552565b60405180910390fd5b610c33838383611cec565b505050565b60145481565b610c59838383604051806020016040528060008152506113af565b505050565b81600d600082815260200190815260200160002060009054906101000a900473ffffffffffffffffffffffffffffffffffffffff1673ffffffffffffffffffffffffffffffffffffffff163373ffffffffffffffffffffffffffffffffffffffff1614610d00576040517f08c379a0000000000000000000000000000000000000000000000000000000008152600401610cf7906145e4565b60405180910390fd5b600d600082815260200190815260200160002060006101000a81549073ffffffffffffffffffffffffffffffffffffffff0219169055807f7cc135e0cebb02c3480ae5d74d377283180a2601f8f644edf7987b009316c63a60405160405180910390a2827fcf7377622719718dd9b6dea1e0c01e882175ec209963aeb3336c7178280bc4e883604051610d939190613bb2565b60405180910390a260006018600085815260200190815260200160002060009054906101000a900473ffffffffffffffffffffffffffffffffffffffff169050600083905080601760008473ffffffffffffffffffffffffffffffffffffffff1673ffffffffffffffffffffffffffffffffffffffff16815260200190815260200160002060006101000a81548163ffffffff021916908363ffffffff1602179055505050505050565b60186020528060005260406000206000915054906101000a900473ffffffffffffffffffffffffffffffffffffffff1681565b610e7861384d565b604051806102800160405280600a815260200160128152602001601681526020016018815260200160228152602001602a8152602001602e815260200160308152602001603a815260200160428152602001604681526020016048815260200160528152602001605a8152602001605e8152602001606081526020016061815260200160628152602001606381526020016064815250905090565b600080610f1f83611fe5565b9050600073ffffffffffffffffffffffffffffffffffffffff168173ffffffffffffffffffffffffffffffffffffffff1603610f90576040517f08c379a0000000000000000000000000000000000000000000000000000000008152600401610f8790614650565b60405180910390fd5b80915050919050565b6000601054905090565b60008073ffffffffffffffffffffffffffffffffffffffff168273ffffffffffffffffffffffffffffffffffffffff1603611013576040517f08c379a000000000000000000000000000000000000000000000000000000000815260040161100a906146e2565b60405180910390fd5b600360008373ffffffffffffffffffffffffffffffffffffffff1673ffffffffffffffffffffffffffffffffffffffff168152602001908152602001600020549050919050565b611062612022565b61106c60006120a0565b565b6000600760009054906101000a900473ffffffffffffffffffffffffffffffffffffffff16905090565b6110a0612022565b60006110aa612166565b90508073ffffffffffffffffffffffffffffffffffffffff1663a9059cbb338373ffffffffffffffffffffffffffffffffffffffff166370a08231306040518263ffffffff1660e01b81526004016111029190613b1c565b602060405180830381865afa15801561111f573d6000803e3d6000fd5b505050506040513d601f19601f820116820180604052508101906111439190614461565b6040518363ffffffff1660e01b8152600401611160929190614702565b6020604051808303816000875af115801561117f573d6000803e3d6000fd5b505050506040513d601f19601f820116820180604052508101906111a39190614740565b6111e2576040517f08c379a00000000000000000000000000000000000000000000000000000000081526004016111d9906147b9565b60405180910390fd5b50565b60176020528060005260406000206000915054906101000a900463ffffffff1681565b60606001805461121790614264565b80601f016020809104026020016040519081016040528092919081815260200182805461124390614264565b80156112905780601f1061126557610100808354040283529160200191611290565b820191906000526020600020905b81548152906001019060200180831161127357829003601f168201915b5050505050905090565b6112ac6112a56119dd565b8383612190565b5050565b60196020528060005260406000206000915054906101000a900473ffffffffffffffffffffffffffffffffffffffff1681565b6000806000905060006112f4610e70565b905060005b60148110156113775782851015801561132857508181601481106113205761131f6147d9565b5b602002015185105b1561134a578060138111156113405761133f614001565b5b93505050506113aa565b81816014811061135d5761135c6147d9565b5b60200201519250808061136f90614837565b9150506112f9565b506040517f0655dc2500000000000000000000000000000000000000000000000000000000815260040160405180910390fd5b919050565b6113c06113ba6119dd565b83611c57565b6113ff576040517f08c379a00000000000000000000000000000000000000000000000000000000081526004016113f690614552565b60405180910390fd5b61140b848484846122fc565b50505050565b606061141c82611992565b600060066000848152602001908152602001600020805461143c90614264565b80601f016020809104026020016040519081016040528092919081815260200182805461146890614264565b80156114b55780601f1061148a576101008083540402835291602001916114b5565b820191906000526020600020905b81548152906001019060200180831161149857829003601f168201915b5050505050905060006114c6612358565b905060008151036114db57819250505061151e565b6000825111156115105780826040516020016114f89291906148bb565b6040516020818303038152906040529250505061151e565b6115198461236f565b925050505b919050565b606060128281548110611539576115386147d9565b5b90600052602060002001805461154e90614264565b80601f016020809104026020016040519081016040528092919081815260200182805461157a90614264565b80156115c75780601f1061159c576101008083540402835291602001916115c7565b820191906000526020600020905b8154815290600101906020018083116115aa57829003601f168201915b50505050509050919050565b6000806115ea60155430634357855e60e01b6123d7565b905060003373ffffffffffffffffffffffffffffffffffffffff1690506000611614826014612408565b9050600081905060008160405160200161162e9190614951565b60405160208183030381529060405290506116896040518060400160405280600381526020017f676574000000000000000000000000000000000000000000000000000000000081525082876126449092919063ffffffff16565b6117086040518060400160405280600481526020017f70617468000000000000000000000000000000000000000000000000000000008152506040518060400160405280600f81526020017f6d6573736167652c63616e4d696e740000000000000000000000000000000000815250876126449092919063ffffffff16565b6000600190506117586040518060400160405280600581526020017f74696d657300000000000000000000000000000000000000000000000000000081525082886126779092919063ffffffff16565b7fb0436a691018ae46c51951a73ebe0c216e0f42e333fa53ca4af75c3e9b43876a8233604051611789929190614973565b60405180910390a161179d866016546126aa565b9650336018600089815260200190815260200160002060006101000a81548173ffffffffffffffffffffffffffffffffffffffff021916908373ffffffffffffffffffffffffffffffffffffffff16021790555050505050505090565b6000600560008473ffffffffffffffffffffffffffffffffffffffff1673ffffffffffffffffffffffffffffffffffffffff16815260200190815260200160002060008373ffffffffffffffffffffffffffffffffffffffff1673ffffffffffffffffffffffffffffffffffffffff16815260200190815260200160002060009054906101000a900460ff16905092915050565b6000601360009054906101000a900460ff16905090565b6118ad612022565b600073ffffffffffffffffffffffffffffffffffffffff168173ffffffffffffffffffffffffffffffffffffffff160361191c576040517f08c379a000000000000000000000000000000000000000000000000000000000815260040161191390614a15565b60405180910390fd5b611925816120a0565b50565b60007f01ffc9a7000000000000000000000000000000000000000000000000000000007bffffffffffffffffffffffffffffffffffffffffffffffffffffffff1916827bffffffffffffffffffffffffffffffffffffffffffffffffffffffff1916149050919050565b61199b816126e1565b6119da576040517f08c379a00000000000000000000000000000000000000000000000000000000081526004016119d190614650565b60405180910390fd5b50565b600033905090565b816004600083815260200190815260200160002060006101000a81548173ffffffffffffffffffffffffffffffffffffffff021916908373ffffffffffffffffffffffffffffffffffffffff160217905550808273ffffffffffffffffffffffffffffffffffffffff16611a5883610f13565b73ffffffffffffffffffffffffffffffffffffffff167f8c5be1e5ebec7d5bd14f71427d1e84f3dd0314c0f7b2291e5b200ac8c7c3b92560405160405180910390a45050565b60006019600084815260200190815260200160002060009054906101000a900473ffffffffffffffffffffffffffffffffffffffff16905060005b8251811015611c5157600060105490506001601054611af89190614a35565b60108190555060006064858481518110611b1557611b146147d9565b5b6020026020010151611b279190614a98565b90506000611b34826112e3565b9050611b408584612722565b611c02836012836013811115611b5957611b58614001565b5b81548110611b6a57611b696147d9565b5b906000526020600020018054611b7f90614264565b80601f0160208091040260200160405190810160405280929190818152602001828054611bab90614264565b8015611bf85780601f10611bcd57610100808354040283529160200191611bf8565b820191906000526020600020905b815481529060010190602001808311611bdb57829003601f168201915b5050505050612740565b7f8a269f26b688e110e9cbd887d163dab35cae678fa353a0292de532c0cac1ecdc8186604051611c33929190614ac9565b60405180910390a15050508080611c4990614837565b915050611ad9565b50505050565b600080611c6383610f13565b90508073ffffffffffffffffffffffffffffffffffffffff168473ffffffffffffffffffffffffffffffffffffffff161480611ca55750611ca481856117fa565b5b80611ce357508373ffffffffffffffffffffffffffffffffffffffff16611ccb84610765565b73ffffffffffffffffffffffffffffffffffffffff16145b91505092915050565b8273ffffffffffffffffffffffffffffffffffffffff16611d0c82610f13565b73ffffffffffffffffffffffffffffffffffffffff1614611d62576040517f08c379a0000000000000000000000000000000000000000000000000000000008152600401611d5990614b64565b60405180910390fd5b600073ffffffffffffffffffffffffffffffffffffffff168273ffffffffffffffffffffffffffffffffffffffff1603611dd1576040517f08c379a0000000000000000000000000000000000000000000000000000000008152600401611dc890614bf6565b60405180910390fd5b611dde83838360016127ad565b8273ffffffffffffffffffffffffffffffffffffffff16611dfe82610f13565b73ffffffffffffffffffffffffffffffffffffffff1614611e54576040517f08c379a0000000000000000000000000000000000000000000000000000000008152600401611e4b90614b64565b60405180910390fd5b6004600082815260200190815260200160002060006101000a81549073ffffffffffffffffffffffffffffffffffffffff02191690556001600360008573ffffffffffffffffffffffffffffffffffffffff1673ffffffffffffffffffffffffffffffffffffffff168152602001908152602001600020600082825403925050819055506001600360008473ffffffffffffffffffffffffffffffffffffffff1673ffffffffffffffffffffffffffffffffffffffff16815260200190815260200160002060008282540192505081905550816002600083815260200190815260200160002060006101000a81548173ffffffffffffffffffffffffffffffffffffffff021916908373ffffffffffffffffffffffffffffffffffffffff160217905550808273ffffffffffffffffffffffffffffffffffffffff168473ffffffffffffffffffffffffffffffffffffffff167fddf252ad1be2c89b69c2b068fc378daa952ba7f163c4a11628f55a4df523b3ef60405160405180910390a4611fe083838360016128d3565b505050565b60006002600083815260200190815260200160002060009054906101000a900473ffffffffffffffffffffffffffffffffffffffff169050919050565b61202a6119dd565b73ffffffffffffffffffffffffffffffffffffffff1661204861106e565b73ffffffffffffffffffffffffffffffffffffffff161461209e576040517f08c379a000000000000000000000000000000000000000000000000000000000815260040161209590614c62565b60405180910390fd5b565b6000600760009054906101000a900473ffffffffffffffffffffffffffffffffffffffff16905081600760006101000a81548173ffffffffffffffffffffffffffffffffffffffff021916908373ffffffffffffffffffffffffffffffffffffffff1602179055508173ffffffffffffffffffffffffffffffffffffffff168173ffffffffffffffffffffffffffffffffffffffff167f8be0079c531659141344cd1fd0a4f28419497f9722a3daafe3b4186f6b6457e060405160405180910390a35050565b6000600a60009054906101000a900473ffffffffffffffffffffffffffffffffffffffff16905090565b8173ffffffffffffffffffffffffffffffffffffffff168373ffffffffffffffffffffffffffffffffffffffff16036121fe576040517f08c379a00000000000000000000000000000000000000000000000000000000081526004016121f590614cce565b60405180910390fd5b80600560008573ffffffffffffffffffffffffffffffffffffffff1673ffffffffffffffffffffffffffffffffffffffff16815260200190815260200160002060008473ffffffffffffffffffffffffffffffffffffffff1673ffffffffffffffffffffffffffffffffffffffff16815260200190815260200160002060006101000a81548160ff0219169083151502179055508173ffffffffffffffffffffffffffffffffffffffff168373ffffffffffffffffffffffffffffffffffffffff167f17307eab39ab6107e8899845ad3d59bd9653f200f220920489ca2b5937696c31836040516122ef91906139ab565b60405180910390a3505050565b612307848484611cec565b612313848484846128d9565b612352576040517f08c379a000000000000000000000000000000000000000000000000000000000815260040161234990614d60565b60405180910390fd5b50505050565b606060405180602001604052806000815250905090565b606061237a82611992565b6000612384612358565b905060008151116123a457604051806020016040528060008152506123cf565b806123ae84612a60565b6040516020016123bf9291906148bb565b6040516020818303038152906040525b915050919050565b6123df613870565b6123e7613870565b6123fe85858584612b2e909392919063ffffffff16565b9150509392505050565b60606000600283600261241b9190614d80565b6124259190614a35565b67ffffffffffffffff81111561243e5761243d613bd2565b5b6040519080825280601f01601f1916602001820160405280156124705781602001600182028036833780820191505090505b5090507f3000000000000000000000000000000000000000000000000000000000000000816000815181106124a8576124a76147d9565b5b60200101907effffffffffffffffffffffffffffffffffffffffffffffffffffffffffffff1916908160001a9053507f78000000000000000000000000000000000000000000000000000000000000008160018151811061250c5761250b6147d9565b5b60200101907effffffffffffffffffffffffffffffffffffffffffffffffffffffffffffff1916908160001a9053506000600184600261254c9190614d80565b6125569190614a35565b90505b60018111156125f6577f3031323334353637383961626364656600000000000000000000000000000000600f861660108110612598576125976147d9565b5b1a60f81b8282815181106125af576125ae6147d9565b5b60200101907effffffffffffffffffffffffffffffffffffffffffffffffffffffffffffff1916908160001a905350600485901c9450806125ef90614dc2565b9050612559565b506000841461263a576040517f08c379a000000000000000000000000000000000000000000000000000000000815260040161263190614e37565b60405180910390fd5b8091505092915050565b61265b828460800151612bde90919063ffffffff16565b612672818460800151612bde90919063ffffffff16565b505050565b61268e828460800151612bde90919063ffffffff16565b6126a5818460800151612c0390919063ffffffff16565b505050565b60006126d9600b60009054906101000a900473ffffffffffffffffffffffffffffffffffffffff168484612cb0565b905092915050565b60008073ffffffffffffffffffffffffffffffffffffffff1661270383611fe5565b73ffffffffffffffffffffffffffffffffffffffff1614159050919050565b61273c828260405180602001604052806000815250612d7c565b5050565b612749826126e1565b612788576040517f08c379a000000000000000000000000000000000000000000000000000000000815260040161277f90614ec9565b60405180910390fd5b806006600084815260200190815260200160002090816127a89190615095565b505050565b60018111156128cd57600073ffffffffffffffffffffffffffffffffffffffff168473ffffffffffffffffffffffffffffffffffffffff16146128415780600360008673ffffffffffffffffffffffffffffffffffffffff1673ffffffffffffffffffffffffffffffffffffffff16815260200190815260200160002060008282546128399190615167565b925050819055505b600073ffffffffffffffffffffffffffffffffffffffff168373ffffffffffffffffffffffffffffffffffffffff16146128cc5780600360008573ffffffffffffffffffffffffffffffffffffffff1673ffffffffffffffffffffffffffffffffffffffff16815260200190815260200160002060008282546128c49190614a35565b925050819055505b5b50505050565b50505050565b60006128fa8473ffffffffffffffffffffffffffffffffffffffff16612dd7565b15612a53578373ffffffffffffffffffffffffffffffffffffffff1663150b7a026129236119dd565b8786866040518563ffffffff1660e01b815260040161294594939291906151f0565b6020604051808303816000875af192505050801561298157506040513d601f19601f8201168201806040525081019061297e9190615251565b60015b612a03573d80600081146129b1576040519150601f19603f3d011682016040523d82523d6000602084013e6129b6565b606091505b5060008151036129fb576040517f08c379a00000000000000000000000000000000000000000000000000000000081526004016129f290614d60565b60405180910390fd5b805181602001fd5b63150b7a0260e01b7bffffffffffffffffffffffffffffffffffffffffffffffffffffffff1916817bffffffffffffffffffffffffffffffffffffffffffffffffffffffff191614915050612a58565b600190505b949350505050565b606060006001612a6f84612dfa565b01905060008167ffffffffffffffff811115612a8e57612a8d613bd2565b5b6040519080825280601f01601f191660200182016040528015612ac05781602001600182028036833780820191505090505b509050600082602001820190505b600115612b23578080600190039150507f3031323334353637383961626364656600000000000000000000000000000000600a86061a8153600a8581612b1757612b16614a69565b5b04945060008503612ace575b819350505050919050565b612b36613870565b612b468560800151610100612f4d565b508385600001818152505082856020019073ffffffffffffffffffffffffffffffffffffffff16908173ffffffffffffffffffffffffffffffffffffffff16815250508185604001907bffffffffffffffffffffffffffffffffffffffffffffffffffffffff191690817bffffffffffffffffffffffffffffffffffffffffffffffffffffffff191681525050849050949350505050565b612beb8260038351612fb7565b612bfe818361313c90919063ffffffff16565b505050565b7fffffffffffffffffffffffffffffffffffffffffffffffff0000000000000000811215612c3a57612c35828261315e565b612cac565b67ffffffffffffffff811315612c5957612c5482826131d5565b612cab565b60008112612c7257612c6d82600083612fb7565b612caa565b612ca9826001837fffffffffffffffffffffffffffffffffffffffffffffffffffffffffffffffff612ca49190615288565b612fb7565b5b5b5b5050565b600080600c549050600181612cc59190614a35565b600c819055506000634042994660e01b60008087600001513089604001518760018c6080015160000151604051602401612d069897969594939291906152da565b604051602081830303815290604052907bffffffffffffffffffffffffffffffffffffffffffffffffffffffff19166020820180517bffffffffffffffffffffffffffffffffffffffffffffffffffffffff83818316178352505050509050612d7186838684613221565b925050509392505050565b612d8683836133b6565b612d9360008484846128d9565b612dd2576040517f08c379a0000000000000000000000000000000000000000000000000000000008152600401612dc990614d60565b60405180910390fd5b505050565b6000808273ffffffffffffffffffffffffffffffffffffffff163b119050919050565b600080600090507a184f03e93ff9f4daa797ed6e38ed64bf6a1f0100000000000000008310612e58577a184f03e93ff9f4daa797ed6e38ed64bf6a1f0100000000000000008381612e4e57612e4d614a69565b5b0492506040810190505b6d04ee2d6d415b85acef81000000008310612e95576d04ee2d6d415b85acef81000000008381612e8b57612e8a614a69565b5b0492506020810190505b662386f26fc100008310612ec457662386f26fc100008381612eba57612eb9614a69565b5b0492506010810190505b6305f5e1008310612eed576305f5e1008381612ee357612ee2614a69565b5b0492506008810190505b6127108310612f12576127108381612f0857612f07614a69565b5b0492506004810190505b60648310612f355760648381612f2b57612f2a614a69565b5b0492506002810190505b600a8310612f44576001810190505b80915050919050565b612f556138dd565b6000602083612f649190614a98565b14612f9057602082612f769190614a98565b6020612f829190615167565b82612f8d9190614a35565b91505b81836020018181525050604051808452600081528281016020016040525082905092915050565b60178167ffffffffffffffff1611612fee57612fe88160058460ff16901b60ff1617846135d390919063ffffffff16565b50613137565b60ff8167ffffffffffffffff16116130445761301d601860058460ff16901b17846135d390919063ffffffff16565b5061303e8167ffffffffffffffff166001856135f39092919063ffffffff16565b50613136565b61ffff8167ffffffffffffffff161161309b57613074601960058460ff16901b17846135d390919063ffffffff16565b506130958167ffffffffffffffff166002856135f39092919063ffffffff16565b50613135565b63ffffffff8167ffffffffffffffff16116130f4576130cd601a60058460ff16901b17846135d390919063ffffffff16565b506130ee8167ffffffffffffffff166004856135f39092919063ffffffff16565b50613134565b613111601b60058460ff16901b17846135d390919063ffffffff16565b506131328167ffffffffffffffff166008856135f39092919063ffffffff16565b505b5b5b5b505050565b6131446138dd565b61315683846000015151848551613615565b905092915050565b61317c60036005600660ff16901b17836135d390919063ffffffff16565b506131d182827fffffffffffffffffffffffffffffffffffffffffffffffffffffffffffffffff6131ad9190615288565b6040516020016131bd9190613bb2565b604051602081830303815290604052613704565b5050565b6131f360026005600660ff16901b17836135d390919063ffffffff16565b5061321d82826040516020016132099190613bb2565b604051602081830303815290604052613704565b5050565b6000308460405160200161323692919061540e565b60405160208183030381529060405280519060200120905084600d600083815260200190815260200160002060006101000a81548173ffffffffffffffffffffffffffffffffffffffff021916908373ffffffffffffffffffffffffffffffffffffffff160217905550807fb5e6e01e79f91267dc17b4e6314d5d4d03593d2ceee0fbb452b750bd70ea5af960405160405180910390a2600a60009054906101000a900473ffffffffffffffffffffffffffffffffffffffff1673ffffffffffffffffffffffffffffffffffffffff16634000aea08685856040518463ffffffff1660e01b815260040161332c9392919061543a565b6020604051808303816000875af115801561334b573d6000803e3d6000fd5b505050506040513d601f19601f8201168201806040525081019061336f9190614740565b6133ae576040517f08c379a00000000000000000000000000000000000000000000000000000000081526004016133a5906154ea565b60405180910390fd5b949350505050565b600073ffffffffffffffffffffffffffffffffffffffff168273ffffffffffffffffffffffffffffffffffffffff1603613425576040517f08c379a000000000000000000000000000000000000000000000000000000000815260040161341c90615556565b60405180910390fd5b61342e816126e1565b1561346e576040517f08c379a0000000000000000000000000000000000000000000000000000000008152600401613465906155c2565b60405180910390fd5b61347c6000838360016127ad565b613485816126e1565b156134c5576040517f08c379a00000000000000000000000000000000000000000000000000000000081526004016134bc906155c2565b60405180910390fd5b6001600360008473ffffffffffffffffffffffffffffffffffffffff1673ffffffffffffffffffffffffffffffffffffffff16815260200190815260200160002060008282540192505081905550816002600083815260200190815260200160002060006101000a81548173ffffffffffffffffffffffffffffffffffffffff021916908373ffffffffffffffffffffffffffffffffffffffff160217905550808273ffffffffffffffffffffffffffffffffffffffff16600073ffffffffffffffffffffffffffffffffffffffff167fddf252ad1be2c89b69c2b068fc378daa952ba7f163c4a11628f55a4df523b3ef60405160405180910390a46135cf6000838360016128d3565b5050565b6135db6138dd565b6135eb8384600001515184613729565b905092915050565b6135fb6138dd565b61360c84856000015151858561377f565b90509392505050565b61361d6138dd565b825182111561362b57600080fd5b8460200151828561363c9190614a35565b1115613671576136708560026136618860200151888761365c9190614a35565b61380d565b61366b9190614d80565b613829565b5b6000808651805187602083010193508088870111156136905787860182525b60208701925050505b602084106136d757805182526020826136b29190614a35565b91506020816136c19190614a35565b90506020846136d09190615167565b9350613699565b60006001856020036101000a03905080198251168184511681811785525050508692505050949350505050565b6137118260028351612fb7565b613724818361313c90919063ffffffff16565b505050565b6137316138dd565b836020015183106137575761375684600286602001516137519190614d80565b613829565b5b83518051602085830101848153818603613772576001820183525b5050508390509392505050565b6137876138dd565b846020015184836137989190614a35565b11156137c0576137bf85600286856137b09190614a35565b6137ba9190614d80565b613829565b5b60006001836101006137d29190615715565b6137dc9190615167565b905085518386820101858319825116178152815185880111156137ff5784870182525b505085915050949350505050565b60008183111561381f57829050613823565b8190505b92915050565b60008260000151905061383c8383612f4d565b50613847838261313c565b50505050565b604051806102800160405280601490602082028036833780820191505090505090565b6040518060a0016040528060008019168152602001600073ffffffffffffffffffffffffffffffffffffffff16815260200160007bffffffffffffffffffffffffffffffffffffffffffffffffffffffff19168152602001600081526020016138d76138dd565b81525090565b604051806040016040528060608152602001600081525090565b6000604051905090565b600080fd5b600080fd5b60007fffffffff0000000000000000000000000000000000000000000000000000000082169050919050565b6139408161390b565b811461394b57600080fd5b50565b60008135905061395d81613937565b92915050565b60006020828403121561397957613978613901565b5b60006139878482850161394e565b91505092915050565b60008115159050919050565b6139a581613990565b82525050565b60006020820190506139c0600083018461399c565b92915050565b600081519050919050565b600082825260208201905092915050565b60005b83811015613a005780820151818401526020810190506139e5565b60008484015250505050565b6000601f19601f8301169050919050565b6000613a28826139c6565b613a3281856139d1565b9350613a428185602086016139e2565b613a4b81613a0c565b840191505092915050565b60006020820190508181036000830152613a708184613a1d565b905092915050565b6000819050919050565b613a8b81613a78565b8114613a9657600080fd5b50565b600081359050613aa881613a82565b92915050565b600060208284031215613ac457613ac3613901565b5b6000613ad284828501613a99565b91505092915050565b600073ffffffffffffffffffffffffffffffffffffffff82169050919050565b6000613b0682613adb565b9050919050565b613b1681613afb565b82525050565b6000602082019050613b316000830184613b0d565b92915050565b613b4081613afb565b8114613b4b57600080fd5b50565b600081359050613b5d81613b37565b92915050565b60008060408385031215613b7a57613b79613901565b5b6000613b8885828601613b4e565b9250506020613b9985828601613a99565b9150509250929050565b613bac81613a78565b82525050565b6000602082019050613bc76000830184613ba3565b92915050565b600080fd5b7f4e487b7100000000000000000000000000000000000000000000000000000000600052604160045260246000fd5b613c0a82613a0c565b810181811067ffffffffffffffff82111715613c2957613c28613bd2565b5b80604052505050565b6000613c3c6138f7565b9050613c488282613c01565b919050565b600067ffffffffffffffff821115613c6857613c67613bd2565b5b602082029050602081019050919050565b600080fd5b6000613c91613c8c84613c4d565b613c32565b90508083825260208201905060208402830185811115613cb457613cb3613c79565b5b835b81811015613cdd5780613cc98882613a99565b845260208401935050602081019050613cb6565b5050509392505050565b600082601f830112613cfc57613cfb613bcd565b5b8135613d0c848260208601613c7e565b91505092915050565b60008060408385031215613d2c57613d2b613901565b5b6000613d3a85828601613a99565b925050602083013567ffffffffffffffff811115613d5b57613d5a613906565b5b613d6785828601613ce7565b9150509250929050565b600080600060608486031215613d8a57613d89613901565b5b6000613d9886828701613b4e565b9350506020613da986828701613b4e565b9250506040613dba86828701613a99565b9150509250925092565b6000819050919050565b613dd781613dc4565b8114613de257600080fd5b50565b600081359050613df481613dce565b92915050565b60008060408385031215613e1157613e10613901565b5b6000613e1f85828601613de5565b9250506020613e3085828601613a99565b9150509250929050565b600060208284031215613e5057613e4f613901565b5b6000613e5e84828501613de5565b91505092915050565b600060149050919050565b600081905092915050565b6000819050919050565b613e9081613a78565b82525050565b6000613ea28383613e87565b60208301905092915050565b6000602082019050919050565b613ec481613e67565b613ece8184613e72565b9250613ed982613e7d565b8060005b83811015613f0a578151613ef18782613e96565b9650613efc83613eae565b925050600181019050613edd565b505050505050565b600061028082019050613f286000830184613ebb565b92915050565b600060208284031215613f4457613f43613901565b5b6000613f5284828501613b4e565b91505092915050565b600063ffffffff82169050919050565b613f7481613f5b565b82525050565b6000602082019050613f8f6000830184613f6b565b92915050565b613f9e81613990565b8114613fa957600080fd5b50565b600081359050613fbb81613f95565b92915050565b60008060408385031215613fd857613fd7613901565b5b6000613fe685828601613b4e565b9250506020613ff785828601613fac565b9150509250929050565b7f4e487b7100000000000000000000000000000000000000000000000000000000600052602160045260246000fd5b6014811061404157614040614001565b5b50565b600081905061405282614030565b919050565b600061406282614044565b9050919050565b61407281614057565b82525050565b600060208201905061408d6000830184614069565b92915050565b600080fd5b600067ffffffffffffffff8211156140b3576140b2613bd2565b5b6140bc82613a0c565b9050602081019050919050565b82818337600083830152505050565b60006140eb6140e684614098565b613c32565b90508281526020810184848401111561410757614106614093565b5b6141128482856140c9565b509392505050565b600082601f83011261412f5761412e613bcd565b5b813561413f8482602086016140d8565b91505092915050565b6000806000806080858703121561416257614161613901565b5b600061417087828801613b4e565b945050602061418187828801613b4e565b935050604061419287828801613a99565b925050606085013567ffffffffffffffff8111156141b3576141b2613906565b5b6141bf8782880161411a565b91505092959194509250565b6141d481613dc4565b82525050565b60006020820190506141ef60008301846141cb565b92915050565b6000806040838503121561420c5761420b613901565b5b600061421a85828601613b4e565b925050602061422b85828601613b4e565b9150509250929050565b7f4e487b7100000000000000000000000000000000000000000000000000000000600052602260045260246000fd5b6000600282049050600182168061427c57607f821691505b60208210810361428f5761428e614235565b5b50919050565b7f4552433732313a20617070726f76616c20746f2063757272656e74206f776e6560008201527f7200000000000000000000000000000000000000000000000000000000000000602082015250565b60006142f16021836139d1565b91506142fc82614295565b604082019050919050565b60006020820190508181036000830152614320816142e4565b9050919050565b7f4552433732313a20617070726f76652063616c6c6572206973206e6f7420746f60008201527f6b656e206f776e6572206f7220617070726f76656420666f7220616c6c000000602082015250565b6000614383603d836139d1565b915061438e82614327565b604082019050919050565b600060208201905081810360008301526143b281614376565b9050919050565b600067ffffffffffffffff82169050919050565b6143d6816143b9565b82525050565b600061ffff82169050919050565b6143f3816143dc565b82525050565b600060a08201905061440e60008301886141cb565b61441b60208301876143cd565b61442860408301866143ea565b6144356060830185613f6b565b6144426080830184613f6b565b9695505050505050565b60008151905061445b81613a82565b92915050565b60006020828403121561447757614476613901565b5b60006144858482850161444c565b91505092915050565b60006040820190506144a36000830185613b0d565b6144b06020830184613f6b565b9392505050565b60006040820190506144cc6000830185613b0d565b6144d96020830184613b0d565b9392505050565b7f4552433732313a2063616c6c6572206973206e6f7420746f6b656e206f776e6560008201527f72206f7220617070726f76656400000000000000000000000000000000000000602082015250565b600061453c602d836139d1565b9150614547826144e0565b604082019050919050565b6000602082019050818103600083015261456b8161452f565b9050919050565b7f536f75726365206d75737420626520746865206f7261636c65206f662074686560008201527f2072657175657374000000000000000000000000000000000000000000000000602082015250565b60006145ce6028836139d1565b91506145d982614572565b604082019050919050565b600060208201905081810360008301526145fd816145c1565b9050919050565b7f4552433732313a20696e76616c696420746f6b656e2049440000000000000000600082015250565b600061463a6018836139d1565b915061464582614604565b602082019050919050565b600060208201905081810360008301526146698161462d565b9050919050565b7f4552433732313a2061646472657373207a65726f206973206e6f74206120766160008201527f6c6964206f776e65720000000000000000000000000000000000000000000000602082015250565b60006146cc6029836139d1565b91506146d782614670565b604082019050919050565b600060208201905081810360008301526146fb816146bf565b9050919050565b60006040820190506147176000830185613b0d565b6147246020830184613ba3565b9392505050565b60008151905061473a81613f95565b92915050565b60006020828403121561475657614755613901565b5b60006147648482850161472b565b91505092915050565b7f556e61626c6520746f207472616e736665720000000000000000000000000000600082015250565b60006147a36012836139d1565b91506147ae8261476d565b602082019050919050565b600060208201905081810360008301526147d281614796565b9050919050565b7f4e487b7100000000000000000000000000000000000000000000000000000000600052603260045260246000fd5b7f4e487b7100000000000000000000000000000000000000000000000000000000600052601160045260246000fd5b600061484282613a78565b91507fffffffffffffffffffffffffffffffffffffffffffffffffffffffffffffffff820361487457614873614808565b5b600182019050919050565b600081905092915050565b6000614895826139c6565b61489f818561487f565b93506148af8185602086016139e2565b80840191505092915050565b60006148c7828561488a565b91506148d3828461488a565b91508190509392505050565b7f68747470733a2f2f61702d6a6f762e636f6c79736575732e6465762f6368616960008201527f6e2f63616e2d6d696e742d616d6f756e743f0000000000000000000000000000602082015250565b600061493b60328361487f565b9150614946826148df565b603282019050919050565b600061495c8261492e565b9150614968828461488a565b915081905092915050565b6000604082019050818103600083015261498d8185613a1d565b905061499c6020830184613b0d565b9392505050565b7f4f776e61626c653a206e6577206f776e657220697320746865207a65726f206160008201527f6464726573730000000000000000000000000000000000000000000000000000602082015250565b60006149ff6026836139d1565b9150614a0a826149a3565b604082019050919050565b60006020820190508181036000830152614a2e816149f2565b9050919050565b6000614a4082613a78565b9150614a4b83613a78565b9250828201905080821115614a6357614a62614808565b5b92915050565b7f4e487b7100000000000000000000000000000000000000000000000000000000600052601260045260246000fd5b6000614aa382613a78565b9150614aae83613a78565b925082614abe57614abd614a69565b5b828206905092915050565b6000604082019050614ade6000830185614069565b614aeb6020830184613b0d565b9392505050565b7f4552433732313a207472616e736665722066726f6d20696e636f72726563742060008201527f6f776e6572000000000000000000000000000000000000000000000000000000602082015250565b6000614b4e6025836139d1565b9150614b5982614af2565b604082019050919050565b60006020820190508181036000830152614b7d81614b41565b9050919050565b7f4552433732313a207472616e7366657220746f20746865207a65726f2061646460008201527f7265737300000000000000000000000000000000000000000000000000000000602082015250565b6000614be06024836139d1565b9150614beb82614b84565b604082019050919050565b60006020820190508181036000830152614c0f81614bd3565b9050919050565b7f4f776e61626c653a2063616c6c6572206973206e6f7420746865206f776e6572600082015250565b6000614c4c6020836139d1565b9150614c5782614c16565b602082019050919050565b60006020820190508181036000830152614c7b81614c3f565b9050919050565b7f4552433732313a20617070726f766520746f2063616c6c657200000000000000600082015250565b6000614cb86019836139d1565b9150614cc382614c82565b602082019050919050565b60006020820190508181036000830152614ce781614cab565b9050919050565b7f4552433732313a207472616e7366657220746f206e6f6e20455243373231526560008201527f63656976657220696d706c656d656e7465720000000000000000000000000000602082015250565b6000614d4a6032836139d1565b9150614d5582614cee565b604082019050919050565b60006020820190508181036000830152614d7981614d3d565b9050919050565b6000614d8b82613a78565b9150614d9683613a78565b9250828202614da481613a78565b91508282048414831517614dbb57614dba614808565b5b5092915050565b6000614dcd82613a78565b915060008203614de057614ddf614808565b5b600182039050919050565b7f537472696e67733a20686578206c656e67746820696e73756666696369656e74600082015250565b6000614e216020836139d1565b9150614e2c82614deb565b602082019050919050565b60006020820190508181036000830152614e5081614e14565b9050919050565b7f45524337323155524953746f726167653a2055524920736574206f66206e6f6e60008201527f6578697374656e7420746f6b656e000000000000000000000000000000000000602082015250565b6000614eb3602e836139d1565b9150614ebe82614e57565b604082019050919050565b60006020820190508181036000830152614ee281614ea6565b9050919050565b60008190508160005260206000209050919050565b60006020601f8301049050919050565b600082821b905092915050565b600060088302614f4b7fffffffffffffffffffffffffffffffffffffffffffffffffffffffffffffffff82614f0e565b614f558683614f0e565b95508019841693508086168417925050509392505050565b6000819050919050565b6000614f92614f8d614f8884613a78565b614f6d565b613a78565b9050919050565b6000819050919050565b614fac83614f77565b614fc0614fb882614f99565b848454614f1b565b825550505050565b600090565b614fd5614fc8565b614fe0818484614fa3565b505050565b5b8181101561500457614ff9600082614fcd565b600181019050614fe6565b5050565b601f8211156150495761501a81614ee9565b61502384614efe565b81016020851015615032578190505b61504661503e85614efe565b830182614fe5565b50505b505050565b600082821c905092915050565b600061506c6000198460080261504e565b1980831691505092915050565b6000615085838361505b565b9150826002028217905092915050565b61509e826139c6565b67ffffffffffffffff8111156150b7576150b6613bd2565b5b6150c18254614264565b6150cc828285615008565b600060209050601f8311600181146150ff57600084156150ed578287015190505b6150f78582615079565b86555061515f565b601f19841661510d86614ee9565b60005b8281101561513557848901518255600182019150602085019450602081019050615110565b86831015615152578489015161514e601f89168261505b565b8355505b6001600288020188555050505b505050505050565b600061517282613a78565b915061517d83613a78565b925082820390508181111561519557615194614808565b5b92915050565b600081519050919050565b600082825260208201905092915050565b60006151c28261519b565b6151cc81856151a6565b93506151dc8185602086016139e2565b6151e581613a0c565b840191505092915050565b60006080820190506152056000830187613b0d565b6152126020830186613b0d565b61521f6040830185613ba3565b818103606083015261523181846151b7565b905095945050505050565b60008151905061524b81613937565b92915050565b60006020828403121561526757615266613901565b5b60006152758482850161523c565b91505092915050565b6000819050919050565b60006152938261527e565b915061529e8361527e565b92508282039050818112600084121682821360008512151617156152c5576152c4614808565b5b92915050565b6152d48161390b565b82525050565b6000610100820190506152f0600083018b613b0d565b6152fd602083018a613ba3565b61530a60408301896141cb565b6153176060830188613b0d565b61532460808301876152cb565b61533160a0830186613ba3565b61533e60c0830185613ba3565b81810360e083015261535081846151b7565b90509998505050505050505050565b600061537a61537561537084613adb565b614f6d565b613adb565b9050919050565b600061538c8261535f565b9050919050565b600061539e82615381565b9050919050565b60008160601b9050919050565b60006153bd826153a5565b9050919050565b60006153cf826153b2565b9050919050565b6153e76153e282615393565b6153c4565b82525050565b6000819050919050565b61540861540382613a78565b6153ed565b82525050565b600061541a82856153d6565b60148201915061542a82846153f7565b6020820191508190509392505050565b600060608201905061544f6000830186613b0d565b61545c6020830185613ba3565b818103604083015261546e81846151b7565b9050949350505050565b7f756e61626c6520746f207472616e73666572416e6443616c6c20746f206f726160008201527f636c650000000000000000000000000000000000000000000000000000000000602082015250565b60006154d46023836139d1565b91506154df82615478565b604082019050919050565b60006020820190508181036000830152615503816154c7565b9050919050565b7f4552433732313a206d696e7420746f20746865207a65726f2061646472657373600082015250565b60006155406020836139d1565b915061554b8261550a565b602082019050919050565b6000602082019050818103600083015261556f81615533565b9050919050565b7f4552433732313a20746f6b656e20616c7265616479206d696e74656400000000600082015250565b60006155ac601c836139d1565b91506155b782615576565b602082019050919050565b600060208201905081810360008301526155db8161559f565b9050919050565b60008160011c9050919050565b6000808291508390505b60018511156156395780860481111561561557615614614808565b5b60018516156156245780820291505b8081029050615632856155e2565b94506155f9565b94509492505050565b600082615652576001905061570e565b81615660576000905061570e565b81600181146156765760028114615680576156af565b600191505061570e565b60ff84111561569257615691614808565b5b8360020a9150848211156156a9576156a8614808565b5b5061570e565b5060208310610133831016604e8410600b84101617156156e45782820a9050838111156156df576156de614808565b5b61570e565b6156f184848460016155ef565b9250905081840481111561570857615707614808565b5b81810290505b9392505050565b600061572082613a78565b915061572b83613a78565b92506157587fffffffffffffffffffffffffffffffffffffffffffffffffffffffffffffffff8484615642565b90509291505056fea26469706673582212205d67d341318fc6c0ffae81ad88a361f9c75959abe19e022dce60f50ff81eaace64736f6c63430008110033",
  "devdoc": {
    "kind": "dev",
    "methods": {
      "approve(address,uint256)": {
        "details": "See {IERC721-approve}."
      },
      "balanceOf(address)": {
        "details": "See {IERC721-balanceOf}."
      },
      "getApproved(uint256)": {
        "details": "See {IERC721-getApproved}."
      },
      "isApprovedForAll(address,address)": {
        "details": "See {IERC721-isApprovedForAll}."
      },
      "name()": {
        "details": "See {IERC721Metadata-name}."
      },
      "owner()": {
        "details": "Returns the address of the current owner."
      },
      "ownerOf(uint256)": {
        "details": "See {IERC721-ownerOf}."
      },
      "renounceOwnership()": {
        "details": "Leaves the contract without owner. It will not be possible to call `onlyOwner` functions anymore. Can only be called by the current owner. NOTE: Renouncing ownership will leave the contract without an owner, thereby removing any functionality that is only available to the owner."
      },
      "safeTransferFrom(address,address,uint256)": {
        "details": "See {IERC721-safeTransferFrom}."
      },
      "safeTransferFrom(address,address,uint256,bytes)": {
        "details": "See {IERC721-safeTransferFrom}."
      },
      "setApprovalForAll(address,bool)": {
        "details": "See {IERC721-setApprovalForAll}."
      },
      "supportsInterface(bytes4)": {
        "details": "See {IERC165-supportsInterface}."
      },
      "symbol()": {
        "details": "See {IERC721Metadata-symbol}."
      },
      "tokenURI(uint256)": {
        "details": "See {IERC721Metadata-tokenURI}."
      },
      "transferFrom(address,address,uint256)": {
        "details": "See {IERC721-transferFrom}."
      },
      "transferOwnership(address)": {
        "details": "Transfers ownership of the contract to a new account (`newOwner`). Can only be called by the current owner."
      }
    },
    "version": 1
  },
  "userdoc": {
    "kind": "user",
    "methods": {},
    "version": 1
  },
  "storageLayout": {
    "storage": [
      {
        "astId": 2666,
        "contract": "contracts/VrfMint.sol:VrfMint",
        "label": "_name",
        "offset": 0,
        "slot": "0",
        "type": "t_string_storage"
      },
      {
        "astId": 2668,
        "contract": "contracts/VrfMint.sol:VrfMint",
        "label": "_symbol",
        "offset": 0,
        "slot": "1",
        "type": "t_string_storage"
      },
      {
        "astId": 2672,
        "contract": "contracts/VrfMint.sol:VrfMint",
        "label": "_owners",
        "offset": 0,
        "slot": "2",
        "type": "t_mapping(t_uint256,t_address)"
      },
      {
        "astId": 2676,
        "contract": "contracts/VrfMint.sol:VrfMint",
        "label": "_balances",
        "offset": 0,
        "slot": "3",
        "type": "t_mapping(t_address,t_uint256)"
      },
      {
        "astId": 2680,
        "contract": "contracts/VrfMint.sol:VrfMint",
        "label": "_tokenApprovals",
        "offset": 0,
        "slot": "4",
        "type": "t_mapping(t_uint256,t_address)"
      },
      {
        "astId": 2686,
        "contract": "contracts/VrfMint.sol:VrfMint",
        "label": "_operatorApprovals",
        "offset": 0,
        "slot": "5",
        "type": "t_mapping(t_address,t_mapping(t_address,t_bool))"
      },
      {
        "astId": 3732,
        "contract": "contracts/VrfMint.sol:VrfMint",
        "label": "_tokenURIs",
        "offset": 0,
        "slot": "6",
        "type": "t_mapping(t_uint256,t_string_storage)"
      },
      {
        "astId": 2535,
        "contract": "contracts/VrfMint.sol:VrfMint",
        "label": "_owner",
        "offset": 0,
        "slot": "7",
        "type": "t_address"
      },
      {
        "astId": 319,
        "contract": "contracts/VrfMint.sol:VrfMint",
        "label": "s_ens",
        "offset": 0,
        "slot": "8",
        "type": "t_contract(ENSInterface)1214"
      },
      {
        "astId": 321,
        "contract": "contracts/VrfMint.sol:VrfMint",
        "label": "s_ensNode",
        "offset": 0,
        "slot": "9",
        "type": "t_bytes32"
      },
      {
        "astId": 324,
        "contract": "contracts/VrfMint.sol:VrfMint",
        "label": "s_link",
        "offset": 0,
        "slot": "10",
        "type": "t_contract(LinkTokenInterface)1309"
      },
      {
        "astId": 327,
        "contract": "contracts/VrfMint.sol:VrfMint",
        "label": "s_oracle",
        "offset": 0,
        "slot": "11",
        "type": "t_contract(OperatorInterface)1389"
      },
      {
        "astId": 330,
        "contract": "contracts/VrfMint.sol:VrfMint",
        "label": "s_requestCount",
        "offset": 0,
        "slot": "12",
        "type": "t_uint256"
      },
      {
        "astId": 334,
        "contract": "contracts/VrfMint.sol:VrfMint",
        "label": "s_pendingRequests",
        "offset": 0,
        "slot": "13",
        "type": "t_mapping(t_bytes32,t_address)"
      },
      {
        "astId": 5349,
        "contract": "contracts/VrfMint.sol:VrfMint",
        "label": "i_gasLane",
        "offset": 0,
        "slot": "14",
        "type": "t_bytes32"
      },
      {
        "astId": 5352,
        "contract": "contracts/VrfMint.sol:VrfMint",
        "label": "i_callbackGasLimit",
        "offset": 0,
        "slot": "15",
        "type": "t_uint32"
      },
      {
        "astId": 5360,
        "contract": "contracts/VrfMint.sol:VrfMint",
        "label": "s_tokenCounter",
        "offset": 0,
        "slot": "16",
        "type": "t_uint256"
      },
      {
        "astId": 5365,
        "contract": "contracts/VrfMint.sol:VrfMint",
        "label": "s_tokenIdToBreed",
        "offset": 0,
        "slot": "17",
        "type": "t_mapping(t_uint256,t_enum(Breed)5341)"
      },
      {
        "astId": 5371,
        "contract": "contracts/VrfMint.sol:VrfMint",
        "label": "s_hackmonTokenUris",
        "offset": 0,
        "slot": "18",
        "type": "t_array(t_string_storage)dyn_storage"
      },
      {
        "astId": 5373,
        "contract": "contracts/VrfMint.sol:VrfMint",
        "label": "s_initialized",
        "offset": 0,
        "slot": "19",
        "type": "t_bool"
      },
      {
        "astId": 5379,
        "contract": "contracts/VrfMint.sol:VrfMint",
        "label": "val",
        "offset": 0,
        "slot": "20",
        "type": "t_uint256"
      },
      {
        "astId": 5381,
        "contract": "contracts/VrfMint.sol:VrfMint",
        "label": "jobId",
        "offset": 0,
        "slot": "21",
        "type": "t_bytes32"
      },
      {
        "astId": 5383,
        "contract": "contracts/VrfMint.sol:VrfMint",
        "label": "fee",
        "offset": 0,
        "slot": "22",
        "type": "t_uint256"
      },
      {
        "astId": 5387,
        "contract": "contracts/VrfMint.sol:VrfMint",
        "label": "canMintAmount",
        "offset": 0,
        "slot": "23",
        "type": "t_mapping(t_address,t_uint32)"
      },
      {
        "astId": 5391,
        "contract": "contracts/VrfMint.sol:VrfMint",
        "label": "requestParams",
        "offset": 0,
        "slot": "24",
        "type": "t_mapping(t_bytes32,t_address)"
      },
      {
        "astId": 5395,
        "contract": "contracts/VrfMint.sol:VrfMint",
        "label": "s_requestIdToSender",
        "offset": 0,
        "slot": "25",
        "type": "t_mapping(t_uint256,t_address)"
      }
    ],
    "types": {
      "t_address": {
        "encoding": "inplace",
        "label": "address",
        "numberOfBytes": "20"
      },
      "t_array(t_string_storage)dyn_storage": {
        "base": "t_string_storage",
        "encoding": "dynamic_array",
        "label": "string[]",
        "numberOfBytes": "32"
      },
      "t_bool": {
        "encoding": "inplace",
        "label": "bool",
        "numberOfBytes": "1"
      },
      "t_bytes32": {
        "encoding": "inplace",
        "label": "bytes32",
        "numberOfBytes": "32"
      },
      "t_contract(ENSInterface)1214": {
        "encoding": "inplace",
        "label": "contract ENSInterface",
        "numberOfBytes": "20"
      },
      "t_contract(LinkTokenInterface)1309": {
        "encoding": "inplace",
        "label": "contract LinkTokenInterface",
        "numberOfBytes": "20"
      },
      "t_contract(OperatorInterface)1389": {
        "encoding": "inplace",
        "label": "contract OperatorInterface",
        "numberOfBytes": "20"
      },
      "t_enum(Breed)5341": {
        "encoding": "inplace",
        "label": "enum VrfMint.Breed",
        "numberOfBytes": "1"
      },
      "t_mapping(t_address,t_bool)": {
        "encoding": "mapping",
        "key": "t_address",
        "label": "mapping(address => bool)",
        "numberOfBytes": "32",
        "value": "t_bool"
      },
      "t_mapping(t_address,t_mapping(t_address,t_bool))": {
        "encoding": "mapping",
        "key": "t_address",
        "label": "mapping(address => mapping(address => bool))",
        "numberOfBytes": "32",
        "value": "t_mapping(t_address,t_bool)"
      },
      "t_mapping(t_address,t_uint256)": {
        "encoding": "mapping",
        "key": "t_address",
        "label": "mapping(address => uint256)",
        "numberOfBytes": "32",
        "value": "t_uint256"
      },
      "t_mapping(t_address,t_uint32)": {
        "encoding": "mapping",
        "key": "t_address",
        "label": "mapping(address => uint32)",
        "numberOfBytes": "32",
        "value": "t_uint32"
      },
      "t_mapping(t_bytes32,t_address)": {
        "encoding": "mapping",
        "key": "t_bytes32",
        "label": "mapping(bytes32 => address)",
        "numberOfBytes": "32",
        "value": "t_address"
      },
      "t_mapping(t_uint256,t_address)": {
        "encoding": "mapping",
        "key": "t_uint256",
        "label": "mapping(uint256 => address)",
        "numberOfBytes": "32",
        "value": "t_address"
      },
      "t_mapping(t_uint256,t_enum(Breed)5341)": {
        "encoding": "mapping",
        "key": "t_uint256",
        "label": "mapping(uint256 => enum VrfMint.Breed)",
        "numberOfBytes": "32",
        "value": "t_enum(Breed)5341"
      },
      "t_mapping(t_uint256,t_string_storage)": {
        "encoding": "mapping",
        "key": "t_uint256",
        "label": "mapping(uint256 => string)",
        "numberOfBytes": "32",
        "value": "t_string_storage"
      },
      "t_string_storage": {
        "encoding": "bytes",
        "label": "string",
        "numberOfBytes": "32"
      },
      "t_uint256": {
        "encoding": "inplace",
        "label": "uint256",
        "numberOfBytes": "32"
      },
      "t_uint32": {
        "encoding": "inplace",
        "label": "uint32",
        "numberOfBytes": "4"
      }
    }
  }
}