{
  "address": "0xAA427Fe64Cc07552693d25B8cB5Cf91fa65fe70B",
  "abi": [
    {
      "inputs": [
        {
          "internalType": "address",
          "name": "vrfCoordinatorV2",
          "type": "address"
        },
        {
          "internalType": "uint64",
          "name": "subscriptionId",
          "type": "uint64"
        },
        {
          "internalType": "string[10]",
          "name": "fishTokenUris",
          "type": "string[10]"
        }
      ],
      "stateMutability": "nonpayable",
      "type": "constructor"
    },
    {
      "inputs": [],
      "name": "AlreadyInitialized",
      "type": "error"
    },
    {
      "inputs": [
        {
          "internalType": "address",
          "name": "have",
          "type": "address"
        },
        {
          "internalType": "address",
          "name": "want",
          "type": "address"
        }
      ],
      "name": "OnlyCoordinatorCanFulfill",
      "type": "error"
    },
    {
      "inputs": [],
      "name": "RangeOutOfBounds",
      "type": "error"
    },
    {
      "anonymous": false,
      "inputs": [
        {
          "indexed": true,
          "internalType": "address",
          "name": "owner",
          "type": "address"
        },
        {
          "indexed": true,
          "internalType": "address",
          "name": "approved",
          "type": "address"
        },
        {
          "indexed": true,
          "internalType": "uint256",
          "name": "tokenId",
          "type": "uint256"
        }
      ],
      "name": "Approval",
      "type": "event"
    },
    {
      "anonymous": false,
      "inputs": [
        {
          "indexed": true,
          "internalType": "address",
          "name": "owner",
          "type": "address"
        },
        {
          "indexed": true,
          "internalType": "address",
          "name": "operator",
          "type": "address"
        },
        {
          "indexed": false,
          "internalType": "bool",
          "name": "approved",
          "type": "bool"
        }
      ],
      "name": "ApprovalForAll",
      "type": "event"
    },
    {
      "anonymous": false,
      "inputs": [
        {
          "indexed": false,
          "internalType": "enum VrfMint.Breed",
          "name": "breed",
          "type": "uint8"
        },
        {
          "indexed": false,
          "internalType": "address",
          "name": "minter",
          "type": "address"
        }
      ],
      "name": "NftMinted",
      "type": "event"
    },
    {
      "anonymous": false,
      "inputs": [
        {
          "indexed": true,
          "internalType": "uint256",
          "name": "requestId",
          "type": "uint256"
        },
        {
          "indexed": false,
          "internalType": "address",
          "name": "requester",
          "type": "address"
        }
      ],
      "name": "NftRequested",
      "type": "event"
    },
    {
      "anonymous": false,
      "inputs": [
        {
          "indexed": true,
          "internalType": "address",
          "name": "previousOwner",
          "type": "address"
        },
        {
          "indexed": true,
          "internalType": "address",
          "name": "newOwner",
          "type": "address"
        }
      ],
      "name": "OwnershipTransferred",
      "type": "event"
    },
    {
      "anonymous": false,
      "inputs": [
        {
          "indexed": true,
          "internalType": "address",
          "name": "from",
          "type": "address"
        },
        {
          "indexed": true,
          "internalType": "address",
          "name": "to",
          "type": "address"
        },
        {
          "indexed": true,
          "internalType": "uint256",
          "name": "tokenId",
          "type": "uint256"
        }
      ],
      "name": "Transfer",
      "type": "event"
    },
    {
      "inputs": [
        {
          "internalType": "address",
          "name": "to",
          "type": "address"
        },
        {
          "internalType": "uint256",
          "name": "tokenId",
          "type": "uint256"
        }
      ],
      "name": "approve",
      "outputs": [],
      "stateMutability": "nonpayable",
      "type": "function"
    },
    {
      "inputs": [
        {
          "internalType": "address",
          "name": "owner",
          "type": "address"
        }
      ],
      "name": "balanceOf",
      "outputs": [
        {
          "internalType": "uint256",
          "name": "",
          "type": "uint256"
        }
      ],
      "stateMutability": "view",
      "type": "function"
    },
    {
      "inputs": [
        {
          "internalType": "uint256",
          "name": "tokenId",
          "type": "uint256"
        }
      ],
      "name": "getApproved",
      "outputs": [
        {
          "internalType": "address",
          "name": "",
          "type": "address"
        }
      ],
      "stateMutability": "view",
      "type": "function"
    },
    {
      "inputs": [
        {
          "internalType": "uint256",
          "name": "moddedRng",
          "type": "uint256"
        }
      ],
      "name": "getBreedFromModdedRng",
      "outputs": [
        {
          "internalType": "enum VrfMint.Breed",
          "name": "",
          "type": "uint8"
        }
      ],
      "stateMutability": "pure",
      "type": "function"
    },
    {
      "inputs": [],
      "name": "getChanceArray",
      "outputs": [
        {
          "internalType": "uint256[10]",
          "name": "",
          "type": "uint256[10]"
        }
      ],
      "stateMutability": "pure",
      "type": "function"
    },
    {
      "inputs": [],
      "name": "getInitialized",
      "outputs": [
        {
          "internalType": "bool",
          "name": "",
          "type": "bool"
        }
      ],
      "stateMutability": "view",
      "type": "function"
    },
    {
      "inputs": [],
      "name": "getTokenCounter",
      "outputs": [
        {
          "internalType": "uint256",
          "name": "",
          "type": "uint256"
        }
      ],
      "stateMutability": "view",
      "type": "function"
    },
    {
      "inputs": [
        {
          "internalType": "uint256",
          "name": "index",
          "type": "uint256"
        }
      ],
      "name": "getfishTokenUris",
      "outputs": [
        {
          "internalType": "string",
          "name": "",
          "type": "string"
        }
      ],
      "stateMutability": "view",
      "type": "function"
    },
    {
      "inputs": [
        {
          "internalType": "address",
          "name": "owner",
          "type": "address"
        },
        {
          "internalType": "address",
          "name": "operator",
          "type": "address"
        }
      ],
      "name": "isApprovedForAll",
      "outputs": [
        {
          "internalType": "bool",
          "name": "",
          "type": "bool"
        }
      ],
      "stateMutability": "view",
      "type": "function"
    },
    {
      "inputs": [],
      "name": "mint",
      "outputs": [
        {
          "internalType": "uint256",
          "name": "requestId",
          "type": "uint256"
        }
      ],
      "stateMutability": "nonpayable",
      "type": "function"
    },
    {
      "inputs": [],
      "name": "name",
      "outputs": [
        {
          "internalType": "string",
          "name": "",
          "type": "string"
        }
      ],
      "stateMutability": "view",
      "type": "function"
    },
    {
      "inputs": [],
      "name": "owner",
      "outputs": [
        {
          "internalType": "address",
          "name": "",
          "type": "address"
        }
      ],
      "stateMutability": "view",
      "type": "function"
    },
    {
      "inputs": [
        {
          "internalType": "uint256",
          "name": "tokenId",
          "type": "uint256"
        }
      ],
      "name": "ownerOf",
      "outputs": [
        {
          "internalType": "address",
          "name": "",
          "type": "address"
        }
      ],
      "stateMutability": "view",
      "type": "function"
    },
    {
      "inputs": [
        {
          "internalType": "uint256",
          "name": "requestId",
          "type": "uint256"
        },
        {
          "internalType": "uint256[]",
          "name": "randomWords",
          "type": "uint256[]"
        }
      ],
      "name": "rawFulfillRandomWords",
      "outputs": [],
      "stateMutability": "nonpayable",
      "type": "function"
    },
    {
      "inputs": [],
      "name": "renounceOwnership",
      "outputs": [],
      "stateMutability": "nonpayable",
      "type": "function"
    },
    {
      "inputs": [
        {
          "internalType": "uint256",
          "name": "",
          "type": "uint256"
        }
      ],
      "name": "s_requestIdToSender",
      "outputs": [
        {
          "internalType": "address",
          "name": "",
          "type": "address"
        }
      ],
      "stateMutability": "view",
      "type": "function"
    },
    {
      "inputs": [
        {
          "internalType": "address",
          "name": "from",
          "type": "address"
        },
        {
          "internalType": "address",
          "name": "to",
          "type": "address"
        },
        {
          "internalType": "uint256",
          "name": "tokenId",
          "type": "uint256"
        }
      ],
      "name": "safeTransferFrom",
      "outputs": [],
      "stateMutability": "nonpayable",
      "type": "function"
    },
    {
      "inputs": [
        {
          "internalType": "address",
          "name": "from",
          "type": "address"
        },
        {
          "internalType": "address",
          "name": "to",
          "type": "address"
        },
        {
          "internalType": "uint256",
          "name": "tokenId",
          "type": "uint256"
        },
        {
          "internalType": "bytes",
          "name": "data",
          "type": "bytes"
        }
      ],
      "name": "safeTransferFrom",
      "outputs": [],
      "stateMutability": "nonpayable",
      "type": "function"
    },
    {
      "inputs": [
        {
          "internalType": "address",
          "name": "operator",
          "type": "address"
        },
        {
          "internalType": "bool",
          "name": "approved",
          "type": "bool"
        }
      ],
      "name": "setApprovalForAll",
      "outputs": [],
      "stateMutability": "nonpayable",
      "type": "function"
    },
    {
      "inputs": [
        {
          "internalType": "bytes4",
          "name": "interfaceId",
          "type": "bytes4"
        }
      ],
      "name": "supportsInterface",
      "outputs": [
        {
          "internalType": "bool",
          "name": "",
          "type": "bool"
        }
      ],
      "stateMutability": "view",
      "type": "function"
    },
    {
      "inputs": [],
      "name": "symbol",
      "outputs": [
        {
          "internalType": "string",
          "name": "",
          "type": "string"
        }
      ],
      "stateMutability": "view",
      "type": "function"
    },
    {
      "inputs": [
        {
          "internalType": "uint256",
          "name": "tokenId",
          "type": "uint256"
        }
      ],
      "name": "tokenURI",
      "outputs": [
        {
          "internalType": "string",
          "name": "",
          "type": "string"
        }
      ],
      "stateMutability": "view",
      "type": "function"
    },
    {
      "inputs": [
        {
          "internalType": "address",
          "name": "from",
          "type": "address"
        },
        {
          "internalType": "address",
          "name": "to",
          "type": "address"
        },
        {
          "internalType": "uint256",
          "name": "tokenId",
          "type": "uint256"
        }
      ],
      "name": "transferFrom",
      "outputs": [],
      "stateMutability": "nonpayable",
      "type": "function"
    },
    {
      "inputs": [
        {
          "internalType": "address",
          "name": "newOwner",
          "type": "address"
        }
      ],
      "name": "transferOwnership",
      "outputs": [],
      "stateMutability": "nonpayable",
      "type": "function"
    }
  ],
  "transactionHash": "0xfe5cdae6ffda183556ab09e0037af394ab331806e8a97939ae7c838b3bed642c",
  "args": [
    "0x7a1BaC17Ccc5b313516C5E16fb24f7659aA5ebed",
    2526,
    [
      "https://ipfs.filebase.io/ipfs/QmeZ3Xndo1DTruEGCbenzR381FyaLL8JgwGRKc1nfE3riU/1.json",
      "https://ipfs.filebase.io/ipfs/QmeZ3Xndo1DTruEGCbenzR381FyaLL8JgwGRKc1nfE3riU/2.json",
      "https://ipfs.filebase.io/ipfs/QmeZ3Xndo1DTruEGCbenzR381FyaLL8JgwGRKc1nfE3riU/3.json",
      "https://ipfs.filebase.io/ipfs/QmeZ3Xndo1DTruEGCbenzR381FyaLL8JgwGRKc1nfE3riU/4.json",
      "https://ipfs.filebase.io/ipfs/QmeZ3Xndo1DTruEGCbenzR381FyaLL8JgwGRKc1nfE3riU/5.json",
      "https://ipfs.filebase.io/ipfs/QmeZ3Xndo1DTruEGCbenzR381FyaLL8JgwGRKc1nfE3riU/6.json",
      "https://ipfs.filebase.io/ipfs/QmeZ3Xndo1DTruEGCbenzR381FyaLL8JgwGRKc1nfE3riU/7.json",
      "https://ipfs.filebase.io/ipfs/QmeZ3Xndo1DTruEGCbenzR381FyaLL8JgwGRKc1nfE3riU/8.json",
      "https://ipfs.filebase.io/ipfs/QmeZ3Xndo1DTruEGCbenzR381FyaLL8JgwGRKc1nfE3riU/9.json",
      "https://ipfs.filebase.io/ipfs/QmeZ3Xndo1DTruEGCbenzR381FyaLL8JgwGRKc1nfE3riU/10.json"
    ]
  ],
  "numDeployments": 1,
  "solcInputHash": "5afeb56a7b099d0d3d9600d8da778262",
  "bytecode": "0x60e06040527f4b09e658ed251bcafeebbc69400383d49f344ace09b9576fe248bb02c003fe9f60001b600855622625a0600960006101000a81548163ffffffff021916908363ffffffff1602179055503480156200005c57600080fd5b506040516200457538038062004575833981810160405281019062000082919062000730565b826040518060400160405280601281526020017f50696578656c20466c79696e67206669736800000000000000000000000000008152506040518060400160405280600381526020017f50464600000000000000000000000000000000000000000000000000000000008152508160009081620001009190620009f6565b508060019081620001129190620009f6565b5050508073ffffffffffffffffffffffffffffffffffffffff1660808173ffffffffffffffffffffffffffffffffffffffff1681525050506200016a6200015e620001d460201b60201c565b620001dc60201b60201c565b8273ffffffffffffffffffffffffffffffffffffffff1660a08173ffffffffffffffffffffffffffffffffffffffff16815250508167ffffffffffffffff1660c08167ffffffffffffffff1681525050620001cb81620002a260201b60201c565b50505062000add565b600033905090565b6000600760009054906101000a900473ffffffffffffffffffffffffffffffffffffffff16905081600760006101000a81548173ffffffffffffffffffffffffffffffffffffffff021916908373ffffffffffffffffffffffffffffffffffffffff1602179055508173ffffffffffffffffffffffffffffffffffffffff168173ffffffffffffffffffffffffffffffffffffffff167f8be0079c531659141344cd1fd0a4f28419497f9722a3daafe3b4186f6b6457e060405160405180910390a35050565b600d60009054906101000a900460ff1615620002ea576040517f0dc149f000000000000000000000000000000000000000000000000000000000815260040160405180910390fd5b80600c90600a620002fd9291906200031c565b506001600d60006101000a81548160ff02191690831515021790555050565b82805482825590600052602060002090810192821562000369579160200282015b8281111562000368578251829081620003579190620009f6565b50916020019190600101906200033d565b5b5090506200037891906200037c565b5090565b5b80821115620003a05760008181620003969190620003a4565b506001016200037d565b5090565b508054620003b290620007e5565b6000825580601f10620003c65750620003e7565b601f016020900490600052602060002090810190620003e69190620003ea565b5b50565b5b8082111562000405576000816000905550600101620003eb565b5090565b6000604051905090565b600080fd5b600080fd5b600073ffffffffffffffffffffffffffffffffffffffff82169050919050565b60006200044a826200041d565b9050919050565b6200045c816200043d565b81146200046857600080fd5b50565b6000815190506200047c8162000451565b92915050565b600067ffffffffffffffff82169050919050565b620004a18162000482565b8114620004ad57600080fd5b50565b600081519050620004c18162000496565b92915050565b600080fd5b6000601f19601f8301169050919050565b7f4e487b7100000000000000000000000000000000000000000000000000000000600052604160045260246000fd5b6200051782620004cc565b810181811067ffffffffffffffff82111715620005395762000538620004dd565b5b80604052505050565b60006200054e62000409565b90506200055c82826200050c565b919050565b600067ffffffffffffffff8211156200057f576200057e620004dd565b5b602082029050919050565b600080fd5b600080fd5b600067ffffffffffffffff821115620005b257620005b1620004dd565b5b620005bd82620004cc565b9050602081019050919050565b60005b83811015620005ea578082015181840152602081019050620005cd565b60008484015250505050565b60006200060d620006078462000594565b62000542565b9050828152602081018484840111156200062c576200062b6200058f565b5b62000639848285620005ca565b509392505050565b600082601f830112620006595762000658620004c7565b5b81516200066b848260208601620005f6565b91505092915050565b60006200068b620006858462000561565b62000542565b90508060208402830185811115620006a857620006a76200058a565b5b835b81811015620006f657805167ffffffffffffffff811115620006d157620006d0620004c7565b5b808601620006e0898262000641565b85526020850194505050602081019050620006aa565b5050509392505050565b600082601f830112620007185762000717620004c7565b5b600a6200072784828562000674565b91505092915050565b6000806000606084860312156200074c576200074b62000413565b5b60006200075c868287016200046b565b93505060206200076f86828701620004b0565b925050604084015167ffffffffffffffff81111562000793576200079262000418565b5b620007a18682870162000700565b9150509250925092565b600081519050919050565b7f4e487b7100000000000000000000000000000000000000000000000000000000600052602260045260246000fd5b60006002820490506001821680620007fe57607f821691505b602082108103620008145762000813620007b6565b5b50919050565b60008190508160005260206000209050919050565b60006020601f8301049050919050565b600082821b905092915050565b6000600883026200087e7fffffffffffffffffffffffffffffffffffffffffffffffffffffffffffffffff826200083f565b6200088a86836200083f565b95508019841693508086168417925050509392505050565b6000819050919050565b6000819050919050565b6000620008d7620008d1620008cb84620008a2565b620008ac565b620008a2565b9050919050565b6000819050919050565b620008f383620008b6565b6200090b6200090282620008de565b8484546200084c565b825550505050565b600090565b6200092262000913565b6200092f818484620008e8565b505050565b5b8181101562000957576200094b60008262000918565b60018101905062000935565b5050565b601f821115620009a65762000970816200081a565b6200097b846200082f565b810160208510156200098b578190505b620009a36200099a856200082f565b83018262000934565b50505b505050565b600082821c905092915050565b6000620009cb60001984600802620009ab565b1980831691505092915050565b6000620009e68383620009b8565b9150826002028217905092915050565b62000a0182620007ab565b67ffffffffffffffff81111562000a1d5762000a1c620004dd565b5b62000a298254620007e5565b62000a368282856200095b565b600060209050601f83116001811462000a6e576000841562000a59578287015190505b62000a658582620009d8565b86555062000ad5565b601f19841662000a7e866200081a565b60005b8281101562000aa85784890151825560018201915060208501945060208101905062000a81565b8683101562000ac8578489015162000ac4601f891682620009b8565b8355505b6001600288020188555050505b505050505050565b60805160a05160c051613a6162000b1460003960006107c1015260006107820152600081816108eb015261093f0152613a616000f3fe608060405234801561001057600080fd5b50600436106101585760003560e01c8063715018a6116100c3578063a51cccf31161007c578063a51cccf3146103c7578063b88d4fde146103f7578063c87b56dd14610413578063e985e9c514610443578063ee89dab414610473578063f2fde38b1461049157610158565b8063715018a6146103055780638da5cb5b1461030f57806395d89b411461032d5780639f5eb9151461034b578063a22cb4651461037b578063a36f573b1461039757610158565b806323b872dd1161011557806323b872dd1461023157806342842e0e1461024d5780635dacf5f4146102695780636352211e146102875780636e02007d146102b757806370a08231146102d557610158565b806301ffc9a71461015d57806306fdde031461018d578063081812fc146101ab578063095ea7b3146101db5780631249c58b146101f75780631fe543e314610215575b600080fd5b61017760048036038101906101729190612434565b6104ad565b604051610184919061247c565b60405180910390f35b61019561058f565b6040516101a29190612527565b60405180910390f35b6101c560048036038101906101c0919061257f565b610621565b6040516101d291906125ed565b60405180910390f35b6101f560048036038101906101f09190612634565b610667565b005b6101ff61077e565b60405161020c9190612683565b60405180910390f35b61022f600480360381019061022a91906127e6565b6108e9565b005b61024b60048036038101906102469190612842565b6109a9565b005b61026760048036038101906102629190612842565b610a09565b005b610271610a29565b60405161027e9190612940565b60405180910390f35b6102a1600480360381019061029c919061257f565b610a86565b6040516102ae91906125ed565b60405180910390f35b6102bf610b0c565b6040516102cc9190612683565b60405180910390f35b6102ef60048036038101906102ea919061295c565b610b16565b6040516102fc9190612683565b60405180910390f35b61030d610bcd565b005b610317610be1565b60405161032491906125ed565b60405180910390f35b610335610c0b565b6040516103429190612527565b60405180910390f35b6103656004803603810190610360919061257f565b610c9d565b6040516103729190612527565b60405180910390f35b610395600480360381019061039091906129b5565b610d4d565b005b6103b160048036038101906103ac919061257f565b610d63565b6040516103be91906125ed565b60405180910390f35b6103e160048036038101906103dc919061257f565b610d96565b6040516103ee9190612a6c565b60405180910390f35b610411600480360381019061040c9190612b3c565b610e62565b005b61042d6004803603810190610428919061257f565b610ec4565b60405161043a9190612527565b60405180910390f35b61045d60048036038101906104589190612bbf565b610fd6565b60405161046a919061247c565b60405180910390f35b61047b61106a565b604051610488919061247c565b60405180910390f35b6104ab60048036038101906104a6919061295c565b611081565b005b60007f80ac58cd000000000000000000000000000000000000000000000000000000007bffffffffffffffffffffffffffffffffffffffffffffffffffffffff1916827bffffffffffffffffffffffffffffffffffffffffffffffffffffffff1916148061057857507f5b5e139f000000000000000000000000000000000000000000000000000000007bffffffffffffffffffffffffffffffffffffffffffffffffffffffff1916827bffffffffffffffffffffffffffffffffffffffffffffffffffffffff1916145b80610588575061058782611104565b5b9050919050565b60606000805461059e90612c2e565b80601f01602080910402602001604051908101604052809291908181526020018280546105ca90612c2e565b80156106175780601f106105ec57610100808354040283529160200191610617565b820191906000526020600020905b8154815290600101906020018083116105fa57829003601f168201915b5050505050905090565b600061062c8261116e565b6004600083815260200190815260200160002060009054906101000a900473ffffffffffffffffffffffffffffffffffffffff169050919050565b600061067282610a86565b90508073ffffffffffffffffffffffffffffffffffffffff168373ffffffffffffffffffffffffffffffffffffffff16036106e2576040517f08c379a00000000000000000000000000000000000000000000000000000000081526004016106d990612cd1565b60405180910390fd5b8073ffffffffffffffffffffffffffffffffffffffff166107016111b9565b73ffffffffffffffffffffffffffffffffffffffff161480610730575061072f8161072a6111b9565b610fd6565b5b61076f576040517f08c379a000000000000000000000000000000000000000000000000000000000815260040161076690612d63565b60405180910390fd5b61077983836111c1565b505050565b60007f000000000000000000000000000000000000000000000000000000000000000073ffffffffffffffffffffffffffffffffffffffff16635d3b1d306008547f00000000000000000000000000000000000000000000000000000000000000006003600960009054906101000a900463ffffffff1660016040518663ffffffff1660e01b8152600401610817959493929190612dfb565b6020604051808303816000875af1158015610836573d6000803e3d6000fd5b505050506040513d601f19601f8201168201806040525081019061085a9190612e63565b905033600e600083815260200190815260200160002060006101000a81548173ffffffffffffffffffffffffffffffffffffffff021916908373ffffffffffffffffffffffffffffffffffffffff160217905550807ff873236e6cc0ecc5be1a9a35c95ee5b8d1ac4cc7bfef0cc5060391d6cc98e26b336040516108de91906125ed565b60405180910390a290565b7f000000000000000000000000000000000000000000000000000000000000000073ffffffffffffffffffffffffffffffffffffffff163373ffffffffffffffffffffffffffffffffffffffff161461099b57337f00000000000000000000000000000000000000000000000000000000000000006040517f1cf993f4000000000000000000000000000000000000000000000000000000008152600401610992929190612e90565b60405180910390fd5b6109a5828261127a565b5050565b6109ba6109b46111b9565b82611414565b6109f9576040517f08c379a00000000000000000000000000000000000000000000000000000000081526004016109f090612f2b565b60405180910390fd5b610a048383836114a9565b505050565b610a2483838360405180602001604052806000815250610e62565b505050565b610a316123a5565b604051806101400160405280600a815260200160148152602001601e81526020016028815260200160328152602001603781526020016046815260200160508152602001605a81526020016064815250905090565b600080610a92836117a2565b9050600073ffffffffffffffffffffffffffffffffffffffff168173ffffffffffffffffffffffffffffffffffffffff1603610b03576040517f08c379a0000000000000000000000000000000000000000000000000000000008152600401610afa90612f97565b60405180910390fd5b80915050919050565b6000600a54905090565b60008073ffffffffffffffffffffffffffffffffffffffff168273ffffffffffffffffffffffffffffffffffffffff1603610b86576040517f08c379a0000000000000000000000000000000000000000000000000000000008152600401610b7d90613029565b60405180910390fd5b600360008373ffffffffffffffffffffffffffffffffffffffff1673ffffffffffffffffffffffffffffffffffffffff168152602001908152602001600020549050919050565b610bd56117df565b610bdf600061185d565b565b6000600760009054906101000a900473ffffffffffffffffffffffffffffffffffffffff16905090565b606060018054610c1a90612c2e565b80601f0160208091040260200160405190810160405280929190818152602001828054610c4690612c2e565b8015610c935780601f10610c6857610100808354040283529160200191610c93565b820191906000526020600020905b815481529060010190602001808311610c7657829003601f168201915b5050505050905090565b6060600c8281548110610cb357610cb2613049565b5b906000526020600020018054610cc890612c2e565b80601f0160208091040260200160405190810160405280929190818152602001828054610cf490612c2e565b8015610d415780601f10610d1657610100808354040283529160200191610d41565b820191906000526020600020905b815481529060010190602001808311610d2457829003601f168201915b50505050509050919050565b610d5f610d586111b9565b8383611923565b5050565b600e6020528060005260406000206000915054906101000a900473ffffffffffffffffffffffffffffffffffffffff1681565b600080600090506000610da7610a29565b905060005b600a811015610e2a57828510158015610ddb57508181600a8110610dd357610dd2613049565b5b602002015185105b15610dfd57806009811115610df357610df26129f5565b5b9350505050610e5d565b8181600a8110610e1057610e0f613049565b5b602002015192508080610e22906130a7565b915050610dac565b506040517f0655dc2500000000000000000000000000000000000000000000000000000000815260040160405180910390fd5b919050565b610e73610e6d6111b9565b83611414565b610eb2576040517f08c379a0000000000000000000000000000000000000000000000000000000008152600401610ea990612f2b565b60405180910390fd5b610ebe84848484611a8f565b50505050565b6060610ecf8261116e565b6000600660008481526020019081526020016000208054610eef90612c2e565b80601f0160208091040260200160405190810160405280929190818152602001828054610f1b90612c2e565b8015610f685780601f10610f3d57610100808354040283529160200191610f68565b820191906000526020600020905b815481529060010190602001808311610f4b57829003601f168201915b505050505090506000610f79611aeb565b90506000815103610f8e578192505050610fd1565b600082511115610fc3578082604051602001610fab92919061312b565b60405160208183030381529060405292505050610fd1565b610fcc84611b02565b925050505b919050565b6000600560008473ffffffffffffffffffffffffffffffffffffffff1673ffffffffffffffffffffffffffffffffffffffff16815260200190815260200160002060008373ffffffffffffffffffffffffffffffffffffffff1673ffffffffffffffffffffffffffffffffffffffff16815260200190815260200160002060009054906101000a900460ff16905092915050565b6000600d60009054906101000a900460ff16905090565b6110896117df565b600073ffffffffffffffffffffffffffffffffffffffff168173ffffffffffffffffffffffffffffffffffffffff16036110f8576040517f08c379a00000000000000000000000000000000000000000000000000000000081526004016110ef906131c1565b60405180910390fd5b6111018161185d565b50565b60007f01ffc9a7000000000000000000000000000000000000000000000000000000007bffffffffffffffffffffffffffffffffffffffffffffffffffffffff1916827bffffffffffffffffffffffffffffffffffffffffffffffffffffffff1916149050919050565b61117781611b6a565b6111b6576040517f08c379a00000000000000000000000000000000000000000000000000000000081526004016111ad90612f97565b60405180910390fd5b50565b600033905090565b816004600083815260200190815260200160002060006101000a81548173ffffffffffffffffffffffffffffffffffffffff021916908373ffffffffffffffffffffffffffffffffffffffff160217905550808273ffffffffffffffffffffffffffffffffffffffff1661123483610a86565b73ffffffffffffffffffffffffffffffffffffffff167f8c5be1e5ebec7d5bd14f71427d1e84f3dd0314c0f7b2291e5b200ac8c7c3b92560405160405180910390a45050565b6000600e600084815260200190815260200160002060009054906101000a900473ffffffffffffffffffffffffffffffffffffffff1690506000600a5490506001600a546112c891906131e1565b600a8190555060006064846000815181106112e6576112e5613049565b5b60200260200101516112f89190613244565b9050600061130582610d96565b90506113118484611bab565b6113d383600c83600981111561132a576113296129f5565b5b8154811061133b5761133a613049565b5b90600052602060002001805461135090612c2e565b80601f016020809104026020016040519081016040528092919081815260200182805461137c90612c2e565b80156113c95780601f1061139e576101008083540402835291602001916113c9565b820191906000526020600020905b8154815290600101906020018083116113ac57829003601f168201915b5050505050611bc9565b7f8a269f26b688e110e9cbd887d163dab35cae678fa353a0292de532c0cac1ecdc8185604051611404929190613275565b60405180910390a1505050505050565b60008061142083610a86565b90508073ffffffffffffffffffffffffffffffffffffffff168473ffffffffffffffffffffffffffffffffffffffff16148061146257506114618185610fd6565b5b806114a057508373ffffffffffffffffffffffffffffffffffffffff1661148884610621565b73ffffffffffffffffffffffffffffffffffffffff16145b91505092915050565b8273ffffffffffffffffffffffffffffffffffffffff166114c982610a86565b73ffffffffffffffffffffffffffffffffffffffff161461151f576040517f08c379a000000000000000000000000000000000000000000000000000000000815260040161151690613310565b60405180910390fd5b600073ffffffffffffffffffffffffffffffffffffffff168273ffffffffffffffffffffffffffffffffffffffff160361158e576040517f08c379a0000000000000000000000000000000000000000000000000000000008152600401611585906133a2565b60405180910390fd5b61159b8383836001611c36565b8273ffffffffffffffffffffffffffffffffffffffff166115bb82610a86565b73ffffffffffffffffffffffffffffffffffffffff1614611611576040517f08c379a000000000000000000000000000000000000000000000000000000000815260040161160890613310565b60405180910390fd5b6004600082815260200190815260200160002060006101000a81549073ffffffffffffffffffffffffffffffffffffffff02191690556001600360008573ffffffffffffffffffffffffffffffffffffffff1673ffffffffffffffffffffffffffffffffffffffff168152602001908152602001600020600082825403925050819055506001600360008473ffffffffffffffffffffffffffffffffffffffff1673ffffffffffffffffffffffffffffffffffffffff16815260200190815260200160002060008282540192505081905550816002600083815260200190815260200160002060006101000a81548173ffffffffffffffffffffffffffffffffffffffff021916908373ffffffffffffffffffffffffffffffffffffffff160217905550808273ffffffffffffffffffffffffffffffffffffffff168473ffffffffffffffffffffffffffffffffffffffff167fddf252ad1be2c89b69c2b068fc378daa952ba7f163c4a11628f55a4df523b3ef60405160405180910390a461179d8383836001611d5c565b505050565b60006002600083815260200190815260200160002060009054906101000a900473ffffffffffffffffffffffffffffffffffffffff169050919050565b6117e76111b9565b73ffffffffffffffffffffffffffffffffffffffff16611805610be1565b73ffffffffffffffffffffffffffffffffffffffff161461185b576040517f08c379a00000000000000000000000000000000000000000000000000000000081526004016118529061340e565b60405180910390fd5b565b6000600760009054906101000a900473ffffffffffffffffffffffffffffffffffffffff16905081600760006101000a81548173ffffffffffffffffffffffffffffffffffffffff021916908373ffffffffffffffffffffffffffffffffffffffff1602179055508173ffffffffffffffffffffffffffffffffffffffff168173ffffffffffffffffffffffffffffffffffffffff167f8be0079c531659141344cd1fd0a4f28419497f9722a3daafe3b4186f6b6457e060405160405180910390a35050565b8173ffffffffffffffffffffffffffffffffffffffff168373ffffffffffffffffffffffffffffffffffffffff1603611991576040517f08c379a00000000000000000000000000000000000000000000000000000000081526004016119889061347a565b60405180910390fd5b80600560008573ffffffffffffffffffffffffffffffffffffffff1673ffffffffffffffffffffffffffffffffffffffff16815260200190815260200160002060008473ffffffffffffffffffffffffffffffffffffffff1673ffffffffffffffffffffffffffffffffffffffff16815260200190815260200160002060006101000a81548160ff0219169083151502179055508173ffffffffffffffffffffffffffffffffffffffff168373ffffffffffffffffffffffffffffffffffffffff167f17307eab39ab6107e8899845ad3d59bd9653f200f220920489ca2b5937696c3183604051611a82919061247c565b60405180910390a3505050565b611a9a8484846114a9565b611aa684848484611d62565b611ae5576040517f08c379a0000000000000000000000000000000000000000000000000000000008152600401611adc9061350c565b60405180910390fd5b50505050565b606060405180602001604052806000815250905090565b6060611b0d8261116e565b6000611b17611aeb565b90506000815111611b375760405180602001604052806000815250611b62565b80611b4184611ee9565b604051602001611b5292919061312b565b6040516020818303038152906040525b915050919050565b60008073ffffffffffffffffffffffffffffffffffffffff16611b8c836117a2565b73ffffffffffffffffffffffffffffffffffffffff1614159050919050565b611bc5828260405180602001604052806000815250611fb7565b5050565b611bd282611b6a565b611c11576040517f08c379a0000000000000000000000000000000000000000000000000000000008152600401611c089061359e565b60405180910390fd5b80600660008481526020019081526020016000209081611c31919061376a565b505050565b6001811115611d5657600073ffffffffffffffffffffffffffffffffffffffff168473ffffffffffffffffffffffffffffffffffffffff1614611cca5780600360008673ffffffffffffffffffffffffffffffffffffffff1673ffffffffffffffffffffffffffffffffffffffff1681526020019081526020016000206000828254611cc2919061383c565b925050819055505b600073ffffffffffffffffffffffffffffffffffffffff168373ffffffffffffffffffffffffffffffffffffffff1614611d555780600360008573ffffffffffffffffffffffffffffffffffffffff1673ffffffffffffffffffffffffffffffffffffffff1681526020019081526020016000206000828254611d4d91906131e1565b925050819055505b5b50505050565b50505050565b6000611d838473ffffffffffffffffffffffffffffffffffffffff16612012565b15611edc578373ffffffffffffffffffffffffffffffffffffffff1663150b7a02611dac6111b9565b8786866040518563ffffffff1660e01b8152600401611dce94939291906138c5565b6020604051808303816000875af1925050508015611e0a57506040513d601f19601f82011682018060405250810190611e079190613926565b60015b611e8c573d8060008114611e3a576040519150601f19603f3d011682016040523d82523d6000602084013e611e3f565b606091505b506000815103611e84576040517f08c379a0000000000000000000000000000000000000000000000000000000008152600401611e7b9061350c565b60405180910390fd5b805181602001fd5b63150b7a0260e01b7bffffffffffffffffffffffffffffffffffffffffffffffffffffffff1916817bffffffffffffffffffffffffffffffffffffffffffffffffffffffff191614915050611ee1565b600190505b949350505050565b606060006001611ef884612035565b01905060008167ffffffffffffffff811115611f1757611f166126a3565b5b6040519080825280601f01601f191660200182016040528015611f495781602001600182028036833780820191505090505b509050600082602001820190505b600115611fac578080600190039150507f3031323334353637383961626364656600000000000000000000000000000000600a86061a8153600a8581611fa057611f9f613215565b5b04945060008503611f57575b819350505050919050565b611fc18383612188565b611fce6000848484611d62565b61200d576040517f08c379a00000000000000000000000000000000000000000000000000000000081526004016120049061350c565b60405180910390fd5b505050565b6000808273ffffffffffffffffffffffffffffffffffffffff163b119050919050565b600080600090507a184f03e93ff9f4daa797ed6e38ed64bf6a1f0100000000000000008310612093577a184f03e93ff9f4daa797ed6e38ed64bf6a1f010000000000000000838161208957612088613215565b5b0492506040810190505b6d04ee2d6d415b85acef810000000083106120d0576d04ee2d6d415b85acef810000000083816120c6576120c5613215565b5b0492506020810190505b662386f26fc1000083106120ff57662386f26fc1000083816120f5576120f4613215565b5b0492506010810190505b6305f5e1008310612128576305f5e100838161211e5761211d613215565b5b0492506008810190505b612710831061214d57612710838161214357612142613215565b5b0492506004810190505b60648310612170576064838161216657612165613215565b5b0492506002810190505b600a831061217f576001810190505b80915050919050565b600073ffffffffffffffffffffffffffffffffffffffff168273ffffffffffffffffffffffffffffffffffffffff16036121f7576040517f08c379a00000000000000000000000000000000000000000000000000000000081526004016121ee9061399f565b60405180910390fd5b61220081611b6a565b15612240576040517f08c379a000000000000000000000000000000000000000000000000000000000815260040161223790613a0b565b60405180910390fd5b61224e600083836001611c36565b61225781611b6a565b15612297576040517f08c379a000000000000000000000000000000000000000000000000000000000815260040161228e90613a0b565b60405180910390fd5b6001600360008473ffffffffffffffffffffffffffffffffffffffff1673ffffffffffffffffffffffffffffffffffffffff16815260200190815260200160002060008282540192505081905550816002600083815260200190815260200160002060006101000a81548173ffffffffffffffffffffffffffffffffffffffff021916908373ffffffffffffffffffffffffffffffffffffffff160217905550808273ffffffffffffffffffffffffffffffffffffffff16600073ffffffffffffffffffffffffffffffffffffffff167fddf252ad1be2c89b69c2b068fc378daa952ba7f163c4a11628f55a4df523b3ef60405160405180910390a46123a1600083836001611d5c565b5050565b604051806101400160405280600a90602082028036833780820191505090505090565b6000604051905090565b600080fd5b600080fd5b60007fffffffff0000000000000000000000000000000000000000000000000000000082169050919050565b612411816123dc565b811461241c57600080fd5b50565b60008135905061242e81612408565b92915050565b60006020828403121561244a576124496123d2565b5b60006124588482850161241f565b91505092915050565b60008115159050919050565b61247681612461565b82525050565b6000602082019050612491600083018461246d565b92915050565b600081519050919050565b600082825260208201905092915050565b60005b838110156124d15780820151818401526020810190506124b6565b60008484015250505050565b6000601f19601f8301169050919050565b60006124f982612497565b61250381856124a2565b93506125138185602086016124b3565b61251c816124dd565b840191505092915050565b6000602082019050818103600083015261254181846124ee565b905092915050565b6000819050919050565b61255c81612549565b811461256757600080fd5b50565b60008135905061257981612553565b92915050565b600060208284031215612595576125946123d2565b5b60006125a38482850161256a565b91505092915050565b600073ffffffffffffffffffffffffffffffffffffffff82169050919050565b60006125d7826125ac565b9050919050565b6125e7816125cc565b82525050565b600060208201905061260260008301846125de565b92915050565b612611816125cc565b811461261c57600080fd5b50565b60008135905061262e81612608565b92915050565b6000806040838503121561264b5761264a6123d2565b5b60006126598582860161261f565b925050602061266a8582860161256a565b9150509250929050565b61267d81612549565b82525050565b60006020820190506126986000830184612674565b92915050565b600080fd5b7f4e487b7100000000000000000000000000000000000000000000000000000000600052604160045260246000fd5b6126db826124dd565b810181811067ffffffffffffffff821117156126fa576126f96126a3565b5b80604052505050565b600061270d6123c8565b905061271982826126d2565b919050565b600067ffffffffffffffff821115612739576127386126a3565b5b602082029050602081019050919050565b600080fd5b600061276261275d8461271e565b612703565b905080838252602082019050602084028301858111156127855761278461274a565b5b835b818110156127ae578061279a888261256a565b845260208401935050602081019050612787565b5050509392505050565b600082601f8301126127cd576127cc61269e565b5b81356127dd84826020860161274f565b91505092915050565b600080604083850312156127fd576127fc6123d2565b5b600061280b8582860161256a565b925050602083013567ffffffffffffffff81111561282c5761282b6123d7565b5b612838858286016127b8565b9150509250929050565b60008060006060848603121561285b5761285a6123d2565b5b60006128698682870161261f565b935050602061287a8682870161261f565b925050604061288b8682870161256a565b9150509250925092565b6000600a9050919050565b600081905092915050565b6000819050919050565b6128be81612549565b82525050565b60006128d083836128b5565b60208301905092915050565b6000602082019050919050565b6128f281612895565b6128fc81846128a0565b9250612907826128ab565b8060005b8381101561293857815161291f87826128c4565b965061292a836128dc565b92505060018101905061290b565b505050505050565b60006101408201905061295660008301846128e9565b92915050565b600060208284031215612972576129716123d2565b5b60006129808482850161261f565b91505092915050565b61299281612461565b811461299d57600080fd5b50565b6000813590506129af81612989565b92915050565b600080604083850312156129cc576129cb6123d2565b5b60006129da8582860161261f565b92505060206129eb858286016129a0565b9150509250929050565b7f4e487b7100000000000000000000000000000000000000000000000000000000600052602160045260246000fd5b600a8110612a3557612a346129f5565b5b50565b6000819050612a4682612a24565b919050565b6000612a5682612a38565b9050919050565b612a6681612a4b565b82525050565b6000602082019050612a816000830184612a5d565b92915050565b600080fd5b600067ffffffffffffffff821115612aa757612aa66126a3565b5b612ab0826124dd565b9050602081019050919050565b82818337600083830152505050565b6000612adf612ada84612a8c565b612703565b905082815260208101848484011115612afb57612afa612a87565b5b612b06848285612abd565b509392505050565b600082601f830112612b2357612b2261269e565b5b8135612b33848260208601612acc565b91505092915050565b60008060008060808587031215612b5657612b556123d2565b5b6000612b648782880161261f565b9450506020612b758782880161261f565b9350506040612b868782880161256a565b925050606085013567ffffffffffffffff811115612ba757612ba66123d7565b5b612bb387828801612b0e565b91505092959194509250565b60008060408385031215612bd657612bd56123d2565b5b6000612be48582860161261f565b9250506020612bf58582860161261f565b9150509250929050565b7f4e487b7100000000000000000000000000000000000000000000000000000000600052602260045260246000fd5b60006002820490506001821680612c4657607f821691505b602082108103612c5957612c58612bff565b5b50919050565b7f4552433732313a20617070726f76616c20746f2063757272656e74206f776e6560008201527f7200000000000000000000000000000000000000000000000000000000000000602082015250565b6000612cbb6021836124a2565b9150612cc682612c5f565b604082019050919050565b60006020820190508181036000830152612cea81612cae565b9050919050565b7f4552433732313a20617070726f76652063616c6c6572206973206e6f7420746f60008201527f6b656e206f776e6572206f7220617070726f76656420666f7220616c6c000000602082015250565b6000612d4d603d836124a2565b9150612d5882612cf1565b604082019050919050565b60006020820190508181036000830152612d7c81612d40565b9050919050565b6000819050919050565b612d9681612d83565b82525050565b600067ffffffffffffffff82169050919050565b612db981612d9c565b82525050565b600061ffff82169050919050565b612dd681612dbf565b82525050565b600063ffffffff82169050919050565b612df581612ddc565b82525050565b600060a082019050612e106000830188612d8d565b612e1d6020830187612db0565b612e2a6040830186612dcd565b612e376060830185612dec565b612e446080830184612dec565b9695505050505050565b600081519050612e5d81612553565b92915050565b600060208284031215612e7957612e786123d2565b5b6000612e8784828501612e4e565b91505092915050565b6000604082019050612ea560008301856125de565b612eb260208301846125de565b9392505050565b7f4552433732313a2063616c6c6572206973206e6f7420746f6b656e206f776e6560008201527f72206f7220617070726f76656400000000000000000000000000000000000000602082015250565b6000612f15602d836124a2565b9150612f2082612eb9565b604082019050919050565b60006020820190508181036000830152612f4481612f08565b9050919050565b7f4552433732313a20696e76616c696420746f6b656e2049440000000000000000600082015250565b6000612f816018836124a2565b9150612f8c82612f4b565b602082019050919050565b60006020820190508181036000830152612fb081612f74565b9050919050565b7f4552433732313a2061646472657373207a65726f206973206e6f74206120766160008201527f6c6964206f776e65720000000000000000000000000000000000000000000000602082015250565b60006130136029836124a2565b915061301e82612fb7565b604082019050919050565b6000602082019050818103600083015261304281613006565b9050919050565b7f4e487b7100000000000000000000000000000000000000000000000000000000600052603260045260246000fd5b7f4e487b7100000000000000000000000000000000000000000000000000000000600052601160045260246000fd5b60006130b282612549565b91507fffffffffffffffffffffffffffffffffffffffffffffffffffffffffffffffff82036130e4576130e3613078565b5b600182019050919050565b600081905092915050565b600061310582612497565b61310f81856130ef565b935061311f8185602086016124b3565b80840191505092915050565b600061313782856130fa565b915061314382846130fa565b91508190509392505050565b7f4f776e61626c653a206e6577206f776e657220697320746865207a65726f206160008201527f6464726573730000000000000000000000000000000000000000000000000000602082015250565b60006131ab6026836124a2565b91506131b68261314f565b604082019050919050565b600060208201905081810360008301526131da8161319e565b9050919050565b60006131ec82612549565b91506131f783612549565b925082820190508082111561320f5761320e613078565b5b92915050565b7f4e487b7100000000000000000000000000000000000000000000000000000000600052601260045260246000fd5b600061324f82612549565b915061325a83612549565b92508261326a57613269613215565b5b828206905092915050565b600060408201905061328a6000830185612a5d565b61329760208301846125de565b9392505050565b7f4552433732313a207472616e736665722066726f6d20696e636f72726563742060008201527f6f776e6572000000000000000000000000000000000000000000000000000000602082015250565b60006132fa6025836124a2565b91506133058261329e565b604082019050919050565b60006020820190508181036000830152613329816132ed565b9050919050565b7f4552433732313a207472616e7366657220746f20746865207a65726f2061646460008201527f7265737300000000000000000000000000000000000000000000000000000000602082015250565b600061338c6024836124a2565b915061339782613330565b604082019050919050565b600060208201905081810360008301526133bb8161337f565b9050919050565b7f4f776e61626c653a2063616c6c6572206973206e6f7420746865206f776e6572600082015250565b60006133f86020836124a2565b9150613403826133c2565b602082019050919050565b60006020820190508181036000830152613427816133eb565b9050919050565b7f4552433732313a20617070726f766520746f2063616c6c657200000000000000600082015250565b60006134646019836124a2565b915061346f8261342e565b602082019050919050565b6000602082019050818103600083015261349381613457565b9050919050565b7f4552433732313a207472616e7366657220746f206e6f6e20455243373231526560008201527f63656976657220696d706c656d656e7465720000000000000000000000000000602082015250565b60006134f66032836124a2565b91506135018261349a565b604082019050919050565b60006020820190508181036000830152613525816134e9565b9050919050565b7f45524337323155524953746f726167653a2055524920736574206f66206e6f6e60008201527f6578697374656e7420746f6b656e000000000000000000000000000000000000602082015250565b6000613588602e836124a2565b91506135938261352c565b604082019050919050565b600060208201905081810360008301526135b78161357b565b9050919050565b60008190508160005260206000209050919050565b60006020601f8301049050919050565b600082821b905092915050565b6000600883026136207fffffffffffffffffffffffffffffffffffffffffffffffffffffffffffffffff826135e3565b61362a86836135e3565b95508019841693508086168417925050509392505050565b6000819050919050565b600061366761366261365d84612549565b613642565b612549565b9050919050565b6000819050919050565b6136818361364c565b61369561368d8261366e565b8484546135f0565b825550505050565b600090565b6136aa61369d565b6136b5818484613678565b505050565b5b818110156136d9576136ce6000826136a2565b6001810190506136bb565b5050565b601f82111561371e576136ef816135be565b6136f8846135d3565b81016020851015613707578190505b61371b613713856135d3565b8301826136ba565b50505b505050565b600082821c905092915050565b600061374160001984600802613723565b1980831691505092915050565b600061375a8383613730565b9150826002028217905092915050565b61377382612497565b67ffffffffffffffff81111561378c5761378b6126a3565b5b6137968254612c2e565b6137a18282856136dd565b600060209050601f8311600181146137d457600084156137c2578287015190505b6137cc858261374e565b865550613834565b601f1984166137e2866135be565b60005b8281101561380a578489015182556001820191506020850194506020810190506137e5565b868310156138275784890151613823601f891682613730565b8355505b6001600288020188555050505b505050505050565b600061384782612549565b915061385283612549565b925082820390508181111561386a57613869613078565b5b92915050565b600081519050919050565b600082825260208201905092915050565b600061389782613870565b6138a1818561387b565b93506138b18185602086016124b3565b6138ba816124dd565b840191505092915050565b60006080820190506138da60008301876125de565b6138e760208301866125de565b6138f46040830185612674565b8181036060830152613906818461388c565b905095945050505050565b60008151905061392081612408565b92915050565b60006020828403121561393c5761393b6123d2565b5b600061394a84828501613911565b91505092915050565b7f4552433732313a206d696e7420746f20746865207a65726f2061646472657373600082015250565b60006139896020836124a2565b915061399482613953565b602082019050919050565b600060208201905081810360008301526139b88161397c565b9050919050565b7f4552433732313a20746f6b656e20616c7265616479206d696e74656400000000600082015250565b60006139f5601c836124a2565b9150613a00826139bf565b602082019050919050565b60006020820190508181036000830152613a24816139e8565b905091905056fea26469706673582212206aa2a2bf9c9f2dc074ec104b49173c261d73fa014103b907d54ee54bcf743e1664736f6c63430008110033",
  "devdoc": {
    "kind": "dev",
    "methods": {
      "approve(address,uint256)": {
        "details": "See {IERC721-approve}."
      },
      "balanceOf(address)": {
        "details": "See {IERC721-balanceOf}."
      },
      "getApproved(uint256)": {
        "details": "See {IERC721-getApproved}."
      },
      "isApprovedForAll(address,address)": {
        "details": "See {IERC721-isApprovedForAll}."
      },
      "name()": {
        "details": "See {IERC721Metadata-name}."
      },
      "owner()": {
        "details": "Returns the address of the current owner."
      },
      "ownerOf(uint256)": {
        "details": "See {IERC721-ownerOf}."
      },
      "renounceOwnership()": {
        "details": "Leaves the contract without owner. It will not be possible to call `onlyOwner` functions anymore. Can only be called by the current owner. NOTE: Renouncing ownership will leave the contract without an owner, thereby removing any functionality that is only available to the owner."
      },
      "safeTransferFrom(address,address,uint256)": {
        "details": "See {IERC721-safeTransferFrom}."
      },
      "safeTransferFrom(address,address,uint256,bytes)": {
        "details": "See {IERC721-safeTransferFrom}."
      },
      "setApprovalForAll(address,bool)": {
        "details": "See {IERC721-setApprovalForAll}."
      },
      "supportsInterface(bytes4)": {
        "details": "See {IERC165-supportsInterface}."
      },
      "symbol()": {
        "details": "See {IERC721Metadata-symbol}."
      },
      "tokenURI(uint256)": {
        "details": "See {IERC721Metadata-tokenURI}."
      },
      "transferFrom(address,address,uint256)": {
        "details": "See {IERC721-transferFrom}."
      },
      "transferOwnership(address)": {
        "details": "Transfers ownership of the contract to a new account (`newOwner`). Can only be called by the current owner."
      }
    },
    "version": 1
  },
  "userdoc": {
    "kind": "user",
    "methods": {},
    "version": 1
  },
  "storageLayout": {
    "storage": [
      {
        "astId": 292,
        "contract": "contracts/VrfMint.sol:VrfMint",
        "label": "_name",
        "offset": 0,
        "slot": "0",
        "type": "t_string_storage"
      },
      {
        "astId": 294,
        "contract": "contracts/VrfMint.sol:VrfMint",
        "label": "_symbol",
        "offset": 0,
        "slot": "1",
        "type": "t_string_storage"
      },
      {
        "astId": 298,
        "contract": "contracts/VrfMint.sol:VrfMint",
        "label": "_owners",
        "offset": 0,
        "slot": "2",
        "type": "t_mapping(t_uint256,t_address)"
      },
      {
        "astId": 302,
        "contract": "contracts/VrfMint.sol:VrfMint",
        "label": "_balances",
        "offset": 0,
        "slot": "3",
        "type": "t_mapping(t_address,t_uint256)"
      },
      {
        "astId": 306,
        "contract": "contracts/VrfMint.sol:VrfMint",
        "label": "_tokenApprovals",
        "offset": 0,
        "slot": "4",
        "type": "t_mapping(t_uint256,t_address)"
      },
      {
        "astId": 312,
        "contract": "contracts/VrfMint.sol:VrfMint",
        "label": "_operatorApprovals",
        "offset": 0,
        "slot": "5",
        "type": "t_mapping(t_address,t_mapping(t_address,t_bool))"
      },
      {
        "astId": 1358,
        "contract": "contracts/VrfMint.sol:VrfMint",
        "label": "_tokenURIs",
        "offset": 0,
        "slot": "6",
        "type": "t_mapping(t_uint256,t_string_storage)"
      },
      {
        "astId": 161,
        "contract": "contracts/VrfMint.sol:VrfMint",
        "label": "_owner",
        "offset": 0,
        "slot": "7",
        "type": "t_address"
      },
      {
        "astId": 2960,
        "contract": "contracts/VrfMint.sol:VrfMint",
        "label": "i_gasLane",
        "offset": 0,
        "slot": "8",
        "type": "t_bytes32"
      },
      {
        "astId": 2963,
        "contract": "contracts/VrfMint.sol:VrfMint",
        "label": "i_callbackGasLimit",
        "offset": 0,
        "slot": "9",
        "type": "t_uint32"
      },
      {
        "astId": 2971,
        "contract": "contracts/VrfMint.sol:VrfMint",
        "label": "s_tokenCounter",
        "offset": 0,
        "slot": "10",
        "type": "t_uint256"
      },
      {
        "astId": 2976,
        "contract": "contracts/VrfMint.sol:VrfMint",
        "label": "s_tokenIdToBreed",
        "offset": 0,
        "slot": "11",
        "type": "t_mapping(t_uint256,t_enum(Breed)2952)"
      },
      {
        "astId": 2982,
        "contract": "contracts/VrfMint.sol:VrfMint",
        "label": "s_fishTokenUris",
        "offset": 0,
        "slot": "12",
        "type": "t_array(t_string_storage)dyn_storage"
      },
      {
        "astId": 2984,
        "contract": "contracts/VrfMint.sol:VrfMint",
        "label": "s_initialized",
        "offset": 0,
        "slot": "13",
        "type": "t_bool"
      },
      {
        "astId": 2988,
        "contract": "contracts/VrfMint.sol:VrfMint",
        "label": "s_requestIdToSender",
        "offset": 0,
        "slot": "14",
        "type": "t_mapping(t_uint256,t_address)"
      }
    ],
    "types": {
      "t_address": {
        "encoding": "inplace",
        "label": "address",
        "numberOfBytes": "20"
      },
      "t_array(t_string_storage)dyn_storage": {
        "base": "t_string_storage",
        "encoding": "dynamic_array",
        "label": "string[]",
        "numberOfBytes": "32"
      },
      "t_bool": {
        "encoding": "inplace",
        "label": "bool",
        "numberOfBytes": "1"
      },
      "t_bytes32": {
        "encoding": "inplace",
        "label": "bytes32",
        "numberOfBytes": "32"
      },
      "t_enum(Breed)2952": {
        "encoding": "inplace",
        "label": "enum VrfMint.Breed",
        "numberOfBytes": "1"
      },
      "t_mapping(t_address,t_bool)": {
        "encoding": "mapping",
        "key": "t_address",
        "label": "mapping(address => bool)",
        "numberOfBytes": "32",
        "value": "t_bool"
      },
      "t_mapping(t_address,t_mapping(t_address,t_bool))": {
        "encoding": "mapping",
        "key": "t_address",
        "label": "mapping(address => mapping(address => bool))",
        "numberOfBytes": "32",
        "value": "t_mapping(t_address,t_bool)"
      },
      "t_mapping(t_address,t_uint256)": {
        "encoding": "mapping",
        "key": "t_address",
        "label": "mapping(address => uint256)",
        "numberOfBytes": "32",
        "value": "t_uint256"
      },
      "t_mapping(t_uint256,t_address)": {
        "encoding": "mapping",
        "key": "t_uint256",
        "label": "mapping(uint256 => address)",
        "numberOfBytes": "32",
        "value": "t_address"
      },
      "t_mapping(t_uint256,t_enum(Breed)2952)": {
        "encoding": "mapping",
        "key": "t_uint256",
        "label": "mapping(uint256 => enum VrfMint.Breed)",
        "numberOfBytes": "32",
        "value": "t_enum(Breed)2952"
      },
      "t_mapping(t_uint256,t_string_storage)": {
        "encoding": "mapping",
        "key": "t_uint256",
        "label": "mapping(uint256 => string)",
        "numberOfBytes": "32",
        "value": "t_string_storage"
      },
      "t_string_storage": {
        "encoding": "bytes",
        "label": "string",
        "numberOfBytes": "32"
      },
      "t_uint256": {
        "encoding": "inplace",
        "label": "uint256",
        "numberOfBytes": "32"
      },
      "t_uint32": {
        "encoding": "inplace",
        "label": "uint32",
        "numberOfBytes": "4"
      }
    }
  }
}